{
	"contracts/addMonth.sol": {
		"AddMonth": {
			"abi": [
				{
					"inputs": [
						{
							"internalType": "uint256",
							"name": "_timestamp",
							"type": "uint256"
						}
					],
					"name": "addOneMonth",
					"outputs": [
						{
							"internalType": "uint256",
							"name": "",
							"type": "uint256"
						}
					],
					"stateMutability": "pure",
					"type": "function"
				}
			],
			"devdoc": {
				"kind": "dev",
				"methods": {},
				"version": 1
			},
			"evm": {
				"assembly": "    /* \"contracts/addMonth.sol\":64:2107  contract AddMonth {... */\n  mstore(0x40, 0x80)\n  callvalue\n  dup1\n  iszero\n  tag_1\n  jumpi\n  0x00\n  dup1\n  revert\ntag_1:\n  pop\n  dataSize(sub_0)\n  dup1\n  dataOffset(sub_0)\n  0x00\n  codecopy\n  0x00\n  return\nstop\n\nsub_0: assembly {\n        /* \"contracts/addMonth.sol\":64:2107  contract AddMonth {... */\n      mstore(0x40, 0x80)\n      callvalue\n      dup1\n      iszero\n      tag_1\n      jumpi\n      0x00\n      dup1\n      revert\n    tag_1:\n      pop\n      jumpi(tag_2, lt(calldatasize, 0x04))\n      shr(0xe0, calldataload(0x00))\n      dup1\n      0xd9d7acc7\n      eq\n      tag_3\n      jumpi\n    tag_2:\n      0x00\n      dup1\n      revert\n        /* \"contracts/addMonth.sol\":89:1183  function addOneMonth(uint256 _timestamp) public pure returns (uint256) {... */\n    tag_3:\n      tag_4\n      0x04\n      dup1\n      calldatasize\n      sub\n      dup2\n      add\n      swap1\n      tag_5\n      swap2\n      swap1\n      tag_6\n      jump\t// in\n    tag_5:\n      tag_7\n      jump\t// in\n    tag_4:\n      mload(0x40)\n      tag_8\n      swap2\n      swap1\n      tag_9\n      jump\t// in\n    tag_8:\n      mload(0x40)\n      dup1\n      swap2\n      sub\n      swap1\n      return\n    tag_7:\n        /* \"contracts/addMonth.sol\":151:158  uint256 */\n      0x00\n        /* \"contracts/addMonth.sol\":171:183  uint256 year */\n      dup1\n        /* \"contracts/addMonth.sol\":207:225  365 * 24 * 60 * 60 */\n      0x01e13380\n        /* \"contracts/addMonth.sol\":193:203  _timestamp */\n      dup4\n        /* \"contracts/addMonth.sol\":193:226  _timestamp / (365 * 24 * 60 * 60) */\n      tag_11\n      swap2\n      swap1\n      tag_12\n      jump\t// in\n    tag_11:\n        /* \"contracts/addMonth.sol\":186:190  1970 */\n      0x07b2\n        /* \"contracts/addMonth.sol\":186:226  1970 + _timestamp / (365 * 24 * 60 * 60) */\n      tag_13\n      swap2\n      swap1\n      tag_14\n      jump\t// in\n    tag_13:\n        /* \"contracts/addMonth.sol\":171:226  uint256 year = 1970 + _timestamp / (365 * 24 * 60 * 60) */\n      swap1\n      pop\n        /* \"contracts/addMonth.sol\":237:254  uint256 dayOfYear */\n      0x00\n        /* \"contracts/addMonth.sol\":312:313  1 */\n      0x01\n        /* \"contracts/addMonth.sol\":296:308  24 * 60 * 60 */\n      0x015180\n        /* \"contracts/addMonth.sol\":272:290  365 * 24 * 60 * 60 */\n      0x01e13380\n        /* \"contracts/addMonth.sol\":258:268  _timestamp */\n      dup7\n        /* \"contracts/addMonth.sol\":258:291  _timestamp % (365 * 24 * 60 * 60) */\n      tag_15\n      swap2\n      swap1\n      tag_16\n      jump\t// in\n    tag_15:\n        /* \"contracts/addMonth.sol\":257:309  (_timestamp % (365 * 24 * 60 * 60)) / (24 * 60 * 60) */\n      tag_17\n      swap2\n      swap1\n      tag_12\n      jump\t// in\n    tag_17:\n        /* \"contracts/addMonth.sol\":257:313  (_timestamp % (365 * 24 * 60 * 60)) / (24 * 60 * 60) + 1 */\n      tag_18\n      swap2\n      swap1\n      tag_14\n      jump\t// in\n    tag_18:\n        /* \"contracts/addMonth.sol\":237:313  uint256 dayOfYear = (_timestamp % (365 * 24 * 60 * 60)) / (24 * 60 * 60) + 1 */\n      swap1\n      pop\n        /* \"contracts/addMonth.sol\":324:337  uint256 month */\n      0x00\n        /* \"contracts/addMonth.sol\":340:341  1 */\n      0x01\n        /* \"contracts/addMonth.sol\":324:341  uint256 month = 1 */\n      swap1\n      pop\n        /* \"contracts/addMonth.sol\":390:406  isLeapYear(year) */\n      tag_19\n        /* \"contracts/addMonth.sol\":401:405  year */\n      dup4\n        /* \"contracts/addMonth.sol\":390:400  isLeapYear */\n      tag_20\n        /* \"contracts/addMonth.sol\":390:406  isLeapYear(year) */\n      jump\t// in\n    tag_19:\n        /* \"contracts/addMonth.sol\":390:429  isLeapYear(year) && dayOfYear > 31 + 29 */\n      dup1\n      iszero\n      tag_21\n      jumpi\n      pop\n        /* \"contracts/addMonth.sol\":422:429  31 + 29 */\n      0x3c\n        /* \"contracts/addMonth.sol\":410:419  dayOfYear */\n      dup3\n        /* \"contracts/addMonth.sol\":410:429  dayOfYear > 31 + 29 */\n      gt\n        /* \"contracts/addMonth.sol\":390:429  isLeapYear(year) && dayOfYear > 31 + 29 */\n    tag_21:\n        /* \"contracts/addMonth.sol\":386:567  if (isLeapYear(year) && dayOfYear > 31 + 29) {... */\n      iszero\n      tag_22\n      jumpi\n        /* \"contracts/addMonth.sol\":459:461  29 */\n      0x1d\n        /* \"contracts/addMonth.sol\":446:461  dayOfYear -= 29 */\n      dup3\n      tag_23\n      swap2\n      swap1\n      tag_24\n      jump\t// in\n    tag_23:\n      swap2\n      pop\n        /* \"contracts/addMonth.sol\":386:567  if (isLeapYear(year) && dayOfYear > 31 + 29) {... */\n      jump(tag_25)\n    tag_22:\n        /* \"contracts/addMonth.sol\":484:500  isLeapYear(year) */\n      tag_26\n        /* \"contracts/addMonth.sol\":495:499  year */\n      dup4\n        /* \"contracts/addMonth.sol\":484:494  isLeapYear */\n      tag_20\n        /* \"contracts/addMonth.sol\":484:500  isLeapYear(year) */\n      jump\t// in\n    tag_26:\n        /* \"contracts/addMonth.sol\":483:500  !isLeapYear(year) */\n      iszero\n        /* \"contracts/addMonth.sol\":483:523  !isLeapYear(year) && dayOfYear > 31 + 28 */\n      dup1\n      iszero\n      tag_27\n      jumpi\n      pop\n        /* \"contracts/addMonth.sol\":516:523  31 + 28 */\n      0x3b\n        /* \"contracts/addMonth.sol\":504:513  dayOfYear */\n      dup3\n        /* \"contracts/addMonth.sol\":504:523  dayOfYear > 31 + 28 */\n      gt\n        /* \"contracts/addMonth.sol\":483:523  !isLeapYear(year) && dayOfYear > 31 + 28 */\n    tag_27:\n        /* \"contracts/addMonth.sol\":479:567  if (!isLeapYear(year) && dayOfYear > 31 + 28) {... */\n      iszero\n      tag_28\n      jumpi\n        /* \"contracts/addMonth.sol\":553:555  28 */\n      0x1c\n        /* \"contracts/addMonth.sol\":540:555  dayOfYear -= 28 */\n      dup3\n      tag_29\n      swap2\n      swap1\n      tag_24\n      jump\t// in\n    tag_29:\n      swap2\n      pop\n        /* \"contracts/addMonth.sol\":479:567  if (!isLeapYear(year) && dayOfYear > 31 + 28) {... */\n    tag_28:\n        /* \"contracts/addMonth.sol\":386:567  if (isLeapYear(year) && dayOfYear > 31 + 29) {... */\n    tag_25:\n        /* \"contracts/addMonth.sol\":579:725  while (month <= 12 && dayOfYear > daysInMonth(month, year)) {... */\n    tag_30:\n        /* \"contracts/addMonth.sol\":595:597  12 */\n      0x0c\n        /* \"contracts/addMonth.sol\":586:591  month */\n      dup2\n        /* \"contracts/addMonth.sol\":586:597  month <= 12 */\n      gt\n      iszero\n        /* \"contracts/addMonth.sol\":586:637  month <= 12 && dayOfYear > daysInMonth(month, year) */\n      dup1\n      iszero\n      tag_32\n      jumpi\n      pop\n        /* \"contracts/addMonth.sol\":613:637  daysInMonth(month, year) */\n      tag_33\n        /* \"contracts/addMonth.sol\":625:630  month */\n      dup2\n        /* \"contracts/addMonth.sol\":632:636  year */\n      dup5\n        /* \"contracts/addMonth.sol\":613:624  daysInMonth */\n      tag_34\n        /* \"contracts/addMonth.sol\":613:637  daysInMonth(month, year) */\n      jump\t// in\n    tag_33:\n        /* \"contracts/addMonth.sol\":601:610  dayOfYear */\n      dup3\n        /* \"contracts/addMonth.sol\":601:637  dayOfYear > daysInMonth(month, year) */\n      gt\n        /* \"contracts/addMonth.sol\":586:637  month <= 12 && dayOfYear > daysInMonth(month, year) */\n    tag_32:\n        /* \"contracts/addMonth.sol\":579:725  while (month <= 12 && dayOfYear > daysInMonth(month, year)) {... */\n      iszero\n      tag_31\n      jumpi\n        /* \"contracts/addMonth.sol\":667:691  daysInMonth(month, year) */\n      tag_35\n        /* \"contracts/addMonth.sol\":679:684  month */\n      dup2\n        /* \"contracts/addMonth.sol\":686:690  year */\n      dup5\n        /* \"contracts/addMonth.sol\":667:678  daysInMonth */\n      tag_34\n        /* \"contracts/addMonth.sol\":667:691  daysInMonth(month, year) */\n      jump\t// in\n    tag_35:\n        /* \"contracts/addMonth.sol\":654:691  dayOfYear -= daysInMonth(month, year) */\n      dup3\n      tag_36\n      swap2\n      swap1\n      tag_24\n      jump\t// in\n    tag_36:\n      swap2\n      pop\n        /* \"contracts/addMonth.sol\":706:713  month++ */\n      dup1\n      dup1\n      tag_37\n      swap1\n      tag_38\n      jump\t// in\n    tag_37:\n      swap2\n      pop\n      pop\n        /* \"contracts/addMonth.sol\":579:725  while (month <= 12 && dayOfYear > daysInMonth(month, year)) {... */\n      jump(tag_30)\n    tag_31:\n        /* \"contracts/addMonth.sol\":831:855  daysInMonth(month, year) */\n      tag_39\n        /* \"contracts/addMonth.sol\":843:848  month */\n      dup2\n        /* \"contracts/addMonth.sol\":850:854  year */\n      dup5\n        /* \"contracts/addMonth.sol\":831:842  daysInMonth */\n      tag_34\n        /* \"contracts/addMonth.sol\":831:855  daysInMonth(month, year) */\n      jump\t// in\n    tag_39:\n        /* \"contracts/addMonth.sol\":819:828  dayOfYear */\n      dup3\n        /* \"contracts/addMonth.sol\":819:855  dayOfYear > daysInMonth(month, year) */\n      gt\n        /* \"contracts/addMonth.sol\":815:920  if (dayOfYear > daysInMonth(month, year)) {... */\n      iszero\n      tag_40\n      jumpi\n        /* \"contracts/addMonth.sol\":884:908  daysInMonth(month, year) */\n      tag_41\n        /* \"contracts/addMonth.sol\":896:901  month */\n      dup2\n        /* \"contracts/addMonth.sol\":903:907  year */\n      dup5\n        /* \"contracts/addMonth.sol\":884:895  daysInMonth */\n      tag_34\n        /* \"contracts/addMonth.sol\":884:908  daysInMonth(month, year) */\n      jump\t// in\n    tag_41:\n        /* \"contracts/addMonth.sol\":872:908  dayOfYear = daysInMonth(month, year) */\n      swap2\n      pop\n        /* \"contracts/addMonth.sol\":815:920  if (dayOfYear > daysInMonth(month, year)) {... */\n    tag_40:\n        /* \"contracts/addMonth.sol\":1010:1012  12 */\n      0x0c\n        /* \"contracts/addMonth.sol\":1001:1006  month */\n      dup2\n        /* \"contracts/addMonth.sol\":1001:1012  month == 12 */\n      sub\n        /* \"contracts/addMonth.sol\":997:1121  if (month == 12) {... */\n      tag_42\n      jumpi\n        /* \"contracts/addMonth.sol\":1037:1038  1 */\n      0x01\n        /* \"contracts/addMonth.sol\":1029:1038  month = 1 */\n      swap1\n      pop\n        /* \"contracts/addMonth.sol\":1053:1059  year++ */\n      dup3\n      dup1\n      tag_43\n      swap1\n      tag_38\n      jump\t// in\n    tag_43:\n      swap4\n      pop\n      pop\n        /* \"contracts/addMonth.sol\":997:1121  if (month == 12) {... */\n      jump(tag_44)\n    tag_42:\n        /* \"contracts/addMonth.sol\":1108:1109  1 */\n      0x01\n        /* \"contracts/addMonth.sol\":1100:1105  month */\n      dup2\n        /* \"contracts/addMonth.sol\":1100:1109  month + 1 */\n      tag_45\n      swap2\n      swap1\n      tag_14\n      jump\t// in\n    tag_45:\n        /* \"contracts/addMonth.sol\":1092:1109  month = month + 1 */\n      swap1\n      pop\n        /* \"contracts/addMonth.sol\":997:1121  if (month == 12) {... */\n    tag_44:\n        /* \"contracts/addMonth.sol\":1138:1175  toTimestamp(year, month+1, dayOfYear) */\n      tag_46\n        /* \"contracts/addMonth.sol\":1150:1154  year */\n      dup4\n        /* \"contracts/addMonth.sol\":1162:1163  1 */\n      0x01\n        /* \"contracts/addMonth.sol\":1156:1161  month */\n      dup4\n        /* \"contracts/addMonth.sol\":1156:1163  month+1 */\n      tag_47\n      swap2\n      swap1\n      tag_14\n      jump\t// in\n    tag_47:\n        /* \"contracts/addMonth.sol\":1165:1174  dayOfYear */\n      dup5\n        /* \"contracts/addMonth.sol\":1138:1149  toTimestamp */\n      tag_48\n        /* \"contracts/addMonth.sol\":1138:1175  toTimestamp(year, month+1, dayOfYear) */\n      jump\t// in\n    tag_46:\n        /* \"contracts/addMonth.sol\":1131:1175  return toTimestamp(year, month+1, dayOfYear) */\n      swap4\n      pop\n      pop\n      pop\n      pop\n        /* \"contracts/addMonth.sol\":89:1183  function addOneMonth(uint256 _timestamp) public pure returns (uint256) {... */\n      swap2\n      swap1\n      pop\n      jump\t// out\n        /* \"contracts/addMonth.sol\":1191:1332  function isLeapYear(uint256 year) private pure returns (bool) {... */\n    tag_20:\n        /* \"contracts/addMonth.sol\":1247:1251  bool */\n      0x00\n        /* \"contracts/addMonth.sol\":1283:1284  0 */\n      dup1\n        /* \"contracts/addMonth.sol\":1278:1279  4 */\n      0x04\n        /* \"contracts/addMonth.sol\":1271:1275  year */\n      dup4\n        /* \"contracts/addMonth.sol\":1271:1279  year % 4 */\n      tag_50\n      swap2\n      swap1\n      tag_16\n      jump\t// in\n    tag_50:\n        /* \"contracts/addMonth.sol\":1271:1284  year % 4 == 0 */\n      eq\n        /* \"contracts/addMonth.sol\":1271:1324  year % 4 == 0 && (year % 100 != 0 || year % 400 == 0) */\n      dup1\n      iszero\n      tag_51\n      jumpi\n      pop\n        /* \"contracts/addMonth.sol\":1303:1304  0 */\n      0x00\n        /* \"contracts/addMonth.sol\":1296:1299  100 */\n      0x64\n        /* \"contracts/addMonth.sol\":1289:1293  year */\n      dup4\n        /* \"contracts/addMonth.sol\":1289:1299  year % 100 */\n      tag_52\n      swap2\n      swap1\n      tag_16\n      jump\t// in\n    tag_52:\n        /* \"contracts/addMonth.sol\":1289:1304  year % 100 != 0 */\n      eq\n      iszero\n        /* \"contracts/addMonth.sol\":1289:1323  year % 100 != 0 || year % 400 == 0 */\n      dup1\n      tag_53\n      jumpi\n      pop\n        /* \"contracts/addMonth.sol\":1322:1323  0 */\n      0x00\n        /* \"contracts/addMonth.sol\":1315:1318  400 */\n      0x0190\n        /* \"contracts/addMonth.sol\":1308:1312  year */\n      dup4\n        /* \"contracts/addMonth.sol\":1308:1318  year % 400 */\n      tag_54\n      swap2\n      swap1\n      tag_16\n      jump\t// in\n    tag_54:\n        /* \"contracts/addMonth.sol\":1308:1323  year % 400 == 0 */\n      eq\n        /* \"contracts/addMonth.sol\":1289:1323  year % 100 != 0 || year % 400 == 0 */\n    tag_53:\n        /* \"contracts/addMonth.sol\":1271:1324  year % 4 == 0 && (year % 100 != 0 || year % 400 == 0) */\n    tag_51:\n        /* \"contracts/addMonth.sol\":1264:1324  return year % 4 == 0 && (year % 100 != 0 || year % 400 == 0) */\n      swap1\n      pop\n        /* \"contracts/addMonth.sol\":1191:1332  function isLeapYear(uint256 year) private pure returns (bool) {... */\n      swap2\n      swap1\n      pop\n      jump\t// out\n        /* \"contracts/addMonth.sol\":1340:1658  function daysInMonth(uint256 month, uint256 year) private pure returns (uint256) {... */\n    tag_34:\n        /* \"contracts/addMonth.sol\":1412:1419  uint256 */\n      0x00\n        /* \"contracts/addMonth.sol\":1445:1446  2 */\n      0x02\n        /* \"contracts/addMonth.sol\":1436:1441  month */\n      dup4\n        /* \"contracts/addMonth.sol\":1436:1446  month == 2 */\n      sub\n        /* \"contracts/addMonth.sol\":1432:1651  if (month == 2) {... */\n      tag_56\n      jumpi\n        /* \"contracts/addMonth.sol\":1470:1486  isLeapYear(year) */\n      tag_57\n        /* \"contracts/addMonth.sol\":1481:1485  year */\n      dup3\n        /* \"contracts/addMonth.sol\":1470:1480  isLeapYear */\n      tag_20\n        /* \"contracts/addMonth.sol\":1470:1486  isLeapYear(year) */\n      jump\t// in\n    tag_57:\n        /* \"contracts/addMonth.sol\":1470:1496  isLeapYear(year) ? 29 : 28 */\n      tag_58\n      jumpi\n        /* \"contracts/addMonth.sol\":1494:1496  28 */\n      0x1c\n        /* \"contracts/addMonth.sol\":1470:1496  isLeapYear(year) ? 29 : 28 */\n      jump(tag_59)\n    tag_58:\n        /* \"contracts/addMonth.sol\":1489:1491  29 */\n      0x1d\n        /* \"contracts/addMonth.sol\":1470:1496  isLeapYear(year) ? 29 : 28 */\n    tag_59:\n        /* \"contracts/addMonth.sol\":1463:1496  return isLeapYear(year) ? 29 : 28 */\n      0xff\n      and\n      swap1\n      pop\n      jump(tag_55)\n        /* \"contracts/addMonth.sol\":1432:1651  if (month == 2) {... */\n    tag_56:\n        /* \"contracts/addMonth.sol\":1527:1528  4 */\n      0x04\n        /* \"contracts/addMonth.sol\":1518:1523  month */\n      dup4\n        /* \"contracts/addMonth.sol\":1518:1528  month == 4 */\n      eq\n        /* \"contracts/addMonth.sol\":1518:1542  month == 4 || month == 6 */\n      dup1\n      tag_61\n      jumpi\n      pop\n        /* \"contracts/addMonth.sol\":1541:1542  6 */\n      0x06\n        /* \"contracts/addMonth.sol\":1532:1537  month */\n      dup4\n        /* \"contracts/addMonth.sol\":1532:1542  month == 6 */\n      eq\n        /* \"contracts/addMonth.sol\":1518:1542  month == 4 || month == 6 */\n    tag_61:\n        /* \"contracts/addMonth.sol\":1518:1556  month == 4 || month == 6 || month == 9 */\n      dup1\n      tag_62\n      jumpi\n      pop\n        /* \"contracts/addMonth.sol\":1555:1556  9 */\n      0x09\n        /* \"contracts/addMonth.sol\":1546:1551  month */\n      dup4\n        /* \"contracts/addMonth.sol\":1546:1556  month == 9 */\n      eq\n        /* \"contracts/addMonth.sol\":1518:1556  month == 4 || month == 6 || month == 9 */\n    tag_62:\n        /* \"contracts/addMonth.sol\":1518:1571  month == 4 || month == 6 || month == 9 || month == 11 */\n      dup1\n      tag_63\n      jumpi\n      pop\n        /* \"contracts/addMonth.sol\":1569:1571  11 */\n      0x0b\n        /* \"contracts/addMonth.sol\":1560:1565  month */\n      dup4\n        /* \"contracts/addMonth.sol\":1560:1571  month == 11 */\n      eq\n        /* \"contracts/addMonth.sol\":1518:1571  month == 4 || month == 6 || month == 9 || month == 11 */\n    tag_63:\n        /* \"contracts/addMonth.sol\":1514:1651  if (month == 4 || month == 6 || month == 9 || month == 11) {... */\n      iszero\n      tag_64\n      jumpi\n        /* \"contracts/addMonth.sol\":1595:1597  30 */\n      0x1e\n        /* \"contracts/addMonth.sol\":1588:1597  return 30 */\n      swap1\n      pop\n      jump(tag_55)\n        /* \"contracts/addMonth.sol\":1514:1651  if (month == 4 || month == 6 || month == 9 || month == 11) {... */\n    tag_64:\n        /* \"contracts/addMonth.sol\":1637:1639  31 */\n      0x1f\n        /* \"contracts/addMonth.sol\":1630:1639  return 31 */\n      swap1\n      pop\n        /* \"contracts/addMonth.sol\":1340:1658  function daysInMonth(uint256 month, uint256 year) private pure returns (uint256) {... */\n    tag_55:\n      swap3\n      swap2\n      pop\n      pop\n      jump\t// out\n        /* \"contracts/addMonth.sol\":1666:2104  function toTimestamp(uint256 year, uint256 month, uint256 dayOfMonth) private pure returns (uint256) {... */\n    tag_48:\n        /* \"contracts/addMonth.sol\":1758:1765  uint256 */\n      0x00\n        /* \"contracts/addMonth.sol\":1778:1795  uint256 dayOfYear */\n      dup1\n        /* \"contracts/addMonth.sol\":1798:1799  0 */\n      0x00\n        /* \"contracts/addMonth.sol\":1778:1799  uint256 dayOfYear = 0 */\n      swap1\n      pop\n        /* \"contracts/addMonth.sol\":1817:1826  uint256 i */\n      0x00\n        /* \"contracts/addMonth.sol\":1812:1978  for (uint256 i = 0; i < month; i++) {... */\n    tag_67:\n        /* \"contracts/addMonth.sol\":1836:1841  month */\n      dup5\n        /* \"contracts/addMonth.sol\":1832:1833  i */\n      dup2\n        /* \"contracts/addMonth.sol\":1832:1841  i < month */\n      lt\n        /* \"contracts/addMonth.sol\":1812:1978  for (uint256 i = 0; i < month; i++) {... */\n      iszero\n      tag_68\n      jumpi\n        /* \"contracts/addMonth.sol\":1872:1873  1 */\n      0x01\n        /* \"contracts/addMonth.sol\":1867:1868  i */\n      dup2\n        /* \"contracts/addMonth.sol\":1867:1873  i == 1 */\n      sub\n        /* \"contracts/addMonth.sol\":1863:1919  if (i == 1){... */\n      tag_70\n      jumpi\n        /* \"contracts/addMonth.sol\":1902:1903  1 */\n      0x01\n        /* \"contracts/addMonth.sol\":1893:1903  month -= 1 */\n      dup6\n      tag_71\n      swap2\n      swap1\n      tag_24\n      jump\t// in\n    tag_71:\n      swap5\n      pop\n        /* \"contracts/addMonth.sol\":1863:1919  if (i == 1){... */\n    tag_70:\n        /* \"contracts/addMonth.sol\":1946:1966  daysInMonth(i, year) */\n      tag_72\n        /* \"contracts/addMonth.sol\":1958:1959  i */\n      dup2\n        /* \"contracts/addMonth.sol\":1961:1965  year */\n      dup8\n        /* \"contracts/addMonth.sol\":1946:1957  daysInMonth */\n      tag_34\n        /* \"contracts/addMonth.sol\":1946:1966  daysInMonth(i, year) */\n      jump\t// in\n    tag_72:\n        /* \"contracts/addMonth.sol\":1933:1966  dayOfYear += daysInMonth(i, year) */\n      dup3\n      tag_73\n      swap2\n      swap1\n      tag_14\n      jump\t// in\n    tag_73:\n      swap2\n      pop\n        /* \"contracts/addMonth.sol\":1843:1846  i++ */\n      dup1\n      dup1\n      tag_74\n      swap1\n      tag_38\n      jump\t// in\n    tag_74:\n      swap2\n      pop\n      pop\n        /* \"contracts/addMonth.sol\":1812:1978  for (uint256 i = 0; i < month; i++) {... */\n      jump(tag_67)\n    tag_68:\n      pop\n        /* \"contracts/addMonth.sol\":2014:2015  1 */\n      0x01\n        /* \"contracts/addMonth.sol\":2001:2011  dayOfMonth */\n      dup4\n        /* \"contracts/addMonth.sol\":2001:2015  dayOfMonth - 1 */\n      tag_75\n      swap2\n      swap1\n      tag_24\n      jump\t// in\n    tag_75:\n        /* \"contracts/addMonth.sol\":1988:2015  dayOfYear += dayOfMonth - 1 */\n      dup2\n      tag_76\n      swap2\n      swap1\n      tag_14\n      jump\t// in\n    tag_76:\n      swap1\n      pop\n        /* \"contracts/addMonth.sol\":2094:2096  60 */\n      0x3c\n        /* \"contracts/addMonth.sol\":2089:2091  60 */\n      dup1\n        /* \"contracts/addMonth.sol\":2084:2086  24 */\n      0x18\n        /* \"contracts/addMonth.sol\":2072:2081  dayOfYear */\n      dup4\n        /* \"contracts/addMonth.sol\":2072:2086  dayOfYear * 24 */\n      tag_77\n      swap2\n      swap1\n      tag_78\n      jump\t// in\n    tag_77:\n        /* \"contracts/addMonth.sol\":2072:2091  dayOfYear * 24 * 60 */\n      tag_79\n      swap2\n      swap1\n      tag_78\n      jump\t// in\n    tag_79:\n        /* \"contracts/addMonth.sol\":2072:2096  dayOfYear * 24 * 60 * 60 */\n      tag_80\n      swap2\n      swap1\n      tag_78\n      jump\t// in\n    tag_80:\n        /* \"contracts/addMonth.sol\":2067:2069  60 */\n      0x3c\n        /* \"contracts/addMonth.sol\":2062:2064  60 */\n      dup1\n        /* \"contracts/addMonth.sol\":2057:2059  24 */\n      0x18\n        /* \"contracts/addMonth.sol\":2051:2054  365 */\n      0x016d\n        /* \"contracts/addMonth.sol\":2043:2047  1970 */\n      0x07b2\n        /* \"contracts/addMonth.sol\":2036:2040  year */\n      dup11\n        /* \"contracts/addMonth.sol\":2036:2047  year - 1970 */\n      tag_81\n      swap2\n      swap1\n      tag_24\n      jump\t// in\n    tag_81:\n        /* \"contracts/addMonth.sol\":2035:2054  (year - 1970) * 365 */\n      tag_82\n      swap2\n      swap1\n      tag_78\n      jump\t// in\n    tag_82:\n        /* \"contracts/addMonth.sol\":2035:2059  (year - 1970) * 365 * 24 */\n      tag_83\n      swap2\n      swap1\n      tag_78\n      jump\t// in\n    tag_83:\n        /* \"contracts/addMonth.sol\":2035:2064  (year - 1970) * 365 * 24 * 60 */\n      tag_84\n      swap2\n      swap1\n      tag_78\n      jump\t// in\n    tag_84:\n        /* \"contracts/addMonth.sol\":2035:2069  (year - 1970) * 365 * 24 * 60 * 60 */\n      tag_85\n      swap2\n      swap1\n      tag_78\n      jump\t// in\n    tag_85:\n        /* \"contracts/addMonth.sol\":2035:2096  (year - 1970) * 365 * 24 * 60 * 60 + dayOfYear * 24 * 60 * 60 */\n      tag_86\n      swap2\n      swap1\n      tag_14\n      jump\t// in\n    tag_86:\n        /* \"contracts/addMonth.sol\":2028:2096  return (year - 1970) * 365 * 24 * 60 * 60 + dayOfYear * 24 * 60 * 60 */\n      swap2\n      pop\n      pop\n        /* \"contracts/addMonth.sol\":1666:2104  function toTimestamp(uint256 year, uint256 month, uint256 dayOfMonth) private pure returns (uint256) {... */\n      swap4\n      swap3\n      pop\n      pop\n      pop\n      jump\t// out\n        /* \"#utility.yul\":88:205   */\n    tag_88:\n        /* \"#utility.yul\":197:198   */\n      0x00\n        /* \"#utility.yul\":194:195   */\n      dup1\n        /* \"#utility.yul\":187:199   */\n      revert\n        /* \"#utility.yul\":334:411   */\n    tag_90:\n        /* \"#utility.yul\":371:378   */\n      0x00\n        /* \"#utility.yul\":400:405   */\n      dup2\n        /* \"#utility.yul\":389:405   */\n      swap1\n      pop\n        /* \"#utility.yul\":334:411   */\n      swap2\n      swap1\n      pop\n      jump\t// out\n        /* \"#utility.yul\":417:539   */\n    tag_91:\n        /* \"#utility.yul\":490:514   */\n      tag_102\n        /* \"#utility.yul\":508:513   */\n      dup2\n        /* \"#utility.yul\":490:514   */\n      tag_90\n      jump\t// in\n    tag_102:\n        /* \"#utility.yul\":483:488   */\n      dup2\n        /* \"#utility.yul\":480:515   */\n      eq\n        /* \"#utility.yul\":470:533   */\n      tag_103\n      jumpi\n        /* \"#utility.yul\":529:530   */\n      0x00\n        /* \"#utility.yul\":526:527   */\n      dup1\n        /* \"#utility.yul\":519:531   */\n      revert\n        /* \"#utility.yul\":470:533   */\n    tag_103:\n        /* \"#utility.yul\":417:539   */\n      pop\n      jump\t// out\n        /* \"#utility.yul\":545:684   */\n    tag_92:\n        /* \"#utility.yul\":591:596   */\n      0x00\n        /* \"#utility.yul\":629:635   */\n      dup2\n        /* \"#utility.yul\":616:636   */\n      calldataload\n        /* \"#utility.yul\":607:636   */\n      swap1\n      pop\n        /* \"#utility.yul\":645:678   */\n      tag_105\n        /* \"#utility.yul\":672:677   */\n      dup2\n        /* \"#utility.yul\":645:678   */\n      tag_91\n      jump\t// in\n    tag_105:\n        /* \"#utility.yul\":545:684   */\n      swap3\n      swap2\n      pop\n      pop\n      jump\t// out\n        /* \"#utility.yul\":690:1019   */\n    tag_6:\n        /* \"#utility.yul\":749:755   */\n      0x00\n        /* \"#utility.yul\":798:800   */\n      0x20\n        /* \"#utility.yul\":786:795   */\n      dup3\n        /* \"#utility.yul\":777:784   */\n      dup5\n        /* \"#utility.yul\":773:796   */\n      sub\n        /* \"#utility.yul\":769:801   */\n      slt\n        /* \"#utility.yul\":766:885   */\n      iszero\n      tag_107\n      jumpi\n        /* \"#utility.yul\":804:883   */\n      tag_108\n      tag_88\n      jump\t// in\n    tag_108:\n        /* \"#utility.yul\":766:885   */\n    tag_107:\n        /* \"#utility.yul\":924:925   */\n      0x00\n        /* \"#utility.yul\":949:1002   */\n      tag_109\n        /* \"#utility.yul\":994:1001   */\n      dup5\n        /* \"#utility.yul\":985:991   */\n      dup3\n        /* \"#utility.yul\":974:983   */\n      dup6\n        /* \"#utility.yul\":970:992   */\n      add\n        /* \"#utility.yul\":949:1002   */\n      tag_92\n      jump\t// in\n    tag_109:\n        /* \"#utility.yul\":939:1002   */\n      swap2\n      pop\n        /* \"#utility.yul\":895:1012   */\n      pop\n        /* \"#utility.yul\":690:1019   */\n      swap3\n      swap2\n      pop\n      pop\n      jump\t// out\n        /* \"#utility.yul\":1025:1143   */\n    tag_93:\n        /* \"#utility.yul\":1112:1136   */\n      tag_111\n        /* \"#utility.yul\":1130:1135   */\n      dup2\n        /* \"#utility.yul\":1112:1136   */\n      tag_90\n      jump\t// in\n    tag_111:\n        /* \"#utility.yul\":1107:1110   */\n      dup3\n        /* \"#utility.yul\":1100:1137   */\n      mstore\n        /* \"#utility.yul\":1025:1143   */\n      pop\n      pop\n      jump\t// out\n        /* \"#utility.yul\":1149:1371   */\n    tag_9:\n        /* \"#utility.yul\":1242:1246   */\n      0x00\n        /* \"#utility.yul\":1280:1282   */\n      0x20\n        /* \"#utility.yul\":1269:1278   */\n      dup3\n        /* \"#utility.yul\":1265:1283   */\n      add\n        /* \"#utility.yul\":1257:1283   */\n      swap1\n      pop\n        /* \"#utility.yul\":1293:1364   */\n      tag_113\n        /* \"#utility.yul\":1361:1362   */\n      0x00\n        /* \"#utility.yul\":1350:1359   */\n      dup4\n        /* \"#utility.yul\":1346:1363   */\n      add\n        /* \"#utility.yul\":1337:1343   */\n      dup5\n        /* \"#utility.yul\":1293:1364   */\n      tag_93\n      jump\t// in\n    tag_113:\n        /* \"#utility.yul\":1149:1371   */\n      swap3\n      swap2\n      pop\n      pop\n      jump\t// out\n        /* \"#utility.yul\":1377:1557   */\n    tag_94:\n        /* \"#utility.yul\":1425:1502   */\n      0x4e487b7100000000000000000000000000000000000000000000000000000000\n        /* \"#utility.yul\":1422:1423   */\n      0x00\n        /* \"#utility.yul\":1415:1503   */\n      mstore\n        /* \"#utility.yul\":1522:1526   */\n      0x12\n        /* \"#utility.yul\":1519:1520   */\n      0x04\n        /* \"#utility.yul\":1512:1527   */\n      mstore\n        /* \"#utility.yul\":1546:1550   */\n      0x24\n        /* \"#utility.yul\":1543:1544   */\n      0x00\n        /* \"#utility.yul\":1536:1551   */\n      revert\n        /* \"#utility.yul\":1563:1743   */\n    tag_95:\n        /* \"#utility.yul\":1611:1688   */\n      0x4e487b7100000000000000000000000000000000000000000000000000000000\n        /* \"#utility.yul\":1608:1609   */\n      0x00\n        /* \"#utility.yul\":1601:1689   */\n      mstore\n        /* \"#utility.yul\":1708:1712   */\n      0x11\n        /* \"#utility.yul\":1705:1706   */\n      0x04\n        /* \"#utility.yul\":1698:1713   */\n      mstore\n        /* \"#utility.yul\":1732:1736   */\n      0x24\n        /* \"#utility.yul\":1729:1730   */\n      0x00\n        /* \"#utility.yul\":1722:1737   */\n      revert\n        /* \"#utility.yul\":1749:1934   */\n    tag_12:\n        /* \"#utility.yul\":1789:1790   */\n      0x00\n        /* \"#utility.yul\":1806:1826   */\n      tag_117\n        /* \"#utility.yul\":1824:1825   */\n      dup3\n        /* \"#utility.yul\":1806:1826   */\n      tag_90\n      jump\t// in\n    tag_117:\n        /* \"#utility.yul\":1801:1826   */\n      swap2\n      pop\n        /* \"#utility.yul\":1840:1860   */\n      tag_118\n        /* \"#utility.yul\":1858:1859   */\n      dup4\n        /* \"#utility.yul\":1840:1860   */\n      tag_90\n      jump\t// in\n    tag_118:\n        /* \"#utility.yul\":1835:1860   */\n      swap3\n      pop\n        /* \"#utility.yul\":1879:1880   */\n      dup3\n        /* \"#utility.yul\":1869:1904   */\n      tag_119\n      jumpi\n        /* \"#utility.yul\":1884:1902   */\n      tag_120\n      tag_94\n      jump\t// in\n    tag_120:\n        /* \"#utility.yul\":1869:1904   */\n    tag_119:\n        /* \"#utility.yul\":1926:1927   */\n      dup3\n        /* \"#utility.yul\":1923:1924   */\n      dup3\n        /* \"#utility.yul\":1919:1928   */\n      div\n        /* \"#utility.yul\":1914:1928   */\n      swap1\n      pop\n        /* \"#utility.yul\":1749:1934   */\n      swap3\n      swap2\n      pop\n      pop\n      jump\t// out\n        /* \"#utility.yul\":1940:2131   */\n    tag_14:\n        /* \"#utility.yul\":1980:1983   */\n      0x00\n        /* \"#utility.yul\":1999:2019   */\n      tag_122\n        /* \"#utility.yul\":2017:2018   */\n      dup3\n        /* \"#utility.yul\":1999:2019   */\n      tag_90\n      jump\t// in\n    tag_122:\n        /* \"#utility.yul\":1994:2019   */\n      swap2\n      pop\n        /* \"#utility.yul\":2033:2053   */\n      tag_123\n        /* \"#utility.yul\":2051:2052   */\n      dup4\n        /* \"#utility.yul\":2033:2053   */\n      tag_90\n      jump\t// in\n    tag_123:\n        /* \"#utility.yul\":2028:2053   */\n      swap3\n      pop\n        /* \"#utility.yul\":2076:2077   */\n      dup3\n        /* \"#utility.yul\":2073:2074   */\n      dup3\n        /* \"#utility.yul\":2069:2078   */\n      add\n        /* \"#utility.yul\":2062:2078   */\n      swap1\n      pop\n        /* \"#utility.yul\":2097:2100   */\n      dup1\n        /* \"#utility.yul\":2094:2095   */\n      dup3\n        /* \"#utility.yul\":2091:2101   */\n      gt\n        /* \"#utility.yul\":2088:2124   */\n      iszero\n      tag_124\n      jumpi\n        /* \"#utility.yul\":2104:2122   */\n      tag_125\n      tag_95\n      jump\t// in\n    tag_125:\n        /* \"#utility.yul\":2088:2124   */\n    tag_124:\n        /* \"#utility.yul\":1940:2131   */\n      swap3\n      swap2\n      pop\n      pop\n      jump\t// out\n        /* \"#utility.yul\":2137:2313   */\n    tag_16:\n        /* \"#utility.yul\":2169:2170   */\n      0x00\n        /* \"#utility.yul\":2186:2206   */\n      tag_127\n        /* \"#utility.yul\":2204:2205   */\n      dup3\n        /* \"#utility.yul\":2186:2206   */\n      tag_90\n      jump\t// in\n    tag_127:\n        /* \"#utility.yul\":2181:2206   */\n      swap2\n      pop\n        /* \"#utility.yul\":2220:2240   */\n      tag_128\n        /* \"#utility.yul\":2238:2239   */\n      dup4\n        /* \"#utility.yul\":2220:2240   */\n      tag_90\n      jump\t// in\n    tag_128:\n        /* \"#utility.yul\":2215:2240   */\n      swap3\n      pop\n        /* \"#utility.yul\":2259:2260   */\n      dup3\n        /* \"#utility.yul\":2249:2284   */\n      tag_129\n      jumpi\n        /* \"#utility.yul\":2264:2282   */\n      tag_130\n      tag_94\n      jump\t// in\n    tag_130:\n        /* \"#utility.yul\":2249:2284   */\n    tag_129:\n        /* \"#utility.yul\":2305:2306   */\n      dup3\n        /* \"#utility.yul\":2302:2303   */\n      dup3\n        /* \"#utility.yul\":2298:2307   */\n      mod\n        /* \"#utility.yul\":2293:2307   */\n      swap1\n      pop\n        /* \"#utility.yul\":2137:2313   */\n      swap3\n      swap2\n      pop\n      pop\n      jump\t// out\n        /* \"#utility.yul\":2319:2513   */\n    tag_24:\n        /* \"#utility.yul\":2359:2363   */\n      0x00\n        /* \"#utility.yul\":2379:2399   */\n      tag_132\n        /* \"#utility.yul\":2397:2398   */\n      dup3\n        /* \"#utility.yul\":2379:2399   */\n      tag_90\n      jump\t// in\n    tag_132:\n        /* \"#utility.yul\":2374:2399   */\n      swap2\n      pop\n        /* \"#utility.yul\":2413:2433   */\n      tag_133\n        /* \"#utility.yul\":2431:2432   */\n      dup4\n        /* \"#utility.yul\":2413:2433   */\n      tag_90\n      jump\t// in\n    tag_133:\n        /* \"#utility.yul\":2408:2433   */\n      swap3\n      pop\n        /* \"#utility.yul\":2457:2458   */\n      dup3\n        /* \"#utility.yul\":2454:2455   */\n      dup3\n        /* \"#utility.yul\":2450:2459   */\n      sub\n        /* \"#utility.yul\":2442:2459   */\n      swap1\n      pop\n        /* \"#utility.yul\":2481:2482   */\n      dup2\n        /* \"#utility.yul\":2475:2479   */\n      dup2\n        /* \"#utility.yul\":2472:2483   */\n      gt\n        /* \"#utility.yul\":2469:2506   */\n      iszero\n      tag_134\n      jumpi\n        /* \"#utility.yul\":2486:2504   */\n      tag_135\n      tag_95\n      jump\t// in\n    tag_135:\n        /* \"#utility.yul\":2469:2506   */\n    tag_134:\n        /* \"#utility.yul\":2319:2513   */\n      swap3\n      swap2\n      pop\n      pop\n      jump\t// out\n        /* \"#utility.yul\":2519:2752   */\n    tag_38:\n        /* \"#utility.yul\":2558:2561   */\n      0x00\n        /* \"#utility.yul\":2581:2605   */\n      tag_137\n        /* \"#utility.yul\":2599:2604   */\n      dup3\n        /* \"#utility.yul\":2581:2605   */\n      tag_90\n      jump\t// in\n    tag_137:\n        /* \"#utility.yul\":2572:2605   */\n      swap2\n      pop\n        /* \"#utility.yul\":2627:2693   */\n      0xffffffffffffffffffffffffffffffffffffffffffffffffffffffffffffffff\n        /* \"#utility.yul\":2620:2625   */\n      dup3\n        /* \"#utility.yul\":2617:2694   */\n      sub\n        /* \"#utility.yul\":2614:2717   */\n      tag_138\n      jumpi\n        /* \"#utility.yul\":2697:2715   */\n      tag_139\n      tag_95\n      jump\t// in\n    tag_139:\n        /* \"#utility.yul\":2614:2717   */\n    tag_138:\n        /* \"#utility.yul\":2744:2745   */\n      0x01\n        /* \"#utility.yul\":2737:2742   */\n      dup3\n        /* \"#utility.yul\":2733:2746   */\n      add\n        /* \"#utility.yul\":2726:2746   */\n      swap1\n      pop\n        /* \"#utility.yul\":2519:2752   */\n      swap2\n      swap1\n      pop\n      jump\t// out\n        /* \"#utility.yul\":2758:3168   */\n    tag_78:\n        /* \"#utility.yul\":2798:2805   */\n      0x00\n        /* \"#utility.yul\":2821:2841   */\n      tag_141\n        /* \"#utility.yul\":2839:2840   */\n      dup3\n        /* \"#utility.yul\":2821:2841   */\n      tag_90\n      jump\t// in\n    tag_141:\n        /* \"#utility.yul\":2816:2841   */\n      swap2\n      pop\n        /* \"#utility.yul\":2855:2875   */\n      tag_142\n        /* \"#utility.yul\":2873:2874   */\n      dup4\n        /* \"#utility.yul\":2855:2875   */\n      tag_90\n      jump\t// in\n    tag_142:\n        /* \"#utility.yul\":2850:2875   */\n      swap3\n      pop\n        /* \"#utility.yul\":2910:2911   */\n      dup3\n        /* \"#utility.yul\":2907:2908   */\n      dup3\n        /* \"#utility.yul\":2903:2912   */\n      mul\n        /* \"#utility.yul\":2932:2962   */\n      tag_143\n        /* \"#utility.yul\":2950:2961   */\n      dup2\n        /* \"#utility.yul\":2932:2962   */\n      tag_90\n      jump\t// in\n    tag_143:\n        /* \"#utility.yul\":2921:2962   */\n      swap2\n      pop\n        /* \"#utility.yul\":3111:3112   */\n      dup3\n        /* \"#utility.yul\":3102:3109   */\n      dup3\n        /* \"#utility.yul\":3098:3113   */\n      div\n        /* \"#utility.yul\":3095:3096   */\n      dup5\n        /* \"#utility.yul\":3092:3114   */\n      eq\n        /* \"#utility.yul\":3072:3073   */\n      dup4\n        /* \"#utility.yul\":3065:3074   */\n      iszero\n        /* \"#utility.yul\":3045:3128   */\n      or\n        /* \"#utility.yul\":3022:3161   */\n      tag_144\n      jumpi\n        /* \"#utility.yul\":3141:3159   */\n      tag_145\n      tag_95\n      jump\t// in\n    tag_145:\n        /* \"#utility.yul\":3022:3161   */\n    tag_144:\n        /* \"#utility.yul\":2806:3168   */\n      pop\n        /* \"#utility.yul\":2758:3168   */\n      swap3\n      swap2\n      pop\n      pop\n      jump\t// out\n\n    auxdata: 0xa264697066735822122000f581dbb921952e09396f2085c6f990c62f1461b874d0c9e33ad5e6b0c363cb64736f6c63430008120033\n}\n",
				"bytecode": {
					"linkReferences": {},
					"object": "608060405234801561001057600080fd5b506105d8806100206000396000f3fe608060405234801561001057600080fd5b506004361061002b5760003560e01c8063d9d7acc714610030575b600080fd5b61004a60048036038101906100459190610399565b610060565b60405161005791906103d5565b60405180910390f35b6000806301e1338083610073919061044e565b6107b2610080919061047f565b905060006001620151806301e133808661009a91906104b3565b6100a4919061044e565b6100ae919061047f565b90506000600190506100bf836101c7565b80156100cb5750603c82115b156100e457601d826100dd91906104e4565b9150610110565b6100ed836101c7565b1580156100fa5750603b82115b1561010f57601c8261010c91906104e4565b91505b5b5b600c811115801561012a57506101278184610210565b82115b15610159576101398184610210565b8261014491906104e4565b9150808061015190610518565b915050610111565b6101638184610210565b821115610177576101748184610210565b91505b600c81036101965760019050828061018e90610518565b9350506101a6565b6001816101a3919061047f565b90505b6101bd836001836101b7919061047f565b84610279565b9350505050919050565b6000806004836101d791906104b3565b148015610209575060006064836101ee91906104b3565b141580610208575060006101908361020691906104b3565b145b5b9050919050565b60006002830361023b57610223826101c7565b61022e57601c610231565b601d5b60ff169050610273565b600483148061024a5750600683145b806102555750600983145b806102605750600b83145b1561026e57601e9050610273565b601f90505b92915050565b6000806000905060005b848110156102cd57600181036102a3576001856102a091906104e4565b94505b6102ad8187610210565b826102b8919061047f565b915080806102c590610518565b915050610283565b506001836102db91906104e4565b816102e6919061047f565b9050603c806018836102f89190610560565b6103029190610560565b61030c9190610560565b603c80601861016d6107b28a61032291906104e4565b61032c9190610560565b6103369190610560565b6103409190610560565b61034a9190610560565b610354919061047f565b9150509392505050565b600080fd5b6000819050919050565b61037681610363565b811461038157600080fd5b50565b6000813590506103938161036d565b92915050565b6000602082840312156103af576103ae61035e565b5b60006103bd84828501610384565b91505092915050565b6103cf81610363565b82525050565b60006020820190506103ea60008301846103c6565b92915050565b7f4e487b7100000000000000000000000000000000000000000000000000000000600052601260045260246000fd5b7f4e487b7100000000000000000000000000000000000000000000000000000000600052601160045260246000fd5b600061045982610363565b915061046483610363565b925082610474576104736103f0565b5b828204905092915050565b600061048a82610363565b915061049583610363565b92508282019050808211156104ad576104ac61041f565b5b92915050565b60006104be82610363565b91506104c983610363565b9250826104d9576104d86103f0565b5b828206905092915050565b60006104ef82610363565b91506104fa83610363565b92508282039050818111156105125761051161041f565b5b92915050565b600061052382610363565b91507fffffffffffffffffffffffffffffffffffffffffffffffffffffffffffffffff82036105555761055461041f565b5b600182019050919050565b600061056b82610363565b915061057683610363565b925082820261058481610363565b9150828204841483151761059b5761059a61041f565b5b509291505056fea264697066735822122000f581dbb921952e09396f2085c6f990c62f1461b874d0c9e33ad5e6b0c363cb64736f6c63430008120033",
					"opcodes": "PUSH1 0x80 PUSH1 0x40 MSTORE CALLVALUE DUP1 ISZERO PUSH2 0x10 JUMPI PUSH1 0x0 DUP1 REVERT JUMPDEST POP PUSH2 0x5D8 DUP1 PUSH2 0x20 PUSH1 0x0 CODECOPY PUSH1 0x0 RETURN INVALID PUSH1 0x80 PUSH1 0x40 MSTORE CALLVALUE DUP1 ISZERO PUSH2 0x10 JUMPI PUSH1 0x0 DUP1 REVERT JUMPDEST POP PUSH1 0x4 CALLDATASIZE LT PUSH2 0x2B JUMPI PUSH1 0x0 CALLDATALOAD PUSH1 0xE0 SHR DUP1 PUSH4 0xD9D7ACC7 EQ PUSH2 0x30 JUMPI JUMPDEST PUSH1 0x0 DUP1 REVERT JUMPDEST PUSH2 0x4A PUSH1 0x4 DUP1 CALLDATASIZE SUB DUP2 ADD SWAP1 PUSH2 0x45 SWAP2 SWAP1 PUSH2 0x399 JUMP JUMPDEST PUSH2 0x60 JUMP JUMPDEST PUSH1 0x40 MLOAD PUSH2 0x57 SWAP2 SWAP1 PUSH2 0x3D5 JUMP JUMPDEST PUSH1 0x40 MLOAD DUP1 SWAP2 SUB SWAP1 RETURN JUMPDEST PUSH1 0x0 DUP1 PUSH4 0x1E13380 DUP4 PUSH2 0x73 SWAP2 SWAP1 PUSH2 0x44E JUMP JUMPDEST PUSH2 0x7B2 PUSH2 0x80 SWAP2 SWAP1 PUSH2 0x47F JUMP JUMPDEST SWAP1 POP PUSH1 0x0 PUSH1 0x1 PUSH3 0x15180 PUSH4 0x1E13380 DUP7 PUSH2 0x9A SWAP2 SWAP1 PUSH2 0x4B3 JUMP JUMPDEST PUSH2 0xA4 SWAP2 SWAP1 PUSH2 0x44E JUMP JUMPDEST PUSH2 0xAE SWAP2 SWAP1 PUSH2 0x47F JUMP JUMPDEST SWAP1 POP PUSH1 0x0 PUSH1 0x1 SWAP1 POP PUSH2 0xBF DUP4 PUSH2 0x1C7 JUMP JUMPDEST DUP1 ISZERO PUSH2 0xCB JUMPI POP PUSH1 0x3C DUP3 GT JUMPDEST ISZERO PUSH2 0xE4 JUMPI PUSH1 0x1D DUP3 PUSH2 0xDD SWAP2 SWAP1 PUSH2 0x4E4 JUMP JUMPDEST SWAP2 POP PUSH2 0x110 JUMP JUMPDEST PUSH2 0xED DUP4 PUSH2 0x1C7 JUMP JUMPDEST ISZERO DUP1 ISZERO PUSH2 0xFA JUMPI POP PUSH1 0x3B DUP3 GT JUMPDEST ISZERO PUSH2 0x10F JUMPI PUSH1 0x1C DUP3 PUSH2 0x10C SWAP2 SWAP1 PUSH2 0x4E4 JUMP JUMPDEST SWAP2 POP JUMPDEST JUMPDEST JUMPDEST PUSH1 0xC DUP2 GT ISZERO DUP1 ISZERO PUSH2 0x12A JUMPI POP PUSH2 0x127 DUP2 DUP5 PUSH2 0x210 JUMP JUMPDEST DUP3 GT JUMPDEST ISZERO PUSH2 0x159 JUMPI PUSH2 0x139 DUP2 DUP5 PUSH2 0x210 JUMP JUMPDEST DUP3 PUSH2 0x144 SWAP2 SWAP1 PUSH2 0x4E4 JUMP JUMPDEST SWAP2 POP DUP1 DUP1 PUSH2 0x151 SWAP1 PUSH2 0x518 JUMP JUMPDEST SWAP2 POP POP PUSH2 0x111 JUMP JUMPDEST PUSH2 0x163 DUP2 DUP5 PUSH2 0x210 JUMP JUMPDEST DUP3 GT ISZERO PUSH2 0x177 JUMPI PUSH2 0x174 DUP2 DUP5 PUSH2 0x210 JUMP JUMPDEST SWAP2 POP JUMPDEST PUSH1 0xC DUP2 SUB PUSH2 0x196 JUMPI PUSH1 0x1 SWAP1 POP DUP3 DUP1 PUSH2 0x18E SWAP1 PUSH2 0x518 JUMP JUMPDEST SWAP4 POP POP PUSH2 0x1A6 JUMP JUMPDEST PUSH1 0x1 DUP2 PUSH2 0x1A3 SWAP2 SWAP1 PUSH2 0x47F JUMP JUMPDEST SWAP1 POP JUMPDEST PUSH2 0x1BD DUP4 PUSH1 0x1 DUP4 PUSH2 0x1B7 SWAP2 SWAP1 PUSH2 0x47F JUMP JUMPDEST DUP5 PUSH2 0x279 JUMP JUMPDEST SWAP4 POP POP POP POP SWAP2 SWAP1 POP JUMP JUMPDEST PUSH1 0x0 DUP1 PUSH1 0x4 DUP4 PUSH2 0x1D7 SWAP2 SWAP1 PUSH2 0x4B3 JUMP JUMPDEST EQ DUP1 ISZERO PUSH2 0x209 JUMPI POP PUSH1 0x0 PUSH1 0x64 DUP4 PUSH2 0x1EE SWAP2 SWAP1 PUSH2 0x4B3 JUMP JUMPDEST EQ ISZERO DUP1 PUSH2 0x208 JUMPI POP PUSH1 0x0 PUSH2 0x190 DUP4 PUSH2 0x206 SWAP2 SWAP1 PUSH2 0x4B3 JUMP JUMPDEST EQ JUMPDEST JUMPDEST SWAP1 POP SWAP2 SWAP1 POP JUMP JUMPDEST PUSH1 0x0 PUSH1 0x2 DUP4 SUB PUSH2 0x23B JUMPI PUSH2 0x223 DUP3 PUSH2 0x1C7 JUMP JUMPDEST PUSH2 0x22E JUMPI PUSH1 0x1C PUSH2 0x231 JUMP JUMPDEST PUSH1 0x1D JUMPDEST PUSH1 0xFF AND SWAP1 POP PUSH2 0x273 JUMP JUMPDEST PUSH1 0x4 DUP4 EQ DUP1 PUSH2 0x24A JUMPI POP PUSH1 0x6 DUP4 EQ JUMPDEST DUP1 PUSH2 0x255 JUMPI POP PUSH1 0x9 DUP4 EQ JUMPDEST DUP1 PUSH2 0x260 JUMPI POP PUSH1 0xB DUP4 EQ JUMPDEST ISZERO PUSH2 0x26E JUMPI PUSH1 0x1E SWAP1 POP PUSH2 0x273 JUMP JUMPDEST PUSH1 0x1F SWAP1 POP JUMPDEST SWAP3 SWAP2 POP POP JUMP JUMPDEST PUSH1 0x0 DUP1 PUSH1 0x0 SWAP1 POP PUSH1 0x0 JUMPDEST DUP5 DUP2 LT ISZERO PUSH2 0x2CD JUMPI PUSH1 0x1 DUP2 SUB PUSH2 0x2A3 JUMPI PUSH1 0x1 DUP6 PUSH2 0x2A0 SWAP2 SWAP1 PUSH2 0x4E4 JUMP JUMPDEST SWAP5 POP JUMPDEST PUSH2 0x2AD DUP2 DUP8 PUSH2 0x210 JUMP JUMPDEST DUP3 PUSH2 0x2B8 SWAP2 SWAP1 PUSH2 0x47F JUMP JUMPDEST SWAP2 POP DUP1 DUP1 PUSH2 0x2C5 SWAP1 PUSH2 0x518 JUMP JUMPDEST SWAP2 POP POP PUSH2 0x283 JUMP JUMPDEST POP PUSH1 0x1 DUP4 PUSH2 0x2DB SWAP2 SWAP1 PUSH2 0x4E4 JUMP JUMPDEST DUP2 PUSH2 0x2E6 SWAP2 SWAP1 PUSH2 0x47F JUMP JUMPDEST SWAP1 POP PUSH1 0x3C DUP1 PUSH1 0x18 DUP4 PUSH2 0x2F8 SWAP2 SWAP1 PUSH2 0x560 JUMP JUMPDEST PUSH2 0x302 SWAP2 SWAP1 PUSH2 0x560 JUMP JUMPDEST PUSH2 0x30C SWAP2 SWAP1 PUSH2 0x560 JUMP JUMPDEST PUSH1 0x3C DUP1 PUSH1 0x18 PUSH2 0x16D PUSH2 0x7B2 DUP11 PUSH2 0x322 SWAP2 SWAP1 PUSH2 0x4E4 JUMP JUMPDEST PUSH2 0x32C SWAP2 SWAP1 PUSH2 0x560 JUMP JUMPDEST PUSH2 0x336 SWAP2 SWAP1 PUSH2 0x560 JUMP JUMPDEST PUSH2 0x340 SWAP2 SWAP1 PUSH2 0x560 JUMP JUMPDEST PUSH2 0x34A SWAP2 SWAP1 PUSH2 0x560 JUMP JUMPDEST PUSH2 0x354 SWAP2 SWAP1 PUSH2 0x47F JUMP JUMPDEST SWAP2 POP POP SWAP4 SWAP3 POP POP POP JUMP JUMPDEST PUSH1 0x0 DUP1 REVERT JUMPDEST PUSH1 0x0 DUP2 SWAP1 POP SWAP2 SWAP1 POP JUMP JUMPDEST PUSH2 0x376 DUP2 PUSH2 0x363 JUMP JUMPDEST DUP2 EQ PUSH2 0x381 JUMPI PUSH1 0x0 DUP1 REVERT JUMPDEST POP JUMP JUMPDEST PUSH1 0x0 DUP2 CALLDATALOAD SWAP1 POP PUSH2 0x393 DUP2 PUSH2 0x36D JUMP JUMPDEST SWAP3 SWAP2 POP POP JUMP JUMPDEST PUSH1 0x0 PUSH1 0x20 DUP3 DUP5 SUB SLT ISZERO PUSH2 0x3AF JUMPI PUSH2 0x3AE PUSH2 0x35E JUMP JUMPDEST JUMPDEST PUSH1 0x0 PUSH2 0x3BD DUP5 DUP3 DUP6 ADD PUSH2 0x384 JUMP JUMPDEST SWAP2 POP POP SWAP3 SWAP2 POP POP JUMP JUMPDEST PUSH2 0x3CF DUP2 PUSH2 0x363 JUMP JUMPDEST DUP3 MSTORE POP POP JUMP JUMPDEST PUSH1 0x0 PUSH1 0x20 DUP3 ADD SWAP1 POP PUSH2 0x3EA PUSH1 0x0 DUP4 ADD DUP5 PUSH2 0x3C6 JUMP JUMPDEST SWAP3 SWAP2 POP POP JUMP JUMPDEST PUSH32 0x4E487B7100000000000000000000000000000000000000000000000000000000 PUSH1 0x0 MSTORE PUSH1 0x12 PUSH1 0x4 MSTORE PUSH1 0x24 PUSH1 0x0 REVERT JUMPDEST PUSH32 0x4E487B7100000000000000000000000000000000000000000000000000000000 PUSH1 0x0 MSTORE PUSH1 0x11 PUSH1 0x4 MSTORE PUSH1 0x24 PUSH1 0x0 REVERT JUMPDEST PUSH1 0x0 PUSH2 0x459 DUP3 PUSH2 0x363 JUMP JUMPDEST SWAP2 POP PUSH2 0x464 DUP4 PUSH2 0x363 JUMP JUMPDEST SWAP3 POP DUP3 PUSH2 0x474 JUMPI PUSH2 0x473 PUSH2 0x3F0 JUMP JUMPDEST JUMPDEST DUP3 DUP3 DIV SWAP1 POP SWAP3 SWAP2 POP POP JUMP JUMPDEST PUSH1 0x0 PUSH2 0x48A DUP3 PUSH2 0x363 JUMP JUMPDEST SWAP2 POP PUSH2 0x495 DUP4 PUSH2 0x363 JUMP JUMPDEST SWAP3 POP DUP3 DUP3 ADD SWAP1 POP DUP1 DUP3 GT ISZERO PUSH2 0x4AD JUMPI PUSH2 0x4AC PUSH2 0x41F JUMP JUMPDEST JUMPDEST SWAP3 SWAP2 POP POP JUMP JUMPDEST PUSH1 0x0 PUSH2 0x4BE DUP3 PUSH2 0x363 JUMP JUMPDEST SWAP2 POP PUSH2 0x4C9 DUP4 PUSH2 0x363 JUMP JUMPDEST SWAP3 POP DUP3 PUSH2 0x4D9 JUMPI PUSH2 0x4D8 PUSH2 0x3F0 JUMP JUMPDEST JUMPDEST DUP3 DUP3 MOD SWAP1 POP SWAP3 SWAP2 POP POP JUMP JUMPDEST PUSH1 0x0 PUSH2 0x4EF DUP3 PUSH2 0x363 JUMP JUMPDEST SWAP2 POP PUSH2 0x4FA DUP4 PUSH2 0x363 JUMP JUMPDEST SWAP3 POP DUP3 DUP3 SUB SWAP1 POP DUP2 DUP2 GT ISZERO PUSH2 0x512 JUMPI PUSH2 0x511 PUSH2 0x41F JUMP JUMPDEST JUMPDEST SWAP3 SWAP2 POP POP JUMP JUMPDEST PUSH1 0x0 PUSH2 0x523 DUP3 PUSH2 0x363 JUMP JUMPDEST SWAP2 POP PUSH32 0xFFFFFFFFFFFFFFFFFFFFFFFFFFFFFFFFFFFFFFFFFFFFFFFFFFFFFFFFFFFFFFFF DUP3 SUB PUSH2 0x555 JUMPI PUSH2 0x554 PUSH2 0x41F JUMP JUMPDEST JUMPDEST PUSH1 0x1 DUP3 ADD SWAP1 POP SWAP2 SWAP1 POP JUMP JUMPDEST PUSH1 0x0 PUSH2 0x56B DUP3 PUSH2 0x363 JUMP JUMPDEST SWAP2 POP PUSH2 0x576 DUP4 PUSH2 0x363 JUMP JUMPDEST SWAP3 POP DUP3 DUP3 MUL PUSH2 0x584 DUP2 PUSH2 0x363 JUMP JUMPDEST SWAP2 POP DUP3 DUP3 DIV DUP5 EQ DUP4 ISZERO OR PUSH2 0x59B JUMPI PUSH2 0x59A PUSH2 0x41F JUMP JUMPDEST JUMPDEST POP SWAP3 SWAP2 POP POP JUMP INVALID LOG2 PUSH5 0x6970667358 0x22 SLT KECCAK256 STOP CREATE2 DUP2 0xDB 0xB9 0x21 SWAP6 0x2E MULMOD CODECOPY PUSH16 0x2085C6F990C62F1461B874D0C9E33AD5 0xE6 0xB0 0xC3 PUSH4 0xCB64736F PUSH13 0x63430008120033000000000000 "
				},
				"gasEstimates": {
					"creation": {
						"codeDepositCost": "299200",
						"executionCost": "337",
						"totalCost": "299537"
					},
					"external": {
						"addOneMonth(uint256)": "infinite"
					},
					"internal": {
						"daysInMonth(uint256,uint256)": "infinite",
						"isLeapYear(uint256)": "infinite",
						"toTimestamp(uint256,uint256,uint256)": "infinite"
					}
				},
				"methodIdentifiers": {
					"addOneMonth(uint256)": "d9d7acc7"
				}
			},
			"storageLayout": {
				"storage": [],
				"types": null
			},
			"userdoc": {
				"kind": "user",
				"methods": {},
				"version": 1
			}
		}
	}
}