{
	"data": {
		"bytecode": {
			"linkReferences": {},
			"object": "608060405234801561001057600080fd5b506105d8806100206000396000f3fe608060405234801561001057600080fd5b506004361061002b5760003560e01c8063d9d7acc714610030575b600080fd5b61004a60048036038101906100459190610399565b610060565b60405161005791906103d5565b60405180910390f35b6000806301e1338083610073919061044e565b6107b2610080919061047f565b905060006001620151806301e133808661009a91906104b3565b6100a4919061044e565b6100ae919061047f565b90506000600190506100bf836101c7565b80156100cb5750603c82115b156100e457601d826100dd91906104e4565b9150610110565b6100ed836101c7565b1580156100fa5750603b82115b1561010f57601c8261010c91906104e4565b91505b5b5b600c811115801561012a57506101278184610210565b82115b15610159576101398184610210565b8261014491906104e4565b9150808061015190610518565b915050610111565b6101638184610210565b821115610177576101748184610210565b91505b600c81036101965760019050828061018e90610518565b9350506101a6565b6001816101a3919061047f565b90505b6101bd836001836101b7919061047f565b84610279565b9350505050919050565b6000806004836101d791906104b3565b148015610209575060006064836101ee91906104b3565b141580610208575060006101908361020691906104b3565b145b5b9050919050565b60006002830361023b57610223826101c7565b61022e57601c610231565b601d5b60ff169050610273565b600483148061024a5750600683145b806102555750600983145b806102605750600b83145b1561026e57601e9050610273565b601f90505b92915050565b6000806000905060005b848110156102cd57600181036102a3576001856102a091906104e4565b94505b6102ad8187610210565b826102b8919061047f565b915080806102c590610518565b915050610283565b506001836102db91906104e4565b816102e6919061047f565b9050603c806018836102f89190610560565b6103029190610560565b61030c9190610560565b603c80601861016d6107b28a61032291906104e4565b61032c9190610560565b6103369190610560565b6103409190610560565b61034a9190610560565b610354919061047f565b9150509392505050565b600080fd5b6000819050919050565b61037681610363565b811461038157600080fd5b50565b6000813590506103938161036d565b92915050565b6000602082840312156103af576103ae61035e565b5b60006103bd84828501610384565b91505092915050565b6103cf81610363565b82525050565b60006020820190506103ea60008301846103c6565b92915050565b7f4e487b7100000000000000000000000000000000000000000000000000000000600052601260045260246000fd5b7f4e487b7100000000000000000000000000000000000000000000000000000000600052601160045260246000fd5b600061045982610363565b915061046483610363565b925082610474576104736103f0565b5b828204905092915050565b600061048a82610363565b915061049583610363565b92508282019050808211156104ad576104ac61041f565b5b92915050565b60006104be82610363565b91506104c983610363565b9250826104d9576104d86103f0565b5b828206905092915050565b60006104ef82610363565b91506104fa83610363565b92508282039050818111156105125761051161041f565b5b92915050565b600061052382610363565b91507fffffffffffffffffffffffffffffffffffffffffffffffffffffffffffffffff82036105555761055461041f565b5b600182019050919050565b600061056b82610363565b915061057683610363565b925082820261058481610363565b9150828204841483151761059b5761059a61041f565b5b509291505056fea264697066735822122000f581dbb921952e09396f2085c6f990c62f1461b874d0c9e33ad5e6b0c363cb64736f6c63430008120033",
			"opcodes": "PUSH1 0x80 PUSH1 0x40 MSTORE CALLVALUE DUP1 ISZERO PUSH2 0x10 JUMPI PUSH1 0x0 DUP1 REVERT JUMPDEST POP PUSH2 0x5D8 DUP1 PUSH2 0x20 PUSH1 0x0 CODECOPY PUSH1 0x0 RETURN INVALID PUSH1 0x80 PUSH1 0x40 MSTORE CALLVALUE DUP1 ISZERO PUSH2 0x10 JUMPI PUSH1 0x0 DUP1 REVERT JUMPDEST POP PUSH1 0x4 CALLDATASIZE LT PUSH2 0x2B JUMPI PUSH1 0x0 CALLDATALOAD PUSH1 0xE0 SHR DUP1 PUSH4 0xD9D7ACC7 EQ PUSH2 0x30 JUMPI JUMPDEST PUSH1 0x0 DUP1 REVERT JUMPDEST PUSH2 0x4A PUSH1 0x4 DUP1 CALLDATASIZE SUB DUP2 ADD SWAP1 PUSH2 0x45 SWAP2 SWAP1 PUSH2 0x399 JUMP JUMPDEST PUSH2 0x60 JUMP JUMPDEST PUSH1 0x40 MLOAD PUSH2 0x57 SWAP2 SWAP1 PUSH2 0x3D5 JUMP JUMPDEST PUSH1 0x40 MLOAD DUP1 SWAP2 SUB SWAP1 RETURN JUMPDEST PUSH1 0x0 DUP1 PUSH4 0x1E13380 DUP4 PUSH2 0x73 SWAP2 SWAP1 PUSH2 0x44E JUMP JUMPDEST PUSH2 0x7B2 PUSH2 0x80 SWAP2 SWAP1 PUSH2 0x47F JUMP JUMPDEST SWAP1 POP PUSH1 0x0 PUSH1 0x1 PUSH3 0x15180 PUSH4 0x1E13380 DUP7 PUSH2 0x9A SWAP2 SWAP1 PUSH2 0x4B3 JUMP JUMPDEST PUSH2 0xA4 SWAP2 SWAP1 PUSH2 0x44E JUMP JUMPDEST PUSH2 0xAE SWAP2 SWAP1 PUSH2 0x47F JUMP JUMPDEST SWAP1 POP PUSH1 0x0 PUSH1 0x1 SWAP1 POP PUSH2 0xBF DUP4 PUSH2 0x1C7 JUMP JUMPDEST DUP1 ISZERO PUSH2 0xCB JUMPI POP PUSH1 0x3C DUP3 GT JUMPDEST ISZERO PUSH2 0xE4 JUMPI PUSH1 0x1D DUP3 PUSH2 0xDD SWAP2 SWAP1 PUSH2 0x4E4 JUMP JUMPDEST SWAP2 POP PUSH2 0x110 JUMP JUMPDEST PUSH2 0xED DUP4 PUSH2 0x1C7 JUMP JUMPDEST ISZERO DUP1 ISZERO PUSH2 0xFA JUMPI POP PUSH1 0x3B DUP3 GT JUMPDEST ISZERO PUSH2 0x10F JUMPI PUSH1 0x1C DUP3 PUSH2 0x10C SWAP2 SWAP1 PUSH2 0x4E4 JUMP JUMPDEST SWAP2 POP JUMPDEST JUMPDEST JUMPDEST PUSH1 0xC DUP2 GT ISZERO DUP1 ISZERO PUSH2 0x12A JUMPI POP PUSH2 0x127 DUP2 DUP5 PUSH2 0x210 JUMP JUMPDEST DUP3 GT JUMPDEST ISZERO PUSH2 0x159 JUMPI PUSH2 0x139 DUP2 DUP5 PUSH2 0x210 JUMP JUMPDEST DUP3 PUSH2 0x144 SWAP2 SWAP1 PUSH2 0x4E4 JUMP JUMPDEST SWAP2 POP DUP1 DUP1 PUSH2 0x151 SWAP1 PUSH2 0x518 JUMP JUMPDEST SWAP2 POP POP PUSH2 0x111 JUMP JUMPDEST PUSH2 0x163 DUP2 DUP5 PUSH2 0x210 JUMP JUMPDEST DUP3 GT ISZERO PUSH2 0x177 JUMPI PUSH2 0x174 DUP2 DUP5 PUSH2 0x210 JUMP JUMPDEST SWAP2 POP JUMPDEST PUSH1 0xC DUP2 SUB PUSH2 0x196 JUMPI PUSH1 0x1 SWAP1 POP DUP3 DUP1 PUSH2 0x18E SWAP1 PUSH2 0x518 JUMP JUMPDEST SWAP4 POP POP PUSH2 0x1A6 JUMP JUMPDEST PUSH1 0x1 DUP2 PUSH2 0x1A3 SWAP2 SWAP1 PUSH2 0x47F JUMP JUMPDEST SWAP1 POP JUMPDEST PUSH2 0x1BD DUP4 PUSH1 0x1 DUP4 PUSH2 0x1B7 SWAP2 SWAP1 PUSH2 0x47F JUMP JUMPDEST DUP5 PUSH2 0x279 JUMP JUMPDEST SWAP4 POP POP POP POP SWAP2 SWAP1 POP JUMP JUMPDEST PUSH1 0x0 DUP1 PUSH1 0x4 DUP4 PUSH2 0x1D7 SWAP2 SWAP1 PUSH2 0x4B3 JUMP JUMPDEST EQ DUP1 ISZERO PUSH2 0x209 JUMPI POP PUSH1 0x0 PUSH1 0x64 DUP4 PUSH2 0x1EE SWAP2 SWAP1 PUSH2 0x4B3 JUMP JUMPDEST EQ ISZERO DUP1 PUSH2 0x208 JUMPI POP PUSH1 0x0 PUSH2 0x190 DUP4 PUSH2 0x206 SWAP2 SWAP1 PUSH2 0x4B3 JUMP JUMPDEST EQ JUMPDEST JUMPDEST SWAP1 POP SWAP2 SWAP1 POP JUMP JUMPDEST PUSH1 0x0 PUSH1 0x2 DUP4 SUB PUSH2 0x23B JUMPI PUSH2 0x223 DUP3 PUSH2 0x1C7 JUMP JUMPDEST PUSH2 0x22E JUMPI PUSH1 0x1C PUSH2 0x231 JUMP JUMPDEST PUSH1 0x1D JUMPDEST PUSH1 0xFF AND SWAP1 POP PUSH2 0x273 JUMP JUMPDEST PUSH1 0x4 DUP4 EQ DUP1 PUSH2 0x24A JUMPI POP PUSH1 0x6 DUP4 EQ JUMPDEST DUP1 PUSH2 0x255 JUMPI POP PUSH1 0x9 DUP4 EQ JUMPDEST DUP1 PUSH2 0x260 JUMPI POP PUSH1 0xB DUP4 EQ JUMPDEST ISZERO PUSH2 0x26E JUMPI PUSH1 0x1E SWAP1 POP PUSH2 0x273 JUMP JUMPDEST PUSH1 0x1F SWAP1 POP JUMPDEST SWAP3 SWAP2 POP POP JUMP JUMPDEST PUSH1 0x0 DUP1 PUSH1 0x0 SWAP1 POP PUSH1 0x0 JUMPDEST DUP5 DUP2 LT ISZERO PUSH2 0x2CD JUMPI PUSH1 0x1 DUP2 SUB PUSH2 0x2A3 JUMPI PUSH1 0x1 DUP6 PUSH2 0x2A0 SWAP2 SWAP1 PUSH2 0x4E4 JUMP JUMPDEST SWAP5 POP JUMPDEST PUSH2 0x2AD DUP2 DUP8 PUSH2 0x210 JUMP JUMPDEST DUP3 PUSH2 0x2B8 SWAP2 SWAP1 PUSH2 0x47F JUMP JUMPDEST SWAP2 POP DUP1 DUP1 PUSH2 0x2C5 SWAP1 PUSH2 0x518 JUMP JUMPDEST SWAP2 POP POP PUSH2 0x283 JUMP JUMPDEST POP PUSH1 0x1 DUP4 PUSH2 0x2DB SWAP2 SWAP1 PUSH2 0x4E4 JUMP JUMPDEST DUP2 PUSH2 0x2E6 SWAP2 SWAP1 PUSH2 0x47F JUMP JUMPDEST SWAP1 POP PUSH1 0x3C DUP1 PUSH1 0x18 DUP4 PUSH2 0x2F8 SWAP2 SWAP1 PUSH2 0x560 JUMP JUMPDEST PUSH2 0x302 SWAP2 SWAP1 PUSH2 0x560 JUMP JUMPDEST PUSH2 0x30C SWAP2 SWAP1 PUSH2 0x560 JUMP JUMPDEST PUSH1 0x3C DUP1 PUSH1 0x18 PUSH2 0x16D PUSH2 0x7B2 DUP11 PUSH2 0x322 SWAP2 SWAP1 PUSH2 0x4E4 JUMP JUMPDEST PUSH2 0x32C SWAP2 SWAP1 PUSH2 0x560 JUMP JUMPDEST PUSH2 0x336 SWAP2 SWAP1 PUSH2 0x560 JUMP JUMPDEST PUSH2 0x340 SWAP2 SWAP1 PUSH2 0x560 JUMP JUMPDEST PUSH2 0x34A SWAP2 SWAP1 PUSH2 0x560 JUMP JUMPDEST PUSH2 0x354 SWAP2 SWAP1 PUSH2 0x47F JUMP JUMPDEST SWAP2 POP POP SWAP4 SWAP3 POP POP POP JUMP JUMPDEST PUSH1 0x0 DUP1 REVERT JUMPDEST PUSH1 0x0 DUP2 SWAP1 POP SWAP2 SWAP1 POP JUMP JUMPDEST PUSH2 0x376 DUP2 PUSH2 0x363 JUMP JUMPDEST DUP2 EQ PUSH2 0x381 JUMPI PUSH1 0x0 DUP1 REVERT JUMPDEST POP JUMP JUMPDEST PUSH1 0x0 DUP2 CALLDATALOAD SWAP1 POP PUSH2 0x393 DUP2 PUSH2 0x36D JUMP JUMPDEST SWAP3 SWAP2 POP POP JUMP JUMPDEST PUSH1 0x0 PUSH1 0x20 DUP3 DUP5 SUB SLT ISZERO PUSH2 0x3AF JUMPI PUSH2 0x3AE PUSH2 0x35E JUMP JUMPDEST JUMPDEST PUSH1 0x0 PUSH2 0x3BD DUP5 DUP3 DUP6 ADD PUSH2 0x384 JUMP JUMPDEST SWAP2 POP POP SWAP3 SWAP2 POP POP JUMP JUMPDEST PUSH2 0x3CF DUP2 PUSH2 0x363 JUMP JUMPDEST DUP3 MSTORE POP POP JUMP JUMPDEST PUSH1 0x0 PUSH1 0x20 DUP3 ADD SWAP1 POP PUSH2 0x3EA PUSH1 0x0 DUP4 ADD DUP5 PUSH2 0x3C6 JUMP JUMPDEST SWAP3 SWAP2 POP POP JUMP JUMPDEST PUSH32 0x4E487B7100000000000000000000000000000000000000000000000000000000 PUSH1 0x0 MSTORE PUSH1 0x12 PUSH1 0x4 MSTORE PUSH1 0x24 PUSH1 0x0 REVERT JUMPDEST PUSH32 0x4E487B7100000000000000000000000000000000000000000000000000000000 PUSH1 0x0 MSTORE PUSH1 0x11 PUSH1 0x4 MSTORE PUSH1 0x24 PUSH1 0x0 REVERT JUMPDEST PUSH1 0x0 PUSH2 0x459 DUP3 PUSH2 0x363 JUMP JUMPDEST SWAP2 POP PUSH2 0x464 DUP4 PUSH2 0x363 JUMP JUMPDEST SWAP3 POP DUP3 PUSH2 0x474 JUMPI PUSH2 0x473 PUSH2 0x3F0 JUMP JUMPDEST JUMPDEST DUP3 DUP3 DIV SWAP1 POP SWAP3 SWAP2 POP POP JUMP JUMPDEST PUSH1 0x0 PUSH2 0x48A DUP3 PUSH2 0x363 JUMP JUMPDEST SWAP2 POP PUSH2 0x495 DUP4 PUSH2 0x363 JUMP JUMPDEST SWAP3 POP DUP3 DUP3 ADD SWAP1 POP DUP1 DUP3 GT ISZERO PUSH2 0x4AD JUMPI PUSH2 0x4AC PUSH2 0x41F JUMP JUMPDEST JUMPDEST SWAP3 SWAP2 POP POP JUMP JUMPDEST PUSH1 0x0 PUSH2 0x4BE DUP3 PUSH2 0x363 JUMP JUMPDEST SWAP2 POP PUSH2 0x4C9 DUP4 PUSH2 0x363 JUMP JUMPDEST SWAP3 POP DUP3 PUSH2 0x4D9 JUMPI PUSH2 0x4D8 PUSH2 0x3F0 JUMP JUMPDEST JUMPDEST DUP3 DUP3 MOD SWAP1 POP SWAP3 SWAP2 POP POP JUMP JUMPDEST PUSH1 0x0 PUSH2 0x4EF DUP3 PUSH2 0x363 JUMP JUMPDEST SWAP2 POP PUSH2 0x4FA DUP4 PUSH2 0x363 JUMP JUMPDEST SWAP3 POP DUP3 DUP3 SUB SWAP1 POP DUP2 DUP2 GT ISZERO PUSH2 0x512 JUMPI PUSH2 0x511 PUSH2 0x41F JUMP JUMPDEST JUMPDEST SWAP3 SWAP2 POP POP JUMP JUMPDEST PUSH1 0x0 PUSH2 0x523 DUP3 PUSH2 0x363 JUMP JUMPDEST SWAP2 POP PUSH32 0xFFFFFFFFFFFFFFFFFFFFFFFFFFFFFFFFFFFFFFFFFFFFFFFFFFFFFFFFFFFFFFFF DUP3 SUB PUSH2 0x555 JUMPI PUSH2 0x554 PUSH2 0x41F JUMP JUMPDEST JUMPDEST PUSH1 0x1 DUP3 ADD SWAP1 POP SWAP2 SWAP1 POP JUMP JUMPDEST PUSH1 0x0 PUSH2 0x56B DUP3 PUSH2 0x363 JUMP JUMPDEST SWAP2 POP PUSH2 0x576 DUP4 PUSH2 0x363 JUMP JUMPDEST SWAP3 POP DUP3 DUP3 MUL PUSH2 0x584 DUP2 PUSH2 0x363 JUMP JUMPDEST SWAP2 POP DUP3 DUP3 DIV DUP5 EQ DUP4 ISZERO OR PUSH2 0x59B JUMPI PUSH2 0x59A PUSH2 0x41F JUMP JUMPDEST JUMPDEST POP SWAP3 SWAP2 POP POP JUMP INVALID LOG2 PUSH5 0x6970667358 0x22 SLT KECCAK256 STOP CREATE2 DUP2 0xDB 0xB9 0x21 SWAP6 0x2E MULMOD CODECOPY PUSH16 0x2085C6F990C62F1461B874D0C9E33AD5 0xE6 0xB0 0xC3 PUSH4 0xCB64736F PUSH13 0x63430008120033000000000000 "
		},
		"gasEstimates": {
			"creation": {
				"codeDepositCost": "299200",
				"executionCost": "337",
				"totalCost": "299537"
			},
			"external": {
				"addOneMonth(uint256)": "infinite"
			},
			"internal": {
				"daysInMonth(uint256,uint256)": "infinite",
				"isLeapYear(uint256)": "infinite",
				"toTimestamp(uint256,uint256,uint256)": "infinite"
			}
		},
		"methodIdentifiers": {
			"addOneMonth(uint256)": "d9d7acc7"
		}
	},
	"abi": [
		{
			"inputs": [
				{
					"internalType": "uint256",
					"name": "_timestamp",
					"type": "uint256"
				}
			],
			"name": "addOneMonth",
			"outputs": [
				{
					"internalType": "uint256",
					"name": "",
					"type": "uint256"
				}
			],
			"stateMutability": "pure",
			"type": "function"
		}
	]
}