{
	"data": {
		"bytecode": {
			"linkReferences": {},
			"object": "6080604052604051806101800160405280601f60ff168152602001601c60ff168152602001601f60ff168152602001601e60ff168152602001601f60ff168152602001601e60ff168152602001601f60ff168152602001601f60ff168152602001601e60ff168152602001601f60ff168152602001601e60ff168152602001601f60ff16815250600090600c6100969291906100a9565b503480156100a357600080fd5b5061010b565b82600c81019282156100dd579160200282015b828111156100dc578251829060ff169055916020019190600101906100bc565b5b5090506100ea91906100ee565b5090565b5b808211156101075760008160009055506001016100ef565b5090565b6105388061011a6000396000f3fe608060405234801561001057600080fd5b506004361061002b5760003560e01c8063566f496e14610030575b600080fd5b61004a600480360381019061004591906102ca565b610060565b6040516100579190610306565b60405180910390f35b60008082905060006201518090506000818361007c919061037f565b905060006107b29050600061016d8361009591906103b0565b90505b61016d8110610109576100aa8261022c565b156100e55761016e81106100db5761016e816100c691906103e1565b905081806100d390610415565b9250506100e0565b610109565b610104565b61016d816100f391906103e1565b9050818061010090610415565b9250505b610098565b60008060005b600c81101561019957600081600c811061012c5761012b61045d565b5b015491506101398561022c565b80156101455750600181145b1561015957818061015590610415565b9250505b81841061018157818461016c91906103e1565b9350828061017990610415565b935050610186565b610199565b808061019190610415565b91505061010f565b506000600c6001846101ab919061048c565b6101b591906103b0565b905060008082600c81106101cc576101cb61045d565b5b015490506101d98661022c565b80156101e55750600182145b156101f95780806101f590610415565b9150505b6000888261020791906104c0565b90506000818d610217919061048c565b9050809b505050505050505050505050919050565b6000806101908361023d91906103b0565b0361024b576001905061028a565b600060648361025a91906103b0565b03610268576000905061028a565b600060048361027791906103b0565b03610285576001905061028a565b600090505b919050565b600080fd5b6000819050919050565b6102a781610294565b81146102b257600080fd5b50565b6000813590506102c48161029e565b92915050565b6000602082840312156102e0576102df61028f565b5b60006102ee848285016102b5565b91505092915050565b61030081610294565b82525050565b600060208201905061031b60008301846102f7565b92915050565b7f4e487b7100000000000000000000000000000000000000000000000000000000600052601260045260246000fd5b7f4e487b7100000000000000000000000000000000000000000000000000000000600052601160045260246000fd5b600061038a82610294565b915061039583610294565b9250826103a5576103a4610321565b5b828204905092915050565b60006103bb82610294565b91506103c683610294565b9250826103d6576103d5610321565b5b828206905092915050565b60006103ec82610294565b91506103f783610294565b925082820390508181111561040f5761040e610350565b5b92915050565b600061042082610294565b91507fffffffffffffffffffffffffffffffffffffffffffffffffffffffffffffffff820361045257610451610350565b5b600182019050919050565b7f4e487b7100000000000000000000000000000000000000000000000000000000600052603260045260246000fd5b600061049782610294565b91506104a283610294565b92508282019050808211156104ba576104b9610350565b5b92915050565b60006104cb82610294565b91506104d683610294565b92508282026104e481610294565b915082820484148315176104fb576104fa610350565b5b509291505056fea26469706673582212204cb1b1269db84baddec8a7b2ff5d6b703a09ba689df71f9ac818cab1b1004a8064736f6c63430008120033",
			"opcodes": "PUSH1 0x80 PUSH1 0x40 MSTORE PUSH1 0x40 MLOAD DUP1 PUSH2 0x180 ADD PUSH1 0x40 MSTORE DUP1 PUSH1 0x1F PUSH1 0xFF AND DUP2 MSTORE PUSH1 0x20 ADD PUSH1 0x1C PUSH1 0xFF AND DUP2 MSTORE PUSH1 0x20 ADD PUSH1 0x1F PUSH1 0xFF AND DUP2 MSTORE PUSH1 0x20 ADD PUSH1 0x1E PUSH1 0xFF AND DUP2 MSTORE PUSH1 0x20 ADD PUSH1 0x1F PUSH1 0xFF AND DUP2 MSTORE PUSH1 0x20 ADD PUSH1 0x1E PUSH1 0xFF AND DUP2 MSTORE PUSH1 0x20 ADD PUSH1 0x1F PUSH1 0xFF AND DUP2 MSTORE PUSH1 0x20 ADD PUSH1 0x1F PUSH1 0xFF AND DUP2 MSTORE PUSH1 0x20 ADD PUSH1 0x1E PUSH1 0xFF AND DUP2 MSTORE PUSH1 0x20 ADD PUSH1 0x1F PUSH1 0xFF AND DUP2 MSTORE PUSH1 0x20 ADD PUSH1 0x1E PUSH1 0xFF AND DUP2 MSTORE PUSH1 0x20 ADD PUSH1 0x1F PUSH1 0xFF AND DUP2 MSTORE POP PUSH1 0x0 SWAP1 PUSH1 0xC PUSH2 0x96 SWAP3 SWAP2 SWAP1 PUSH2 0xA9 JUMP JUMPDEST POP CALLVALUE DUP1 ISZERO PUSH2 0xA3 JUMPI PUSH1 0x0 DUP1 REVERT JUMPDEST POP PUSH2 0x10B JUMP JUMPDEST DUP3 PUSH1 0xC DUP2 ADD SWAP3 DUP3 ISZERO PUSH2 0xDD JUMPI SWAP2 PUSH1 0x20 MUL DUP3 ADD JUMPDEST DUP3 DUP2 GT ISZERO PUSH2 0xDC JUMPI DUP3 MLOAD DUP3 SWAP1 PUSH1 0xFF AND SWAP1 SSTORE SWAP2 PUSH1 0x20 ADD SWAP2 SWAP1 PUSH1 0x1 ADD SWAP1 PUSH2 0xBC JUMP JUMPDEST JUMPDEST POP SWAP1 POP PUSH2 0xEA SWAP2 SWAP1 PUSH2 0xEE JUMP JUMPDEST POP SWAP1 JUMP JUMPDEST JUMPDEST DUP1 DUP3 GT ISZERO PUSH2 0x107 JUMPI PUSH1 0x0 DUP2 PUSH1 0x0 SWAP1 SSTORE POP PUSH1 0x1 ADD PUSH2 0xEF JUMP JUMPDEST POP SWAP1 JUMP JUMPDEST PUSH2 0x538 DUP1 PUSH2 0x11A PUSH1 0x0 CODECOPY PUSH1 0x0 RETURN INVALID PUSH1 0x80 PUSH1 0x40 MSTORE CALLVALUE DUP1 ISZERO PUSH2 0x10 JUMPI PUSH1 0x0 DUP1 REVERT JUMPDEST POP PUSH1 0x4 CALLDATASIZE LT PUSH2 0x2B JUMPI PUSH1 0x0 CALLDATALOAD PUSH1 0xE0 SHR DUP1 PUSH4 0x566F496E EQ PUSH2 0x30 JUMPI JUMPDEST PUSH1 0x0 DUP1 REVERT JUMPDEST PUSH2 0x4A PUSH1 0x4 DUP1 CALLDATASIZE SUB DUP2 ADD SWAP1 PUSH2 0x45 SWAP2 SWAP1 PUSH2 0x2CA JUMP JUMPDEST PUSH2 0x60 JUMP JUMPDEST PUSH1 0x40 MLOAD PUSH2 0x57 SWAP2 SWAP1 PUSH2 0x306 JUMP JUMPDEST PUSH1 0x40 MLOAD DUP1 SWAP2 SUB SWAP1 RETURN JUMPDEST PUSH1 0x0 DUP1 DUP3 SWAP1 POP PUSH1 0x0 PUSH3 0x15180 SWAP1 POP PUSH1 0x0 DUP2 DUP4 PUSH2 0x7C SWAP2 SWAP1 PUSH2 0x37F JUMP JUMPDEST SWAP1 POP PUSH1 0x0 PUSH2 0x7B2 SWAP1 POP PUSH1 0x0 PUSH2 0x16D DUP4 PUSH2 0x95 SWAP2 SWAP1 PUSH2 0x3B0 JUMP JUMPDEST SWAP1 POP JUMPDEST PUSH2 0x16D DUP2 LT PUSH2 0x109 JUMPI PUSH2 0xAA DUP3 PUSH2 0x22C JUMP JUMPDEST ISZERO PUSH2 0xE5 JUMPI PUSH2 0x16E DUP2 LT PUSH2 0xDB JUMPI PUSH2 0x16E DUP2 PUSH2 0xC6 SWAP2 SWAP1 PUSH2 0x3E1 JUMP JUMPDEST SWAP1 POP DUP2 DUP1 PUSH2 0xD3 SWAP1 PUSH2 0x415 JUMP JUMPDEST SWAP3 POP POP PUSH2 0xE0 JUMP JUMPDEST PUSH2 0x109 JUMP JUMPDEST PUSH2 0x104 JUMP JUMPDEST PUSH2 0x16D DUP2 PUSH2 0xF3 SWAP2 SWAP1 PUSH2 0x3E1 JUMP JUMPDEST SWAP1 POP DUP2 DUP1 PUSH2 0x100 SWAP1 PUSH2 0x415 JUMP JUMPDEST SWAP3 POP POP JUMPDEST PUSH2 0x98 JUMP JUMPDEST PUSH1 0x0 DUP1 PUSH1 0x0 JUMPDEST PUSH1 0xC DUP2 LT ISZERO PUSH2 0x199 JUMPI PUSH1 0x0 DUP2 PUSH1 0xC DUP2 LT PUSH2 0x12C JUMPI PUSH2 0x12B PUSH2 0x45D JUMP JUMPDEST JUMPDEST ADD SLOAD SWAP2 POP PUSH2 0x139 DUP6 PUSH2 0x22C JUMP JUMPDEST DUP1 ISZERO PUSH2 0x145 JUMPI POP PUSH1 0x1 DUP2 EQ JUMPDEST ISZERO PUSH2 0x159 JUMPI DUP2 DUP1 PUSH2 0x155 SWAP1 PUSH2 0x415 JUMP JUMPDEST SWAP3 POP POP JUMPDEST DUP2 DUP5 LT PUSH2 0x181 JUMPI DUP2 DUP5 PUSH2 0x16C SWAP2 SWAP1 PUSH2 0x3E1 JUMP JUMPDEST SWAP4 POP DUP3 DUP1 PUSH2 0x179 SWAP1 PUSH2 0x415 JUMP JUMPDEST SWAP4 POP POP PUSH2 0x186 JUMP JUMPDEST PUSH2 0x199 JUMP JUMPDEST DUP1 DUP1 PUSH2 0x191 SWAP1 PUSH2 0x415 JUMP JUMPDEST SWAP2 POP POP PUSH2 0x10F JUMP JUMPDEST POP PUSH1 0x0 PUSH1 0xC PUSH1 0x1 DUP5 PUSH2 0x1AB SWAP2 SWAP1 PUSH2 0x48C JUMP JUMPDEST PUSH2 0x1B5 SWAP2 SWAP1 PUSH2 0x3B0 JUMP JUMPDEST SWAP1 POP PUSH1 0x0 DUP1 DUP3 PUSH1 0xC DUP2 LT PUSH2 0x1CC JUMPI PUSH2 0x1CB PUSH2 0x45D JUMP JUMPDEST JUMPDEST ADD SLOAD SWAP1 POP PUSH2 0x1D9 DUP7 PUSH2 0x22C JUMP JUMPDEST DUP1 ISZERO PUSH2 0x1E5 JUMPI POP PUSH1 0x1 DUP3 EQ JUMPDEST ISZERO PUSH2 0x1F9 JUMPI DUP1 DUP1 PUSH2 0x1F5 SWAP1 PUSH2 0x415 JUMP JUMPDEST SWAP2 POP POP JUMPDEST PUSH1 0x0 DUP9 DUP3 PUSH2 0x207 SWAP2 SWAP1 PUSH2 0x4C0 JUMP JUMPDEST SWAP1 POP PUSH1 0x0 DUP2 DUP14 PUSH2 0x217 SWAP2 SWAP1 PUSH2 0x48C JUMP JUMPDEST SWAP1 POP DUP1 SWAP12 POP POP POP POP POP POP POP POP POP POP POP POP SWAP2 SWAP1 POP JUMP JUMPDEST PUSH1 0x0 DUP1 PUSH2 0x190 DUP4 PUSH2 0x23D SWAP2 SWAP1 PUSH2 0x3B0 JUMP JUMPDEST SUB PUSH2 0x24B JUMPI PUSH1 0x1 SWAP1 POP PUSH2 0x28A JUMP JUMPDEST PUSH1 0x0 PUSH1 0x64 DUP4 PUSH2 0x25A SWAP2 SWAP1 PUSH2 0x3B0 JUMP JUMPDEST SUB PUSH2 0x268 JUMPI PUSH1 0x0 SWAP1 POP PUSH2 0x28A JUMP JUMPDEST PUSH1 0x0 PUSH1 0x4 DUP4 PUSH2 0x277 SWAP2 SWAP1 PUSH2 0x3B0 JUMP JUMPDEST SUB PUSH2 0x285 JUMPI PUSH1 0x1 SWAP1 POP PUSH2 0x28A JUMP JUMPDEST PUSH1 0x0 SWAP1 POP JUMPDEST SWAP2 SWAP1 POP JUMP JUMPDEST PUSH1 0x0 DUP1 REVERT JUMPDEST PUSH1 0x0 DUP2 SWAP1 POP SWAP2 SWAP1 POP JUMP JUMPDEST PUSH2 0x2A7 DUP2 PUSH2 0x294 JUMP JUMPDEST DUP2 EQ PUSH2 0x2B2 JUMPI PUSH1 0x0 DUP1 REVERT JUMPDEST POP JUMP JUMPDEST PUSH1 0x0 DUP2 CALLDATALOAD SWAP1 POP PUSH2 0x2C4 DUP2 PUSH2 0x29E JUMP JUMPDEST SWAP3 SWAP2 POP POP JUMP JUMPDEST PUSH1 0x0 PUSH1 0x20 DUP3 DUP5 SUB SLT ISZERO PUSH2 0x2E0 JUMPI PUSH2 0x2DF PUSH2 0x28F JUMP JUMPDEST JUMPDEST PUSH1 0x0 PUSH2 0x2EE DUP5 DUP3 DUP6 ADD PUSH2 0x2B5 JUMP JUMPDEST SWAP2 POP POP SWAP3 SWAP2 POP POP JUMP JUMPDEST PUSH2 0x300 DUP2 PUSH2 0x294 JUMP JUMPDEST DUP3 MSTORE POP POP JUMP JUMPDEST PUSH1 0x0 PUSH1 0x20 DUP3 ADD SWAP1 POP PUSH2 0x31B PUSH1 0x0 DUP4 ADD DUP5 PUSH2 0x2F7 JUMP JUMPDEST SWAP3 SWAP2 POP POP JUMP JUMPDEST PUSH32 0x4E487B7100000000000000000000000000000000000000000000000000000000 PUSH1 0x0 MSTORE PUSH1 0x12 PUSH1 0x4 MSTORE PUSH1 0x24 PUSH1 0x0 REVERT JUMPDEST PUSH32 0x4E487B7100000000000000000000000000000000000000000000000000000000 PUSH1 0x0 MSTORE PUSH1 0x11 PUSH1 0x4 MSTORE PUSH1 0x24 PUSH1 0x0 REVERT JUMPDEST PUSH1 0x0 PUSH2 0x38A DUP3 PUSH2 0x294 JUMP JUMPDEST SWAP2 POP PUSH2 0x395 DUP4 PUSH2 0x294 JUMP JUMPDEST SWAP3 POP DUP3 PUSH2 0x3A5 JUMPI PUSH2 0x3A4 PUSH2 0x321 JUMP JUMPDEST JUMPDEST DUP3 DUP3 DIV SWAP1 POP SWAP3 SWAP2 POP POP JUMP JUMPDEST PUSH1 0x0 PUSH2 0x3BB DUP3 PUSH2 0x294 JUMP JUMPDEST SWAP2 POP PUSH2 0x3C6 DUP4 PUSH2 0x294 JUMP JUMPDEST SWAP3 POP DUP3 PUSH2 0x3D6 JUMPI PUSH2 0x3D5 PUSH2 0x321 JUMP JUMPDEST JUMPDEST DUP3 DUP3 MOD SWAP1 POP SWAP3 SWAP2 POP POP JUMP JUMPDEST PUSH1 0x0 PUSH2 0x3EC DUP3 PUSH2 0x294 JUMP JUMPDEST SWAP2 POP PUSH2 0x3F7 DUP4 PUSH2 0x294 JUMP JUMPDEST SWAP3 POP DUP3 DUP3 SUB SWAP1 POP DUP2 DUP2 GT ISZERO PUSH2 0x40F JUMPI PUSH2 0x40E PUSH2 0x350 JUMP JUMPDEST JUMPDEST SWAP3 SWAP2 POP POP JUMP JUMPDEST PUSH1 0x0 PUSH2 0x420 DUP3 PUSH2 0x294 JUMP JUMPDEST SWAP2 POP PUSH32 0xFFFFFFFFFFFFFFFFFFFFFFFFFFFFFFFFFFFFFFFFFFFFFFFFFFFFFFFFFFFFFFFF DUP3 SUB PUSH2 0x452 JUMPI PUSH2 0x451 PUSH2 0x350 JUMP JUMPDEST JUMPDEST PUSH1 0x1 DUP3 ADD SWAP1 POP SWAP2 SWAP1 POP JUMP JUMPDEST PUSH32 0x4E487B7100000000000000000000000000000000000000000000000000000000 PUSH1 0x0 MSTORE PUSH1 0x32 PUSH1 0x4 MSTORE PUSH1 0x24 PUSH1 0x0 REVERT JUMPDEST PUSH1 0x0 PUSH2 0x497 DUP3 PUSH2 0x294 JUMP JUMPDEST SWAP2 POP PUSH2 0x4A2 DUP4 PUSH2 0x294 JUMP JUMPDEST SWAP3 POP DUP3 DUP3 ADD SWAP1 POP DUP1 DUP3 GT ISZERO PUSH2 0x4BA JUMPI PUSH2 0x4B9 PUSH2 0x350 JUMP JUMPDEST JUMPDEST SWAP3 SWAP2 POP POP JUMP JUMPDEST PUSH1 0x0 PUSH2 0x4CB DUP3 PUSH2 0x294 JUMP JUMPDEST SWAP2 POP PUSH2 0x4D6 DUP4 PUSH2 0x294 JUMP JUMPDEST SWAP3 POP DUP3 DUP3 MUL PUSH2 0x4E4 DUP2 PUSH2 0x294 JUMP JUMPDEST SWAP2 POP DUP3 DUP3 DIV DUP5 EQ DUP4 ISZERO OR PUSH2 0x4FB JUMPI PUSH2 0x4FA PUSH2 0x350 JUMP JUMPDEST JUMPDEST POP SWAP3 SWAP2 POP POP JUMP INVALID LOG2 PUSH5 0x6970667358 0x22 SLT KECCAK256 0x4C 0xB1 0xB1 0x26 SWAP14 0xB8 0x4B 0xAD 0xDE 0xC8 0xA7 0xB2 SELFDESTRUCT 0x5D PUSH12 0x703A09BA689DF71F9AC818CA 0xB1 0xB1 STOP 0x4A DUP1 PUSH5 0x736F6C6343 STOP ADDMOD SLT STOP CALLER "
		},
		"gasEstimates": {
			"creation": {
				"codeDepositCost": "267200",
				"executionCost": "infinite",
				"totalCost": "infinite"
			},
			"external": {
				"getNextMonth(uint256)": "infinite"
			},
			"internal": {
				"isLeapYear(uint256)": "infinite"
			}
		},
		"methodIdentifiers": {
			"getNextMonth(uint256)": "566f496e"
		}
	},
	"abi": [
		{
			"inputs": [
				{
					"internalType": "uint256",
					"name": "timestamp",
					"type": "uint256"
				}
			],
			"name": "getNextMonth",
			"outputs": [
				{
					"internalType": "uint256",
					"name": "",
					"type": "uint256"
				}
			],
			"stateMutability": "view",
			"type": "function"
		}
	]
}