{
	"data": {
		"bytecode": {
			"linkReferences": {},
			"object": "608060405234801561001057600080fd5b5061223e806100206000396000f3fe608060405234801561001057600080fd5b506004361061030b5760003560e01c80638aa001fc1161019d578063c7b6fd6a116100e9578063de5101af116100a2578063f615ed541161007c578063f615ed5414610b46578063f9fd525014610b76578063fa93f88314610b94578063ff2258cb14610bc45761030b565b8063de5101af14610ac1578063e955643014610af3578063ea1c169014610b115761030b565b8063c7b6fd6a146109d7578063c7edf88c14610a07578063c9d3462214610a25578063cfbb9f3714610a55578063d2b5074314610a73578063d6582d0d14610a915761030b565b80639e524caa11610156578063ad203bd411610130578063ad203bd414610929578063b05eb08d14610959578063b3bb8cd414610989578063b8d16dbc146109a75761030b565b80639e524caa146108ab578063a324ad24146108db578063a3f144ae1461090b5761030b565b80638aa001fc146107a85780638bbf51b7146107d85780638d4a2d39146107f657806390059aed146108265780639220d4261461085857806392d663131461087b5761030b565b80634355644d1161025c5780635e05bd6d116102155780637217523c116101ef5780637217523c146106fa57806374f0314f1461072a5780637be341091461074857806389a3a00d146107785761030b565b80635e05bd6d1461066a57806362fb96971461069a57806365c72840146106ca5761030b565b80634355644d1461055c5780634371c4651461058c578063442b8c79146105bc578063444fda82146105ec5780634b3215021461061c5780634df861261461064c5761030b565b80631f4f77b2116102c95780632af123b8116102a35780632af123b81461049c5780633293d007146104cc5780633e239e1a146104fc5780633f9e0eb71461052c5761030b565b80631f4f77b21461041e57806322f8a2b81461044e578063294416741461047e5761030b565b80625015531461031057806302e98e0d1461034057806310848ddf14610370578063126702a0146103a057806314b2d6dc146103be5780631e0582e9146103ee575b600080fd5b61032a60048036038101906103259190611cbc565b610bf4565b6040516103379190611d0b565b60405180910390f35b61035a60048036038101906103559190611cbc565b610c08565b6040516103679190611d0b565b60405180910390f35b61038a60048036038101906103859190611d26565b610c1c565b6040516103979190611d0b565b60405180910390f35b6103a8610c2e565b6040516103b59190611d0b565b60405180910390f35b6103d860048036038101906103d39190611d53565b610c33565b6040516103e59190611dc1565b60405180910390f35b61040860048036038101906104039190611d53565b610c49565b6040516104159190611d0b565b60405180910390f35b61043860048036038101906104339190611d53565b610c5f565b6040516104459190611d0b565b60405180910390f35b61046860048036038101906104639190611d26565b610c75565b6040516104759190611d0b565b60405180910390f35b610486610c87565b6040516104939190611d0b565b60405180910390f35b6104b660048036038101906104b19190611cbc565b610c8c565b6040516104c39190611d0b565b60405180910390f35b6104e660048036038101906104e19190611ddc565b610ca0565b6040516104f39190611dc1565b60405180910390f35b61051660048036038101906105119190611d26565b610cbc565b6040516105239190611d0b565b60405180910390f35b61054660048036038101906105419190611cbc565b610cce565b6040516105539190611d0b565b60405180910390f35b61057660048036038101906105719190611cbc565b610ce2565b6040516105839190611d0b565b60405180910390f35b6105a660048036038101906105a19190611d26565b610cf6565b6040516105b39190611dc1565b60405180910390f35b6105d660048036038101906105d19190611cbc565b610d08565b6040516105e39190611d0b565b60405180910390f35b61060660048036038101906106019190611cbc565b610d1c565b6040516106139190611d0b565b60405180910390f35b61063660048036038101906106319190611cbc565b610d30565b6040516106439190611d0b565b60405180910390f35b610654610d44565b6040516106619190611d0b565b60405180910390f35b610684600480360381019061067f9190611ddc565b610d4a565b6040516106919190611d0b565b60405180910390f35b6106b460048036038101906106af9190611cbc565b610d66565b6040516106c19190611d0b565b60405180910390f35b6106e460048036038101906106df9190611d26565b610d7a565b6040516106f19190611d0b565b60405180910390f35b610714600480360381019061070f9190611cbc565b610d8c565b6040516107219190611d0b565b60405180910390f35b610732610da0565b60405161073f9190611d0b565b60405180910390f35b610762600480360381019061075d9190611cbc565b610da7565b60405161076f9190611d0b565b60405180910390f35b610792600480360381019061078d9190611cbc565b610dbb565b60405161079f9190611d0b565b60405180910390f35b6107c260048036038101906107bd9190611d26565b610dcf565b6040516107cf9190611d0b565b60405180910390f35b6107e0610de1565b6040516107ed9190611d0b565b60405180910390f35b610810600480360381019061080b9190611cbc565b610de6565b60405161081d9190611d0b565b60405180910390f35b610840600480360381019061083b9190611d26565b610dfa565b60405161084f93929190611e69565b60405180910390f35b610860610e15565b60405161087296959493929190611ea0565b60405180910390f35b61089560048036038101906108909190611d26565b610e47565b6040516108a29190611d0b565b60405180910390f35b6108c560048036038101906108c09190611cbc565b610e59565b6040516108d29190611d0b565b60405180910390f35b6108f560048036038101906108f09190611d26565b610e6d565b6040516109029190611d0b565b60405180910390f35b610913610e7f565b6040516109209190611f1a565b60405180910390f35b610943600480360381019061093e9190611cbc565b610e86565b6040516109509190611d0b565b60405180910390f35b610973600480360381019061096e9190611d26565b610e9a565b6040516109809190611dc1565b60405180910390f35b610991610eac565b60405161099e9190611d0b565b60405180910390f35b6109c160048036038101906109bc9190611d26565b610eb4565b6040516109ce9190611dc1565b60405180910390f35b6109f160048036038101906109ec9190611cbc565b610ec6565b6040516109fe9190611d0b565b60405180910390f35b610a0f610eda565b604051610a1c9190611d0b565b60405180910390f35b610a3f6004803603810190610a3a9190611cbc565b610edf565b604051610a4c9190611d0b565b60405180910390f35b610a5d610ef3565b604051610a6a9190611d0b565b60405180910390f35b610a7b610ef8565b604051610a889190611d0b565b60405180910390f35b610aab6004803603810190610aa69190611d26565b610efd565b604051610ab89190611dc1565b60405180910390f35b610adb6004803603810190610ad69190611d26565b610f0f565b604051610aea93929190611e69565b60405180910390f35b610afb610f30565b604051610b089190611d0b565b60405180910390f35b610b2b6004803603810190610b269190611d26565b610f35565b604051610b3d96959493929190611ea0565b60405180910390f35b610b606004803603810190610b5b9190611cbc565b610f68565b604051610b6d9190611d0b565b60405180910390f35b610b7e610f7c565b604051610b8b9190611d0b565b60405180910390f35b610bae6004803603810190610ba99190611d26565b610f81565b604051610bbb9190611d0b565b60405180910390f35b610bde6004803603810190610bd99190611cbc565b610f93565b604051610beb9190611d0b565b60405180910390f35b6000610c008383610fa7565b905092915050565b6000610c148383610fd7565b905092915050565b6000610c2782611006565b9050919050565b600281565b6000610c4084848461103a565b90509392505050565b6000610c56848484611091565b90509392505050565b6000610c6c8484846111f0565b90509392505050565b6000610c8082611214565b9050919050565b600781565b6000610c988383611255565b905092915050565b6000610cb0878787878787611285565b90509695505050505050565b6000610cc7826112c8565b9050919050565b6000610cda83836112f2565b905092915050565b6000610cee838361137d565b905092915050565b6000610d0182611460565b9050919050565b6000610d148383611476565b905092915050565b6000610d28838361150c565b905092915050565b6000610d3c83836115a2565b905092915050565b610e1081565b6000610d5a8787878787876115d2565b90509695505050505050565b6000610d728383611633565b905092915050565b6000610d8582611656565b9050919050565b6000610d98838361167d565b905092915050565b6201518081565b6000610db383836116ae565b905092915050565b6000610dc78383611741565b905092915050565b6000610dda82611770565b9050919050565b600381565b6000610df28383611786565b905092915050565b6000806000610e08846117a9565b9250925092509193909250565b600080600080600080610e27426118ae565b809650819750829850839950849a50859b50505050505050909192939495565b6000610e5282611953565b9050919050565b6000610e658383611978565b905092915050565b6000610e78826119a7565b9050919050565b62253d8c81565b6000610e9283836119cd565b905092915050565b6000610ea582611ab3565b9050919050565b600042905090565b6000610ebf82611afc565b9050919050565b6000610ed28383611b2b565b905092915050565b600681565b6000610eeb8383611b5c565b905092915050565b600481565b600581565b6000610f0882611b8d565b9050919050565b6000806000610f1d84611ba3565b8093508194508295505050509193909250565b603c81565b600080600080600080610f47876118ae565b809650819750829850839950849a50859b5050505050505091939550919395565b6000610f748383611bd7565b905092915050565b600181565b6000610f8c82611bfa565b9050919050565b6000610f9f8383611c22565b905092915050565b6000610e1082610fb79190611f64565b83610fc29190611fa6565b905082811115610fd157600080fd5b92915050565b600081831115610fe657600080fd5b603c8383610ff49190611fa6565b610ffe9190612009565b905092915050565b6000806000611022620151808561101d9190612009565b6117a9565b509150915061103182826112f2565b92505050919050565b60006107b2841015801561104e5750600083115b801561105b5750600c8311155b1561108a57600061106c85856112f2565b905060008311801561107e5750808311155b1561108857600191505b505b9392505050565b60006107b28410156110a257600080fd5b600084905060008490506000849050600062253d8c60046064600c600e876110ca919061203a565b6110d4919061207d565b611324886110e291906120e7565b6110ec91906120e7565b6110f6919061207d565b6003611102919061212b565b61110c919061207d565b600c80600c600e8861111e919061203a565b611128919061207d565b611132919061212b565b60028761113f919061203a565b611149919061203a565b61016f611156919061212b565b611160919061207d565b6004600c600e88611171919061203a565b61117b919061207d565b6112c08961118991906120e7565b61119391906120e7565b6105b56111a0919061212b565b6111aa919061207d565b617d4b866111b8919061203a565b6111c291906120e7565b6111cc91906120e7565b6111d6919061203a565b6111e0919061203a565b9050809450505050509392505050565b600062015180611201858585611091565b61120b9190611f64565b90509392505050565b60008062015180836112269190612009565b90506001600760038361123991906121a3565b61124391906121d7565b61124d91906121a3565b915050919050565b60008183111561126457600080fd5b610e1083836112739190611fa6565b61127d9190612009565b905092915050565b600061129287878761103a565b156112be576018841080156112a75750603c83105b80156112b35750603c82105b156112bd57600190505b5b9695505050505050565b60008062015180836112da91906121d7565b9050610e10816112ea9190612009565b915050919050565b600060018214806113035750600382145b8061130e5750600582145b806113195750600782145b806113245750600882145b8061132f5750600a82145b8061133a5750600c82145b1561134857601f9050611377565b6002821461135957601e9050611376565b61136283611ab3565b61136d57601c611370565b601d5b60ff1690505b5b92915050565b60008060008061139a62015180876113959190612009565b6117a9565b92509250925084826113ac91906121a3565b9150600c6001836113bd9190611fa6565b6113c79190612009565b836113d291906121a3565b92506001600c6001846113e59190611fa6565b6113ef91906121d7565b6113f991906121a3565b9150600061140784846112f2565b905080821115611415578091505b620151808761142491906121d7565b62015180611433868686611091565b61143d9190611f64565b61144791906121a3565b94508685101561145657600080fd5b5050505092915050565b6000600661146d83611214565b10159050919050565b600080600080611493620151808761148e9190612009565b6117a9565b92509250925084836114a591906121a3565b925060006114b384846112f2565b9050808211156114c1578091505b62015180876114d091906121d7565b620151806114df868686611091565b6114e99190611f64565b6114f391906121a3565b94508685101561150257600080fd5b5050505092915050565b60008060008061152962015180876115249190612009565b6117a9565b925092509250848361153b9190611fa6565b9250600061154984846112f2565b905080821115611557578091505b620151808761156691906121d7565b62015180611575868686611091565b61157f9190611f64565b61158991906121a3565b94508685111561159857600080fd5b5050505092915050565b6000610e10826115b29190611f64565b836115bd91906121a3565b9050828110156115cc57600080fd5b92915050565b600081603c846115e29190611f64565b610e10866115f09190611f64565b620151806115ff8b8b8b611091565b6116099190611f64565b61161391906121a3565b61161d91906121a3565b61162791906121a3565b90509695505050505050565b60008183111561164257600080fd5b828261164e9190611fa6565b905092915050565b600061166f620151808361166a9190612009565b6117a9565b909150905080915050919050565b6000620151808261168e9190611f64565b8361169991906121a3565b9050828110156116a857600080fd5b92915050565b6000818311156116bd57600080fd5b6000806116d762015180866116d29190612009565b6117a9565b50915091506000806116f662015180876116f19190612009565b6117a9565b509150915082600c856117099190611f64565b82600c856117179190611f64565b61172191906121a3565b61172b9190611fa6565b6117359190611fa6565b94505050505092915050565b6000603c826117509190611f64565b8361175b91906121a3565b90508281101561176a57600080fd5b92915050565b6000603c8261177f91906121d7565b9050919050565b6000818361179491906121a3565b9050828110156117a357600080fd5b92915050565b600080600080849050600062253d8c62010bd98301019050600062023ab182600402816117d9576117d8611fda565b5b059050600460038262023ab10201816117f5576117f4611fda565b5b0582039150600062164b0960018401610fa0028161181657611815611fda565b5b059050601f6004826105b502816118305761182f611fda565b5b058403019250600061098f846050028161184d5761184c611fda565b5b059050600060508261098f028161186757611866611fda565b5b0585039050600b828161187d5761187c611fda565b5b05945084600c0260028301039150848360318603606402010192508298508197508096505050505050509193909250565b6000806000806000806118d36201518088816118cd576118cc611fda565b5b046117a9565b80965081975082985050505060006201518088816118f4576118f3611fda565b5b069050610e10818161190957611908611fda565b5b049350610e10818161191e5761191d611fda565b5b069050603c818161193257611931611fda565b5b049250603c818161194657611945611fda565b5b0691505091939550919395565b600061196c62015180836119679190612009565b6117a9565b90505080915050919050565b6000603c826119879190611f64565b836119929190611fa6565b9050828111156119a157600080fd5b92915050565b60006119c062015180836119bb9190612009565b6117a9565b9091505080915050919050565b6000806000806119ea62015180876119e59190612009565b6117a9565b925092509250600085600184611a009190611fa6565b600c86611a0d9190611f64565b611a1791906121a3565b611a219190611fa6565b9050600c81611a309190612009565b93506001600c82611a4191906121d7565b611a4b91906121a3565b92506000611a5985856112f2565b905080831115611a67578092505b6201518088611a7691906121d7565b62015180611a85878787611091565b611a8f9190611f64565b611a9991906121a3565b955087861115611aa857600080fd5b505050505092915050565b600080600483611ac391906121d7565b148015611add57506000606483611ada91906121d7565b14155b80611af55750600061019083611af391906121d7565b145b9050919050565b600080611b166201518084611b119190612009565b6117a9565b50509050611b2381611ab3565b915050919050565b60006201518082611b3c9190611f64565b83611b479190611fa6565b905082811115611b5657600080fd5b92915050565b600081831115611b6b57600080fd5b620151808383611b7b9190611fa6565b611b859190612009565b905092915050565b60006005611b9a83611214565b11159050919050565b6000806000611bc4620151808581611bbe57611bbd611fda565b5b046117a9565b8093508194508295505050509193909250565b60008183611be59190611fa6565b905082811115611bf457600080fd5b92915050565b600080610e1083611c0b91906121d7565b9050603c81611c1a9190612009565b915050919050565b600081831115611c3157600080fd5b6000611c4a6201518085611c459190612009565b6117a9565b505090506000611c676201518085611c629190612009565b6117a9565b505090508181611c779190611fa6565b9250505092915050565b600080fd5b6000819050919050565b611c9981611c86565b8114611ca457600080fd5b50565b600081359050611cb681611c90565b92915050565b60008060408385031215611cd357611cd2611c81565b5b6000611ce185828601611ca7565b9250506020611cf285828601611ca7565b9150509250929050565b611d0581611c86565b82525050565b6000602082019050611d206000830184611cfc565b92915050565b600060208284031215611d3c57611d3b611c81565b5b6000611d4a84828501611ca7565b91505092915050565b600080600060608486031215611d6c57611d6b611c81565b5b6000611d7a86828701611ca7565b9350506020611d8b86828701611ca7565b9250506040611d9c86828701611ca7565b9150509250925092565b60008115159050919050565b611dbb81611da6565b82525050565b6000602082019050611dd66000830184611db2565b92915050565b60008060008060008060c08789031215611df957611df8611c81565b5b6000611e0789828a01611ca7565b9650506020611e1889828a01611ca7565b9550506040611e2989828a01611ca7565b9450506060611e3a89828a01611ca7565b9350506080611e4b89828a01611ca7565b92505060a0611e5c89828a01611ca7565b9150509295509295509295565b6000606082019050611e7e6000830186611cfc565b611e8b6020830185611cfc565b611e986040830184611cfc565b949350505050565b600060c082019050611eb56000830189611cfc565b611ec26020830188611cfc565b611ecf6040830187611cfc565b611edc6060830186611cfc565b611ee96080830185611cfc565b611ef660a0830184611cfc565b979650505050505050565b6000819050919050565b611f1481611f01565b82525050565b6000602082019050611f2f6000830184611f0b565b92915050565b7f4e487b7100000000000000000000000000000000000000000000000000000000600052601160045260246000fd5b6000611f6f82611c86565b9150611f7a83611c86565b9250828202611f8881611c86565b91508282048414831517611f9f57611f9e611f35565b5b5092915050565b6000611fb182611c86565b9150611fbc83611c86565b9250828203905081811115611fd457611fd3611f35565b5b92915050565b7f4e487b7100000000000000000000000000000000000000000000000000000000600052601260045260246000fd5b600061201482611c86565b915061201f83611c86565b92508261202f5761202e611fda565b5b828204905092915050565b600061204582611f01565b915061205083611f01565b925082820390508181126000841216828213600085121516171561207757612076611f35565b5b92915050565b600061208882611f01565b915061209383611f01565b9250826120a3576120a2611fda565b5b600160000383147f8000000000000000000000000000000000000000000000000000000000000000831416156120dc576120db611f35565b5b828205905092915050565b60006120f282611f01565b91506120fd83611f01565b92508282019050828112156000831216838212600084121516171561212557612124611f35565b5b92915050565b600061213682611f01565b915061214183611f01565b925082820261214f81611f01565b91507f8000000000000000000000000000000000000000000000000000000000000000841460008412161561218757612186611f35565b5b828205841483151761219c5761219b611f35565b5b5092915050565b60006121ae82611c86565b91506121b983611c86565b92508282019050808211156121d1576121d0611f35565b5b92915050565b60006121e282611c86565b91506121ed83611c86565b9250826121fd576121fc611fda565b5b82820690509291505056fea2646970667358221220625c4b4cb2538ce44d11e8b5b61965e35a572017ac704dabd83b3cae91a12eac64736f6c63430008120033",
			"opcodes": "PUSH1 0x80 PUSH1 0x40 MSTORE CALLVALUE DUP1 ISZERO PUSH2 0x10 JUMPI PUSH1 0x0 DUP1 REVERT JUMPDEST POP PUSH2 0x223E DUP1 PUSH2 0x20 PUSH1 0x0 CODECOPY PUSH1 0x0 RETURN INVALID PUSH1 0x80 PUSH1 0x40 MSTORE CALLVALUE DUP1 ISZERO PUSH2 0x10 JUMPI PUSH1 0x0 DUP1 REVERT JUMPDEST POP PUSH1 0x4 CALLDATASIZE LT PUSH2 0x30B JUMPI PUSH1 0x0 CALLDATALOAD PUSH1 0xE0 SHR DUP1 PUSH4 0x8AA001FC GT PUSH2 0x19D JUMPI DUP1 PUSH4 0xC7B6FD6A GT PUSH2 0xE9 JUMPI DUP1 PUSH4 0xDE5101AF GT PUSH2 0xA2 JUMPI DUP1 PUSH4 0xF615ED54 GT PUSH2 0x7C JUMPI DUP1 PUSH4 0xF615ED54 EQ PUSH2 0xB46 JUMPI DUP1 PUSH4 0xF9FD5250 EQ PUSH2 0xB76 JUMPI DUP1 PUSH4 0xFA93F883 EQ PUSH2 0xB94 JUMPI DUP1 PUSH4 0xFF2258CB EQ PUSH2 0xBC4 JUMPI PUSH2 0x30B JUMP JUMPDEST DUP1 PUSH4 0xDE5101AF EQ PUSH2 0xAC1 JUMPI DUP1 PUSH4 0xE9556430 EQ PUSH2 0xAF3 JUMPI DUP1 PUSH4 0xEA1C1690 EQ PUSH2 0xB11 JUMPI PUSH2 0x30B JUMP JUMPDEST DUP1 PUSH4 0xC7B6FD6A EQ PUSH2 0x9D7 JUMPI DUP1 PUSH4 0xC7EDF88C EQ PUSH2 0xA07 JUMPI DUP1 PUSH4 0xC9D34622 EQ PUSH2 0xA25 JUMPI DUP1 PUSH4 0xCFBB9F37 EQ PUSH2 0xA55 JUMPI DUP1 PUSH4 0xD2B50743 EQ PUSH2 0xA73 JUMPI DUP1 PUSH4 0xD6582D0D EQ PUSH2 0xA91 JUMPI PUSH2 0x30B JUMP JUMPDEST DUP1 PUSH4 0x9E524CAA GT PUSH2 0x156 JUMPI DUP1 PUSH4 0xAD203BD4 GT PUSH2 0x130 JUMPI DUP1 PUSH4 0xAD203BD4 EQ PUSH2 0x929 JUMPI DUP1 PUSH4 0xB05EB08D EQ PUSH2 0x959 JUMPI DUP1 PUSH4 0xB3BB8CD4 EQ PUSH2 0x989 JUMPI DUP1 PUSH4 0xB8D16DBC EQ PUSH2 0x9A7 JUMPI PUSH2 0x30B JUMP JUMPDEST DUP1 PUSH4 0x9E524CAA EQ PUSH2 0x8AB JUMPI DUP1 PUSH4 0xA324AD24 EQ PUSH2 0x8DB JUMPI DUP1 PUSH4 0xA3F144AE EQ PUSH2 0x90B JUMPI PUSH2 0x30B JUMP JUMPDEST DUP1 PUSH4 0x8AA001FC EQ PUSH2 0x7A8 JUMPI DUP1 PUSH4 0x8BBF51B7 EQ PUSH2 0x7D8 JUMPI DUP1 PUSH4 0x8D4A2D39 EQ PUSH2 0x7F6 JUMPI DUP1 PUSH4 0x90059AED EQ PUSH2 0x826 JUMPI DUP1 PUSH4 0x9220D426 EQ PUSH2 0x858 JUMPI DUP1 PUSH4 0x92D66313 EQ PUSH2 0x87B JUMPI PUSH2 0x30B JUMP JUMPDEST DUP1 PUSH4 0x4355644D GT PUSH2 0x25C JUMPI DUP1 PUSH4 0x5E05BD6D GT PUSH2 0x215 JUMPI DUP1 PUSH4 0x7217523C GT PUSH2 0x1EF JUMPI DUP1 PUSH4 0x7217523C EQ PUSH2 0x6FA JUMPI DUP1 PUSH4 0x74F0314F EQ PUSH2 0x72A JUMPI DUP1 PUSH4 0x7BE34109 EQ PUSH2 0x748 JUMPI DUP1 PUSH4 0x89A3A00D EQ PUSH2 0x778 JUMPI PUSH2 0x30B JUMP JUMPDEST DUP1 PUSH4 0x5E05BD6D EQ PUSH2 0x66A JUMPI DUP1 PUSH4 0x62FB9697 EQ PUSH2 0x69A JUMPI DUP1 PUSH4 0x65C72840 EQ PUSH2 0x6CA JUMPI PUSH2 0x30B JUMP JUMPDEST DUP1 PUSH4 0x4355644D EQ PUSH2 0x55C JUMPI DUP1 PUSH4 0x4371C465 EQ PUSH2 0x58C JUMPI DUP1 PUSH4 0x442B8C79 EQ PUSH2 0x5BC JUMPI DUP1 PUSH4 0x444FDA82 EQ PUSH2 0x5EC JUMPI DUP1 PUSH4 0x4B321502 EQ PUSH2 0x61C JUMPI DUP1 PUSH4 0x4DF86126 EQ PUSH2 0x64C JUMPI PUSH2 0x30B JUMP JUMPDEST DUP1 PUSH4 0x1F4F77B2 GT PUSH2 0x2C9 JUMPI DUP1 PUSH4 0x2AF123B8 GT PUSH2 0x2A3 JUMPI DUP1 PUSH4 0x2AF123B8 EQ PUSH2 0x49C JUMPI DUP1 PUSH4 0x3293D007 EQ PUSH2 0x4CC JUMPI DUP1 PUSH4 0x3E239E1A EQ PUSH2 0x4FC JUMPI DUP1 PUSH4 0x3F9E0EB7 EQ PUSH2 0x52C JUMPI PUSH2 0x30B JUMP JUMPDEST DUP1 PUSH4 0x1F4F77B2 EQ PUSH2 0x41E JUMPI DUP1 PUSH4 0x22F8A2B8 EQ PUSH2 0x44E JUMPI DUP1 PUSH4 0x29441674 EQ PUSH2 0x47E JUMPI PUSH2 0x30B JUMP JUMPDEST DUP1 PUSH3 0x501553 EQ PUSH2 0x310 JUMPI DUP1 PUSH4 0x2E98E0D EQ PUSH2 0x340 JUMPI DUP1 PUSH4 0x10848DDF EQ PUSH2 0x370 JUMPI DUP1 PUSH4 0x126702A0 EQ PUSH2 0x3A0 JUMPI DUP1 PUSH4 0x14B2D6DC EQ PUSH2 0x3BE JUMPI DUP1 PUSH4 0x1E0582E9 EQ PUSH2 0x3EE JUMPI JUMPDEST PUSH1 0x0 DUP1 REVERT JUMPDEST PUSH2 0x32A PUSH1 0x4 DUP1 CALLDATASIZE SUB DUP2 ADD SWAP1 PUSH2 0x325 SWAP2 SWAP1 PUSH2 0x1CBC JUMP JUMPDEST PUSH2 0xBF4 JUMP JUMPDEST PUSH1 0x40 MLOAD PUSH2 0x337 SWAP2 SWAP1 PUSH2 0x1D0B JUMP JUMPDEST PUSH1 0x40 MLOAD DUP1 SWAP2 SUB SWAP1 RETURN JUMPDEST PUSH2 0x35A PUSH1 0x4 DUP1 CALLDATASIZE SUB DUP2 ADD SWAP1 PUSH2 0x355 SWAP2 SWAP1 PUSH2 0x1CBC JUMP JUMPDEST PUSH2 0xC08 JUMP JUMPDEST PUSH1 0x40 MLOAD PUSH2 0x367 SWAP2 SWAP1 PUSH2 0x1D0B JUMP JUMPDEST PUSH1 0x40 MLOAD DUP1 SWAP2 SUB SWAP1 RETURN JUMPDEST PUSH2 0x38A PUSH1 0x4 DUP1 CALLDATASIZE SUB DUP2 ADD SWAP1 PUSH2 0x385 SWAP2 SWAP1 PUSH2 0x1D26 JUMP JUMPDEST PUSH2 0xC1C JUMP JUMPDEST PUSH1 0x40 MLOAD PUSH2 0x397 SWAP2 SWAP1 PUSH2 0x1D0B JUMP JUMPDEST PUSH1 0x40 MLOAD DUP1 SWAP2 SUB SWAP1 RETURN JUMPDEST PUSH2 0x3A8 PUSH2 0xC2E JUMP JUMPDEST PUSH1 0x40 MLOAD PUSH2 0x3B5 SWAP2 SWAP1 PUSH2 0x1D0B JUMP JUMPDEST PUSH1 0x40 MLOAD DUP1 SWAP2 SUB SWAP1 RETURN JUMPDEST PUSH2 0x3D8 PUSH1 0x4 DUP1 CALLDATASIZE SUB DUP2 ADD SWAP1 PUSH2 0x3D3 SWAP2 SWAP1 PUSH2 0x1D53 JUMP JUMPDEST PUSH2 0xC33 JUMP JUMPDEST PUSH1 0x40 MLOAD PUSH2 0x3E5 SWAP2 SWAP1 PUSH2 0x1DC1 JUMP JUMPDEST PUSH1 0x40 MLOAD DUP1 SWAP2 SUB SWAP1 RETURN JUMPDEST PUSH2 0x408 PUSH1 0x4 DUP1 CALLDATASIZE SUB DUP2 ADD SWAP1 PUSH2 0x403 SWAP2 SWAP1 PUSH2 0x1D53 JUMP JUMPDEST PUSH2 0xC49 JUMP JUMPDEST PUSH1 0x40 MLOAD PUSH2 0x415 SWAP2 SWAP1 PUSH2 0x1D0B JUMP JUMPDEST PUSH1 0x40 MLOAD DUP1 SWAP2 SUB SWAP1 RETURN JUMPDEST PUSH2 0x438 PUSH1 0x4 DUP1 CALLDATASIZE SUB DUP2 ADD SWAP1 PUSH2 0x433 SWAP2 SWAP1 PUSH2 0x1D53 JUMP JUMPDEST PUSH2 0xC5F JUMP JUMPDEST PUSH1 0x40 MLOAD PUSH2 0x445 SWAP2 SWAP1 PUSH2 0x1D0B JUMP JUMPDEST PUSH1 0x40 MLOAD DUP1 SWAP2 SUB SWAP1 RETURN JUMPDEST PUSH2 0x468 PUSH1 0x4 DUP1 CALLDATASIZE SUB DUP2 ADD SWAP1 PUSH2 0x463 SWAP2 SWAP1 PUSH2 0x1D26 JUMP JUMPDEST PUSH2 0xC75 JUMP JUMPDEST PUSH1 0x40 MLOAD PUSH2 0x475 SWAP2 SWAP1 PUSH2 0x1D0B JUMP JUMPDEST PUSH1 0x40 MLOAD DUP1 SWAP2 SUB SWAP1 RETURN JUMPDEST PUSH2 0x486 PUSH2 0xC87 JUMP JUMPDEST PUSH1 0x40 MLOAD PUSH2 0x493 SWAP2 SWAP1 PUSH2 0x1D0B JUMP JUMPDEST PUSH1 0x40 MLOAD DUP1 SWAP2 SUB SWAP1 RETURN JUMPDEST PUSH2 0x4B6 PUSH1 0x4 DUP1 CALLDATASIZE SUB DUP2 ADD SWAP1 PUSH2 0x4B1 SWAP2 SWAP1 PUSH2 0x1CBC JUMP JUMPDEST PUSH2 0xC8C JUMP JUMPDEST PUSH1 0x40 MLOAD PUSH2 0x4C3 SWAP2 SWAP1 PUSH2 0x1D0B JUMP JUMPDEST PUSH1 0x40 MLOAD DUP1 SWAP2 SUB SWAP1 RETURN JUMPDEST PUSH2 0x4E6 PUSH1 0x4 DUP1 CALLDATASIZE SUB DUP2 ADD SWAP1 PUSH2 0x4E1 SWAP2 SWAP1 PUSH2 0x1DDC JUMP JUMPDEST PUSH2 0xCA0 JUMP JUMPDEST PUSH1 0x40 MLOAD PUSH2 0x4F3 SWAP2 SWAP1 PUSH2 0x1DC1 JUMP JUMPDEST PUSH1 0x40 MLOAD DUP1 SWAP2 SUB SWAP1 RETURN JUMPDEST PUSH2 0x516 PUSH1 0x4 DUP1 CALLDATASIZE SUB DUP2 ADD SWAP1 PUSH2 0x511 SWAP2 SWAP1 PUSH2 0x1D26 JUMP JUMPDEST PUSH2 0xCBC JUMP JUMPDEST PUSH1 0x40 MLOAD PUSH2 0x523 SWAP2 SWAP1 PUSH2 0x1D0B JUMP JUMPDEST PUSH1 0x40 MLOAD DUP1 SWAP2 SUB SWAP1 RETURN JUMPDEST PUSH2 0x546 PUSH1 0x4 DUP1 CALLDATASIZE SUB DUP2 ADD SWAP1 PUSH2 0x541 SWAP2 SWAP1 PUSH2 0x1CBC JUMP JUMPDEST PUSH2 0xCCE JUMP JUMPDEST PUSH1 0x40 MLOAD PUSH2 0x553 SWAP2 SWAP1 PUSH2 0x1D0B JUMP JUMPDEST PUSH1 0x40 MLOAD DUP1 SWAP2 SUB SWAP1 RETURN JUMPDEST PUSH2 0x576 PUSH1 0x4 DUP1 CALLDATASIZE SUB DUP2 ADD SWAP1 PUSH2 0x571 SWAP2 SWAP1 PUSH2 0x1CBC JUMP JUMPDEST PUSH2 0xCE2 JUMP JUMPDEST PUSH1 0x40 MLOAD PUSH2 0x583 SWAP2 SWAP1 PUSH2 0x1D0B JUMP JUMPDEST PUSH1 0x40 MLOAD DUP1 SWAP2 SUB SWAP1 RETURN JUMPDEST PUSH2 0x5A6 PUSH1 0x4 DUP1 CALLDATASIZE SUB DUP2 ADD SWAP1 PUSH2 0x5A1 SWAP2 SWAP1 PUSH2 0x1D26 JUMP JUMPDEST PUSH2 0xCF6 JUMP JUMPDEST PUSH1 0x40 MLOAD PUSH2 0x5B3 SWAP2 SWAP1 PUSH2 0x1DC1 JUMP JUMPDEST PUSH1 0x40 MLOAD DUP1 SWAP2 SUB SWAP1 RETURN JUMPDEST PUSH2 0x5D6 PUSH1 0x4 DUP1 CALLDATASIZE SUB DUP2 ADD SWAP1 PUSH2 0x5D1 SWAP2 SWAP1 PUSH2 0x1CBC JUMP JUMPDEST PUSH2 0xD08 JUMP JUMPDEST PUSH1 0x40 MLOAD PUSH2 0x5E3 SWAP2 SWAP1 PUSH2 0x1D0B JUMP JUMPDEST PUSH1 0x40 MLOAD DUP1 SWAP2 SUB SWAP1 RETURN JUMPDEST PUSH2 0x606 PUSH1 0x4 DUP1 CALLDATASIZE SUB DUP2 ADD SWAP1 PUSH2 0x601 SWAP2 SWAP1 PUSH2 0x1CBC JUMP JUMPDEST PUSH2 0xD1C JUMP JUMPDEST PUSH1 0x40 MLOAD PUSH2 0x613 SWAP2 SWAP1 PUSH2 0x1D0B JUMP JUMPDEST PUSH1 0x40 MLOAD DUP1 SWAP2 SUB SWAP1 RETURN JUMPDEST PUSH2 0x636 PUSH1 0x4 DUP1 CALLDATASIZE SUB DUP2 ADD SWAP1 PUSH2 0x631 SWAP2 SWAP1 PUSH2 0x1CBC JUMP JUMPDEST PUSH2 0xD30 JUMP JUMPDEST PUSH1 0x40 MLOAD PUSH2 0x643 SWAP2 SWAP1 PUSH2 0x1D0B JUMP JUMPDEST PUSH1 0x40 MLOAD DUP1 SWAP2 SUB SWAP1 RETURN JUMPDEST PUSH2 0x654 PUSH2 0xD44 JUMP JUMPDEST PUSH1 0x40 MLOAD PUSH2 0x661 SWAP2 SWAP1 PUSH2 0x1D0B JUMP JUMPDEST PUSH1 0x40 MLOAD DUP1 SWAP2 SUB SWAP1 RETURN JUMPDEST PUSH2 0x684 PUSH1 0x4 DUP1 CALLDATASIZE SUB DUP2 ADD SWAP1 PUSH2 0x67F SWAP2 SWAP1 PUSH2 0x1DDC JUMP JUMPDEST PUSH2 0xD4A JUMP JUMPDEST PUSH1 0x40 MLOAD PUSH2 0x691 SWAP2 SWAP1 PUSH2 0x1D0B JUMP JUMPDEST PUSH1 0x40 MLOAD DUP1 SWAP2 SUB SWAP1 RETURN JUMPDEST PUSH2 0x6B4 PUSH1 0x4 DUP1 CALLDATASIZE SUB DUP2 ADD SWAP1 PUSH2 0x6AF SWAP2 SWAP1 PUSH2 0x1CBC JUMP JUMPDEST PUSH2 0xD66 JUMP JUMPDEST PUSH1 0x40 MLOAD PUSH2 0x6C1 SWAP2 SWAP1 PUSH2 0x1D0B JUMP JUMPDEST PUSH1 0x40 MLOAD DUP1 SWAP2 SUB SWAP1 RETURN JUMPDEST PUSH2 0x6E4 PUSH1 0x4 DUP1 CALLDATASIZE SUB DUP2 ADD SWAP1 PUSH2 0x6DF SWAP2 SWAP1 PUSH2 0x1D26 JUMP JUMPDEST PUSH2 0xD7A JUMP JUMPDEST PUSH1 0x40 MLOAD PUSH2 0x6F1 SWAP2 SWAP1 PUSH2 0x1D0B JUMP JUMPDEST PUSH1 0x40 MLOAD DUP1 SWAP2 SUB SWAP1 RETURN JUMPDEST PUSH2 0x714 PUSH1 0x4 DUP1 CALLDATASIZE SUB DUP2 ADD SWAP1 PUSH2 0x70F SWAP2 SWAP1 PUSH2 0x1CBC JUMP JUMPDEST PUSH2 0xD8C JUMP JUMPDEST PUSH1 0x40 MLOAD PUSH2 0x721 SWAP2 SWAP1 PUSH2 0x1D0B JUMP JUMPDEST PUSH1 0x40 MLOAD DUP1 SWAP2 SUB SWAP1 RETURN JUMPDEST PUSH2 0x732 PUSH2 0xDA0 JUMP JUMPDEST PUSH1 0x40 MLOAD PUSH2 0x73F SWAP2 SWAP1 PUSH2 0x1D0B JUMP JUMPDEST PUSH1 0x40 MLOAD DUP1 SWAP2 SUB SWAP1 RETURN JUMPDEST PUSH2 0x762 PUSH1 0x4 DUP1 CALLDATASIZE SUB DUP2 ADD SWAP1 PUSH2 0x75D SWAP2 SWAP1 PUSH2 0x1CBC JUMP JUMPDEST PUSH2 0xDA7 JUMP JUMPDEST PUSH1 0x40 MLOAD PUSH2 0x76F SWAP2 SWAP1 PUSH2 0x1D0B JUMP JUMPDEST PUSH1 0x40 MLOAD DUP1 SWAP2 SUB SWAP1 RETURN JUMPDEST PUSH2 0x792 PUSH1 0x4 DUP1 CALLDATASIZE SUB DUP2 ADD SWAP1 PUSH2 0x78D SWAP2 SWAP1 PUSH2 0x1CBC JUMP JUMPDEST PUSH2 0xDBB JUMP JUMPDEST PUSH1 0x40 MLOAD PUSH2 0x79F SWAP2 SWAP1 PUSH2 0x1D0B JUMP JUMPDEST PUSH1 0x40 MLOAD DUP1 SWAP2 SUB SWAP1 RETURN JUMPDEST PUSH2 0x7C2 PUSH1 0x4 DUP1 CALLDATASIZE SUB DUP2 ADD SWAP1 PUSH2 0x7BD SWAP2 SWAP1 PUSH2 0x1D26 JUMP JUMPDEST PUSH2 0xDCF JUMP JUMPDEST PUSH1 0x40 MLOAD PUSH2 0x7CF SWAP2 SWAP1 PUSH2 0x1D0B JUMP JUMPDEST PUSH1 0x40 MLOAD DUP1 SWAP2 SUB SWAP1 RETURN JUMPDEST PUSH2 0x7E0 PUSH2 0xDE1 JUMP JUMPDEST PUSH1 0x40 MLOAD PUSH2 0x7ED SWAP2 SWAP1 PUSH2 0x1D0B JUMP JUMPDEST PUSH1 0x40 MLOAD DUP1 SWAP2 SUB SWAP1 RETURN JUMPDEST PUSH2 0x810 PUSH1 0x4 DUP1 CALLDATASIZE SUB DUP2 ADD SWAP1 PUSH2 0x80B SWAP2 SWAP1 PUSH2 0x1CBC JUMP JUMPDEST PUSH2 0xDE6 JUMP JUMPDEST PUSH1 0x40 MLOAD PUSH2 0x81D SWAP2 SWAP1 PUSH2 0x1D0B JUMP JUMPDEST PUSH1 0x40 MLOAD DUP1 SWAP2 SUB SWAP1 RETURN JUMPDEST PUSH2 0x840 PUSH1 0x4 DUP1 CALLDATASIZE SUB DUP2 ADD SWAP1 PUSH2 0x83B SWAP2 SWAP1 PUSH2 0x1D26 JUMP JUMPDEST PUSH2 0xDFA JUMP JUMPDEST PUSH1 0x40 MLOAD PUSH2 0x84F SWAP4 SWAP3 SWAP2 SWAP1 PUSH2 0x1E69 JUMP JUMPDEST PUSH1 0x40 MLOAD DUP1 SWAP2 SUB SWAP1 RETURN JUMPDEST PUSH2 0x860 PUSH2 0xE15 JUMP JUMPDEST PUSH1 0x40 MLOAD PUSH2 0x872 SWAP7 SWAP6 SWAP5 SWAP4 SWAP3 SWAP2 SWAP1 PUSH2 0x1EA0 JUMP JUMPDEST PUSH1 0x40 MLOAD DUP1 SWAP2 SUB SWAP1 RETURN JUMPDEST PUSH2 0x895 PUSH1 0x4 DUP1 CALLDATASIZE SUB DUP2 ADD SWAP1 PUSH2 0x890 SWAP2 SWAP1 PUSH2 0x1D26 JUMP JUMPDEST PUSH2 0xE47 JUMP JUMPDEST PUSH1 0x40 MLOAD PUSH2 0x8A2 SWAP2 SWAP1 PUSH2 0x1D0B JUMP JUMPDEST PUSH1 0x40 MLOAD DUP1 SWAP2 SUB SWAP1 RETURN JUMPDEST PUSH2 0x8C5 PUSH1 0x4 DUP1 CALLDATASIZE SUB DUP2 ADD SWAP1 PUSH2 0x8C0 SWAP2 SWAP1 PUSH2 0x1CBC JUMP JUMPDEST PUSH2 0xE59 JUMP JUMPDEST PUSH1 0x40 MLOAD PUSH2 0x8D2 SWAP2 SWAP1 PUSH2 0x1D0B JUMP JUMPDEST PUSH1 0x40 MLOAD DUP1 SWAP2 SUB SWAP1 RETURN JUMPDEST PUSH2 0x8F5 PUSH1 0x4 DUP1 CALLDATASIZE SUB DUP2 ADD SWAP1 PUSH2 0x8F0 SWAP2 SWAP1 PUSH2 0x1D26 JUMP JUMPDEST PUSH2 0xE6D JUMP JUMPDEST PUSH1 0x40 MLOAD PUSH2 0x902 SWAP2 SWAP1 PUSH2 0x1D0B JUMP JUMPDEST PUSH1 0x40 MLOAD DUP1 SWAP2 SUB SWAP1 RETURN JUMPDEST PUSH2 0x913 PUSH2 0xE7F JUMP JUMPDEST PUSH1 0x40 MLOAD PUSH2 0x920 SWAP2 SWAP1 PUSH2 0x1F1A JUMP JUMPDEST PUSH1 0x40 MLOAD DUP1 SWAP2 SUB SWAP1 RETURN JUMPDEST PUSH2 0x943 PUSH1 0x4 DUP1 CALLDATASIZE SUB DUP2 ADD SWAP1 PUSH2 0x93E SWAP2 SWAP1 PUSH2 0x1CBC JUMP JUMPDEST PUSH2 0xE86 JUMP JUMPDEST PUSH1 0x40 MLOAD PUSH2 0x950 SWAP2 SWAP1 PUSH2 0x1D0B JUMP JUMPDEST PUSH1 0x40 MLOAD DUP1 SWAP2 SUB SWAP1 RETURN JUMPDEST PUSH2 0x973 PUSH1 0x4 DUP1 CALLDATASIZE SUB DUP2 ADD SWAP1 PUSH2 0x96E SWAP2 SWAP1 PUSH2 0x1D26 JUMP JUMPDEST PUSH2 0xE9A JUMP JUMPDEST PUSH1 0x40 MLOAD PUSH2 0x980 SWAP2 SWAP1 PUSH2 0x1DC1 JUMP JUMPDEST PUSH1 0x40 MLOAD DUP1 SWAP2 SUB SWAP1 RETURN JUMPDEST PUSH2 0x991 PUSH2 0xEAC JUMP JUMPDEST PUSH1 0x40 MLOAD PUSH2 0x99E SWAP2 SWAP1 PUSH2 0x1D0B JUMP JUMPDEST PUSH1 0x40 MLOAD DUP1 SWAP2 SUB SWAP1 RETURN JUMPDEST PUSH2 0x9C1 PUSH1 0x4 DUP1 CALLDATASIZE SUB DUP2 ADD SWAP1 PUSH2 0x9BC SWAP2 SWAP1 PUSH2 0x1D26 JUMP JUMPDEST PUSH2 0xEB4 JUMP JUMPDEST PUSH1 0x40 MLOAD PUSH2 0x9CE SWAP2 SWAP1 PUSH2 0x1DC1 JUMP JUMPDEST PUSH1 0x40 MLOAD DUP1 SWAP2 SUB SWAP1 RETURN JUMPDEST PUSH2 0x9F1 PUSH1 0x4 DUP1 CALLDATASIZE SUB DUP2 ADD SWAP1 PUSH2 0x9EC SWAP2 SWAP1 PUSH2 0x1CBC JUMP JUMPDEST PUSH2 0xEC6 JUMP JUMPDEST PUSH1 0x40 MLOAD PUSH2 0x9FE SWAP2 SWAP1 PUSH2 0x1D0B JUMP JUMPDEST PUSH1 0x40 MLOAD DUP1 SWAP2 SUB SWAP1 RETURN JUMPDEST PUSH2 0xA0F PUSH2 0xEDA JUMP JUMPDEST PUSH1 0x40 MLOAD PUSH2 0xA1C SWAP2 SWAP1 PUSH2 0x1D0B JUMP JUMPDEST PUSH1 0x40 MLOAD DUP1 SWAP2 SUB SWAP1 RETURN JUMPDEST PUSH2 0xA3F PUSH1 0x4 DUP1 CALLDATASIZE SUB DUP2 ADD SWAP1 PUSH2 0xA3A SWAP2 SWAP1 PUSH2 0x1CBC JUMP JUMPDEST PUSH2 0xEDF JUMP JUMPDEST PUSH1 0x40 MLOAD PUSH2 0xA4C SWAP2 SWAP1 PUSH2 0x1D0B JUMP JUMPDEST PUSH1 0x40 MLOAD DUP1 SWAP2 SUB SWAP1 RETURN JUMPDEST PUSH2 0xA5D PUSH2 0xEF3 JUMP JUMPDEST PUSH1 0x40 MLOAD PUSH2 0xA6A SWAP2 SWAP1 PUSH2 0x1D0B JUMP JUMPDEST PUSH1 0x40 MLOAD DUP1 SWAP2 SUB SWAP1 RETURN JUMPDEST PUSH2 0xA7B PUSH2 0xEF8 JUMP JUMPDEST PUSH1 0x40 MLOAD PUSH2 0xA88 SWAP2 SWAP1 PUSH2 0x1D0B JUMP JUMPDEST PUSH1 0x40 MLOAD DUP1 SWAP2 SUB SWAP1 RETURN JUMPDEST PUSH2 0xAAB PUSH1 0x4 DUP1 CALLDATASIZE SUB DUP2 ADD SWAP1 PUSH2 0xAA6 SWAP2 SWAP1 PUSH2 0x1D26 JUMP JUMPDEST PUSH2 0xEFD JUMP JUMPDEST PUSH1 0x40 MLOAD PUSH2 0xAB8 SWAP2 SWAP1 PUSH2 0x1DC1 JUMP JUMPDEST PUSH1 0x40 MLOAD DUP1 SWAP2 SUB SWAP1 RETURN JUMPDEST PUSH2 0xADB PUSH1 0x4 DUP1 CALLDATASIZE SUB DUP2 ADD SWAP1 PUSH2 0xAD6 SWAP2 SWAP1 PUSH2 0x1D26 JUMP JUMPDEST PUSH2 0xF0F JUMP JUMPDEST PUSH1 0x40 MLOAD PUSH2 0xAEA SWAP4 SWAP3 SWAP2 SWAP1 PUSH2 0x1E69 JUMP JUMPDEST PUSH1 0x40 MLOAD DUP1 SWAP2 SUB SWAP1 RETURN JUMPDEST PUSH2 0xAFB PUSH2 0xF30 JUMP JUMPDEST PUSH1 0x40 MLOAD PUSH2 0xB08 SWAP2 SWAP1 PUSH2 0x1D0B JUMP JUMPDEST PUSH1 0x40 MLOAD DUP1 SWAP2 SUB SWAP1 RETURN JUMPDEST PUSH2 0xB2B PUSH1 0x4 DUP1 CALLDATASIZE SUB DUP2 ADD SWAP1 PUSH2 0xB26 SWAP2 SWAP1 PUSH2 0x1D26 JUMP JUMPDEST PUSH2 0xF35 JUMP JUMPDEST PUSH1 0x40 MLOAD PUSH2 0xB3D SWAP7 SWAP6 SWAP5 SWAP4 SWAP3 SWAP2 SWAP1 PUSH2 0x1EA0 JUMP JUMPDEST PUSH1 0x40 MLOAD DUP1 SWAP2 SUB SWAP1 RETURN JUMPDEST PUSH2 0xB60 PUSH1 0x4 DUP1 CALLDATASIZE SUB DUP2 ADD SWAP1 PUSH2 0xB5B SWAP2 SWAP1 PUSH2 0x1CBC JUMP JUMPDEST PUSH2 0xF68 JUMP JUMPDEST PUSH1 0x40 MLOAD PUSH2 0xB6D SWAP2 SWAP1 PUSH2 0x1D0B JUMP JUMPDEST PUSH1 0x40 MLOAD DUP1 SWAP2 SUB SWAP1 RETURN JUMPDEST PUSH2 0xB7E PUSH2 0xF7C JUMP JUMPDEST PUSH1 0x40 MLOAD PUSH2 0xB8B SWAP2 SWAP1 PUSH2 0x1D0B JUMP JUMPDEST PUSH1 0x40 MLOAD DUP1 SWAP2 SUB SWAP1 RETURN JUMPDEST PUSH2 0xBAE PUSH1 0x4 DUP1 CALLDATASIZE SUB DUP2 ADD SWAP1 PUSH2 0xBA9 SWAP2 SWAP1 PUSH2 0x1D26 JUMP JUMPDEST PUSH2 0xF81 JUMP JUMPDEST PUSH1 0x40 MLOAD PUSH2 0xBBB SWAP2 SWAP1 PUSH2 0x1D0B JUMP JUMPDEST PUSH1 0x40 MLOAD DUP1 SWAP2 SUB SWAP1 RETURN JUMPDEST PUSH2 0xBDE PUSH1 0x4 DUP1 CALLDATASIZE SUB DUP2 ADD SWAP1 PUSH2 0xBD9 SWAP2 SWAP1 PUSH2 0x1CBC JUMP JUMPDEST PUSH2 0xF93 JUMP JUMPDEST PUSH1 0x40 MLOAD PUSH2 0xBEB SWAP2 SWAP1 PUSH2 0x1D0B JUMP JUMPDEST PUSH1 0x40 MLOAD DUP1 SWAP2 SUB SWAP1 RETURN JUMPDEST PUSH1 0x0 PUSH2 0xC00 DUP4 DUP4 PUSH2 0xFA7 JUMP JUMPDEST SWAP1 POP SWAP3 SWAP2 POP POP JUMP JUMPDEST PUSH1 0x0 PUSH2 0xC14 DUP4 DUP4 PUSH2 0xFD7 JUMP JUMPDEST SWAP1 POP SWAP3 SWAP2 POP POP JUMP JUMPDEST PUSH1 0x0 PUSH2 0xC27 DUP3 PUSH2 0x1006 JUMP JUMPDEST SWAP1 POP SWAP2 SWAP1 POP JUMP JUMPDEST PUSH1 0x2 DUP2 JUMP JUMPDEST PUSH1 0x0 PUSH2 0xC40 DUP5 DUP5 DUP5 PUSH2 0x103A JUMP JUMPDEST SWAP1 POP SWAP4 SWAP3 POP POP POP JUMP JUMPDEST PUSH1 0x0 PUSH2 0xC56 DUP5 DUP5 DUP5 PUSH2 0x1091 JUMP JUMPDEST SWAP1 POP SWAP4 SWAP3 POP POP POP JUMP JUMPDEST PUSH1 0x0 PUSH2 0xC6C DUP5 DUP5 DUP5 PUSH2 0x11F0 JUMP JUMPDEST SWAP1 POP SWAP4 SWAP3 POP POP POP JUMP JUMPDEST PUSH1 0x0 PUSH2 0xC80 DUP3 PUSH2 0x1214 JUMP JUMPDEST SWAP1 POP SWAP2 SWAP1 POP JUMP JUMPDEST PUSH1 0x7 DUP2 JUMP JUMPDEST PUSH1 0x0 PUSH2 0xC98 DUP4 DUP4 PUSH2 0x1255 JUMP JUMPDEST SWAP1 POP SWAP3 SWAP2 POP POP JUMP JUMPDEST PUSH1 0x0 PUSH2 0xCB0 DUP8 DUP8 DUP8 DUP8 DUP8 DUP8 PUSH2 0x1285 JUMP JUMPDEST SWAP1 POP SWAP7 SWAP6 POP POP POP POP POP POP JUMP JUMPDEST PUSH1 0x0 PUSH2 0xCC7 DUP3 PUSH2 0x12C8 JUMP JUMPDEST SWAP1 POP SWAP2 SWAP1 POP JUMP JUMPDEST PUSH1 0x0 PUSH2 0xCDA DUP4 DUP4 PUSH2 0x12F2 JUMP JUMPDEST SWAP1 POP SWAP3 SWAP2 POP POP JUMP JUMPDEST PUSH1 0x0 PUSH2 0xCEE DUP4 DUP4 PUSH2 0x137D JUMP JUMPDEST SWAP1 POP SWAP3 SWAP2 POP POP JUMP JUMPDEST PUSH1 0x0 PUSH2 0xD01 DUP3 PUSH2 0x1460 JUMP JUMPDEST SWAP1 POP SWAP2 SWAP1 POP JUMP JUMPDEST PUSH1 0x0 PUSH2 0xD14 DUP4 DUP4 PUSH2 0x1476 JUMP JUMPDEST SWAP1 POP SWAP3 SWAP2 POP POP JUMP JUMPDEST PUSH1 0x0 PUSH2 0xD28 DUP4 DUP4 PUSH2 0x150C JUMP JUMPDEST SWAP1 POP SWAP3 SWAP2 POP POP JUMP JUMPDEST PUSH1 0x0 PUSH2 0xD3C DUP4 DUP4 PUSH2 0x15A2 JUMP JUMPDEST SWAP1 POP SWAP3 SWAP2 POP POP JUMP JUMPDEST PUSH2 0xE10 DUP2 JUMP JUMPDEST PUSH1 0x0 PUSH2 0xD5A DUP8 DUP8 DUP8 DUP8 DUP8 DUP8 PUSH2 0x15D2 JUMP JUMPDEST SWAP1 POP SWAP7 SWAP6 POP POP POP POP POP POP JUMP JUMPDEST PUSH1 0x0 PUSH2 0xD72 DUP4 DUP4 PUSH2 0x1633 JUMP JUMPDEST SWAP1 POP SWAP3 SWAP2 POP POP JUMP JUMPDEST PUSH1 0x0 PUSH2 0xD85 DUP3 PUSH2 0x1656 JUMP JUMPDEST SWAP1 POP SWAP2 SWAP1 POP JUMP JUMPDEST PUSH1 0x0 PUSH2 0xD98 DUP4 DUP4 PUSH2 0x167D JUMP JUMPDEST SWAP1 POP SWAP3 SWAP2 POP POP JUMP JUMPDEST PUSH3 0x15180 DUP2 JUMP JUMPDEST PUSH1 0x0 PUSH2 0xDB3 DUP4 DUP4 PUSH2 0x16AE JUMP JUMPDEST SWAP1 POP SWAP3 SWAP2 POP POP JUMP JUMPDEST PUSH1 0x0 PUSH2 0xDC7 DUP4 DUP4 PUSH2 0x1741 JUMP JUMPDEST SWAP1 POP SWAP3 SWAP2 POP POP JUMP JUMPDEST PUSH1 0x0 PUSH2 0xDDA DUP3 PUSH2 0x1770 JUMP JUMPDEST SWAP1 POP SWAP2 SWAP1 POP JUMP JUMPDEST PUSH1 0x3 DUP2 JUMP JUMPDEST PUSH1 0x0 PUSH2 0xDF2 DUP4 DUP4 PUSH2 0x1786 JUMP JUMPDEST SWAP1 POP SWAP3 SWAP2 POP POP JUMP JUMPDEST PUSH1 0x0 DUP1 PUSH1 0x0 PUSH2 0xE08 DUP5 PUSH2 0x17A9 JUMP JUMPDEST SWAP3 POP SWAP3 POP SWAP3 POP SWAP2 SWAP4 SWAP1 SWAP3 POP JUMP JUMPDEST PUSH1 0x0 DUP1 PUSH1 0x0 DUP1 PUSH1 0x0 DUP1 PUSH2 0xE27 TIMESTAMP PUSH2 0x18AE JUMP JUMPDEST DUP1 SWAP7 POP DUP2 SWAP8 POP DUP3 SWAP9 POP DUP4 SWAP10 POP DUP5 SWAP11 POP DUP6 SWAP12 POP POP POP POP POP POP POP SWAP1 SWAP2 SWAP3 SWAP4 SWAP5 SWAP6 JUMP JUMPDEST PUSH1 0x0 PUSH2 0xE52 DUP3 PUSH2 0x1953 JUMP JUMPDEST SWAP1 POP SWAP2 SWAP1 POP JUMP JUMPDEST PUSH1 0x0 PUSH2 0xE65 DUP4 DUP4 PUSH2 0x1978 JUMP JUMPDEST SWAP1 POP SWAP3 SWAP2 POP POP JUMP JUMPDEST PUSH1 0x0 PUSH2 0xE78 DUP3 PUSH2 0x19A7 JUMP JUMPDEST SWAP1 POP SWAP2 SWAP1 POP JUMP JUMPDEST PUSH3 0x253D8C DUP2 JUMP JUMPDEST PUSH1 0x0 PUSH2 0xE92 DUP4 DUP4 PUSH2 0x19CD JUMP JUMPDEST SWAP1 POP SWAP3 SWAP2 POP POP JUMP JUMPDEST PUSH1 0x0 PUSH2 0xEA5 DUP3 PUSH2 0x1AB3 JUMP JUMPDEST SWAP1 POP SWAP2 SWAP1 POP JUMP JUMPDEST PUSH1 0x0 TIMESTAMP SWAP1 POP SWAP1 JUMP JUMPDEST PUSH1 0x0 PUSH2 0xEBF DUP3 PUSH2 0x1AFC JUMP JUMPDEST SWAP1 POP SWAP2 SWAP1 POP JUMP JUMPDEST PUSH1 0x0 PUSH2 0xED2 DUP4 DUP4 PUSH2 0x1B2B JUMP JUMPDEST SWAP1 POP SWAP3 SWAP2 POP POP JUMP JUMPDEST PUSH1 0x6 DUP2 JUMP JUMPDEST PUSH1 0x0 PUSH2 0xEEB DUP4 DUP4 PUSH2 0x1B5C JUMP JUMPDEST SWAP1 POP SWAP3 SWAP2 POP POP JUMP JUMPDEST PUSH1 0x4 DUP2 JUMP JUMPDEST PUSH1 0x5 DUP2 JUMP JUMPDEST PUSH1 0x0 PUSH2 0xF08 DUP3 PUSH2 0x1B8D JUMP JUMPDEST SWAP1 POP SWAP2 SWAP1 POP JUMP JUMPDEST PUSH1 0x0 DUP1 PUSH1 0x0 PUSH2 0xF1D DUP5 PUSH2 0x1BA3 JUMP JUMPDEST DUP1 SWAP4 POP DUP2 SWAP5 POP DUP3 SWAP6 POP POP POP POP SWAP2 SWAP4 SWAP1 SWAP3 POP JUMP JUMPDEST PUSH1 0x3C DUP2 JUMP JUMPDEST PUSH1 0x0 DUP1 PUSH1 0x0 DUP1 PUSH1 0x0 DUP1 PUSH2 0xF47 DUP8 PUSH2 0x18AE JUMP JUMPDEST DUP1 SWAP7 POP DUP2 SWAP8 POP DUP3 SWAP9 POP DUP4 SWAP10 POP DUP5 SWAP11 POP DUP6 SWAP12 POP POP POP POP POP POP POP SWAP2 SWAP4 SWAP6 POP SWAP2 SWAP4 SWAP6 JUMP JUMPDEST PUSH1 0x0 PUSH2 0xF74 DUP4 DUP4 PUSH2 0x1BD7 JUMP JUMPDEST SWAP1 POP SWAP3 SWAP2 POP POP JUMP JUMPDEST PUSH1 0x1 DUP2 JUMP JUMPDEST PUSH1 0x0 PUSH2 0xF8C DUP3 PUSH2 0x1BFA JUMP JUMPDEST SWAP1 POP SWAP2 SWAP1 POP JUMP JUMPDEST PUSH1 0x0 PUSH2 0xF9F DUP4 DUP4 PUSH2 0x1C22 JUMP JUMPDEST SWAP1 POP SWAP3 SWAP2 POP POP JUMP JUMPDEST PUSH1 0x0 PUSH2 0xE10 DUP3 PUSH2 0xFB7 SWAP2 SWAP1 PUSH2 0x1F64 JUMP JUMPDEST DUP4 PUSH2 0xFC2 SWAP2 SWAP1 PUSH2 0x1FA6 JUMP JUMPDEST SWAP1 POP DUP3 DUP2 GT ISZERO PUSH2 0xFD1 JUMPI PUSH1 0x0 DUP1 REVERT JUMPDEST SWAP3 SWAP2 POP POP JUMP JUMPDEST PUSH1 0x0 DUP2 DUP4 GT ISZERO PUSH2 0xFE6 JUMPI PUSH1 0x0 DUP1 REVERT JUMPDEST PUSH1 0x3C DUP4 DUP4 PUSH2 0xFF4 SWAP2 SWAP1 PUSH2 0x1FA6 JUMP JUMPDEST PUSH2 0xFFE SWAP2 SWAP1 PUSH2 0x2009 JUMP JUMPDEST SWAP1 POP SWAP3 SWAP2 POP POP JUMP JUMPDEST PUSH1 0x0 DUP1 PUSH1 0x0 PUSH2 0x1022 PUSH3 0x15180 DUP6 PUSH2 0x101D SWAP2 SWAP1 PUSH2 0x2009 JUMP JUMPDEST PUSH2 0x17A9 JUMP JUMPDEST POP SWAP2 POP SWAP2 POP PUSH2 0x1031 DUP3 DUP3 PUSH2 0x12F2 JUMP JUMPDEST SWAP3 POP POP POP SWAP2 SWAP1 POP JUMP JUMPDEST PUSH1 0x0 PUSH2 0x7B2 DUP5 LT ISZERO DUP1 ISZERO PUSH2 0x104E JUMPI POP PUSH1 0x0 DUP4 GT JUMPDEST DUP1 ISZERO PUSH2 0x105B JUMPI POP PUSH1 0xC DUP4 GT ISZERO JUMPDEST ISZERO PUSH2 0x108A JUMPI PUSH1 0x0 PUSH2 0x106C DUP6 DUP6 PUSH2 0x12F2 JUMP JUMPDEST SWAP1 POP PUSH1 0x0 DUP4 GT DUP1 ISZERO PUSH2 0x107E JUMPI POP DUP1 DUP4 GT ISZERO JUMPDEST ISZERO PUSH2 0x1088 JUMPI PUSH1 0x1 SWAP2 POP JUMPDEST POP JUMPDEST SWAP4 SWAP3 POP POP POP JUMP JUMPDEST PUSH1 0x0 PUSH2 0x7B2 DUP5 LT ISZERO PUSH2 0x10A2 JUMPI PUSH1 0x0 DUP1 REVERT JUMPDEST PUSH1 0x0 DUP5 SWAP1 POP PUSH1 0x0 DUP5 SWAP1 POP PUSH1 0x0 DUP5 SWAP1 POP PUSH1 0x0 PUSH3 0x253D8C PUSH1 0x4 PUSH1 0x64 PUSH1 0xC PUSH1 0xE DUP8 PUSH2 0x10CA SWAP2 SWAP1 PUSH2 0x203A JUMP JUMPDEST PUSH2 0x10D4 SWAP2 SWAP1 PUSH2 0x207D JUMP JUMPDEST PUSH2 0x1324 DUP9 PUSH2 0x10E2 SWAP2 SWAP1 PUSH2 0x20E7 JUMP JUMPDEST PUSH2 0x10EC SWAP2 SWAP1 PUSH2 0x20E7 JUMP JUMPDEST PUSH2 0x10F6 SWAP2 SWAP1 PUSH2 0x207D JUMP JUMPDEST PUSH1 0x3 PUSH2 0x1102 SWAP2 SWAP1 PUSH2 0x212B JUMP JUMPDEST PUSH2 0x110C SWAP2 SWAP1 PUSH2 0x207D JUMP JUMPDEST PUSH1 0xC DUP1 PUSH1 0xC PUSH1 0xE DUP9 PUSH2 0x111E SWAP2 SWAP1 PUSH2 0x203A JUMP JUMPDEST PUSH2 0x1128 SWAP2 SWAP1 PUSH2 0x207D JUMP JUMPDEST PUSH2 0x1132 SWAP2 SWAP1 PUSH2 0x212B JUMP JUMPDEST PUSH1 0x2 DUP8 PUSH2 0x113F SWAP2 SWAP1 PUSH2 0x203A JUMP JUMPDEST PUSH2 0x1149 SWAP2 SWAP1 PUSH2 0x203A JUMP JUMPDEST PUSH2 0x16F PUSH2 0x1156 SWAP2 SWAP1 PUSH2 0x212B JUMP JUMPDEST PUSH2 0x1160 SWAP2 SWAP1 PUSH2 0x207D JUMP JUMPDEST PUSH1 0x4 PUSH1 0xC PUSH1 0xE DUP9 PUSH2 0x1171 SWAP2 SWAP1 PUSH2 0x203A JUMP JUMPDEST PUSH2 0x117B SWAP2 SWAP1 PUSH2 0x207D JUMP JUMPDEST PUSH2 0x12C0 DUP10 PUSH2 0x1189 SWAP2 SWAP1 PUSH2 0x20E7 JUMP JUMPDEST PUSH2 0x1193 SWAP2 SWAP1 PUSH2 0x20E7 JUMP JUMPDEST PUSH2 0x5B5 PUSH2 0x11A0 SWAP2 SWAP1 PUSH2 0x212B JUMP JUMPDEST PUSH2 0x11AA SWAP2 SWAP1 PUSH2 0x207D JUMP JUMPDEST PUSH2 0x7D4B DUP7 PUSH2 0x11B8 SWAP2 SWAP1 PUSH2 0x203A JUMP JUMPDEST PUSH2 0x11C2 SWAP2 SWAP1 PUSH2 0x20E7 JUMP JUMPDEST PUSH2 0x11CC SWAP2 SWAP1 PUSH2 0x20E7 JUMP JUMPDEST PUSH2 0x11D6 SWAP2 SWAP1 PUSH2 0x203A JUMP JUMPDEST PUSH2 0x11E0 SWAP2 SWAP1 PUSH2 0x203A JUMP JUMPDEST SWAP1 POP DUP1 SWAP5 POP POP POP POP POP SWAP4 SWAP3 POP POP POP JUMP JUMPDEST PUSH1 0x0 PUSH3 0x15180 PUSH2 0x1201 DUP6 DUP6 DUP6 PUSH2 0x1091 JUMP JUMPDEST PUSH2 0x120B SWAP2 SWAP1 PUSH2 0x1F64 JUMP JUMPDEST SWAP1 POP SWAP4 SWAP3 POP POP POP JUMP JUMPDEST PUSH1 0x0 DUP1 PUSH3 0x15180 DUP4 PUSH2 0x1226 SWAP2 SWAP1 PUSH2 0x2009 JUMP JUMPDEST SWAP1 POP PUSH1 0x1 PUSH1 0x7 PUSH1 0x3 DUP4 PUSH2 0x1239 SWAP2 SWAP1 PUSH2 0x21A3 JUMP JUMPDEST PUSH2 0x1243 SWAP2 SWAP1 PUSH2 0x21D7 JUMP JUMPDEST PUSH2 0x124D SWAP2 SWAP1 PUSH2 0x21A3 JUMP JUMPDEST SWAP2 POP POP SWAP2 SWAP1 POP JUMP JUMPDEST PUSH1 0x0 DUP2 DUP4 GT ISZERO PUSH2 0x1264 JUMPI PUSH1 0x0 DUP1 REVERT JUMPDEST PUSH2 0xE10 DUP4 DUP4 PUSH2 0x1273 SWAP2 SWAP1 PUSH2 0x1FA6 JUMP JUMPDEST PUSH2 0x127D SWAP2 SWAP1 PUSH2 0x2009 JUMP JUMPDEST SWAP1 POP SWAP3 SWAP2 POP POP JUMP JUMPDEST PUSH1 0x0 PUSH2 0x1292 DUP8 DUP8 DUP8 PUSH2 0x103A JUMP JUMPDEST ISZERO PUSH2 0x12BE JUMPI PUSH1 0x18 DUP5 LT DUP1 ISZERO PUSH2 0x12A7 JUMPI POP PUSH1 0x3C DUP4 LT JUMPDEST DUP1 ISZERO PUSH2 0x12B3 JUMPI POP PUSH1 0x3C DUP3 LT JUMPDEST ISZERO PUSH2 0x12BD JUMPI PUSH1 0x1 SWAP1 POP JUMPDEST JUMPDEST SWAP7 SWAP6 POP POP POP POP POP POP JUMP JUMPDEST PUSH1 0x0 DUP1 PUSH3 0x15180 DUP4 PUSH2 0x12DA SWAP2 SWAP1 PUSH2 0x21D7 JUMP JUMPDEST SWAP1 POP PUSH2 0xE10 DUP2 PUSH2 0x12EA SWAP2 SWAP1 PUSH2 0x2009 JUMP JUMPDEST SWAP2 POP POP SWAP2 SWAP1 POP JUMP JUMPDEST PUSH1 0x0 PUSH1 0x1 DUP3 EQ DUP1 PUSH2 0x1303 JUMPI POP PUSH1 0x3 DUP3 EQ JUMPDEST DUP1 PUSH2 0x130E JUMPI POP PUSH1 0x5 DUP3 EQ JUMPDEST DUP1 PUSH2 0x1319 JUMPI POP PUSH1 0x7 DUP3 EQ JUMPDEST DUP1 PUSH2 0x1324 JUMPI POP PUSH1 0x8 DUP3 EQ JUMPDEST DUP1 PUSH2 0x132F JUMPI POP PUSH1 0xA DUP3 EQ JUMPDEST DUP1 PUSH2 0x133A JUMPI POP PUSH1 0xC DUP3 EQ JUMPDEST ISZERO PUSH2 0x1348 JUMPI PUSH1 0x1F SWAP1 POP PUSH2 0x1377 JUMP JUMPDEST PUSH1 0x2 DUP3 EQ PUSH2 0x1359 JUMPI PUSH1 0x1E SWAP1 POP PUSH2 0x1376 JUMP JUMPDEST PUSH2 0x1362 DUP4 PUSH2 0x1AB3 JUMP JUMPDEST PUSH2 0x136D JUMPI PUSH1 0x1C PUSH2 0x1370 JUMP JUMPDEST PUSH1 0x1D JUMPDEST PUSH1 0xFF AND SWAP1 POP JUMPDEST JUMPDEST SWAP3 SWAP2 POP POP JUMP JUMPDEST PUSH1 0x0 DUP1 PUSH1 0x0 DUP1 PUSH2 0x139A PUSH3 0x15180 DUP8 PUSH2 0x1395 SWAP2 SWAP1 PUSH2 0x2009 JUMP JUMPDEST PUSH2 0x17A9 JUMP JUMPDEST SWAP3 POP SWAP3 POP SWAP3 POP DUP5 DUP3 PUSH2 0x13AC SWAP2 SWAP1 PUSH2 0x21A3 JUMP JUMPDEST SWAP2 POP PUSH1 0xC PUSH1 0x1 DUP4 PUSH2 0x13BD SWAP2 SWAP1 PUSH2 0x1FA6 JUMP JUMPDEST PUSH2 0x13C7 SWAP2 SWAP1 PUSH2 0x2009 JUMP JUMPDEST DUP4 PUSH2 0x13D2 SWAP2 SWAP1 PUSH2 0x21A3 JUMP JUMPDEST SWAP3 POP PUSH1 0x1 PUSH1 0xC PUSH1 0x1 DUP5 PUSH2 0x13E5 SWAP2 SWAP1 PUSH2 0x1FA6 JUMP JUMPDEST PUSH2 0x13EF SWAP2 SWAP1 PUSH2 0x21D7 JUMP JUMPDEST PUSH2 0x13F9 SWAP2 SWAP1 PUSH2 0x21A3 JUMP JUMPDEST SWAP2 POP PUSH1 0x0 PUSH2 0x1407 DUP5 DUP5 PUSH2 0x12F2 JUMP JUMPDEST SWAP1 POP DUP1 DUP3 GT ISZERO PUSH2 0x1415 JUMPI DUP1 SWAP2 POP JUMPDEST PUSH3 0x15180 DUP8 PUSH2 0x1424 SWAP2 SWAP1 PUSH2 0x21D7 JUMP JUMPDEST PUSH3 0x15180 PUSH2 0x1433 DUP7 DUP7 DUP7 PUSH2 0x1091 JUMP JUMPDEST PUSH2 0x143D SWAP2 SWAP1 PUSH2 0x1F64 JUMP JUMPDEST PUSH2 0x1447 SWAP2 SWAP1 PUSH2 0x21A3 JUMP JUMPDEST SWAP5 POP DUP7 DUP6 LT ISZERO PUSH2 0x1456 JUMPI PUSH1 0x0 DUP1 REVERT JUMPDEST POP POP POP POP SWAP3 SWAP2 POP POP JUMP JUMPDEST PUSH1 0x0 PUSH1 0x6 PUSH2 0x146D DUP4 PUSH2 0x1214 JUMP JUMPDEST LT ISZERO SWAP1 POP SWAP2 SWAP1 POP JUMP JUMPDEST PUSH1 0x0 DUP1 PUSH1 0x0 DUP1 PUSH2 0x1493 PUSH3 0x15180 DUP8 PUSH2 0x148E SWAP2 SWAP1 PUSH2 0x2009 JUMP JUMPDEST PUSH2 0x17A9 JUMP JUMPDEST SWAP3 POP SWAP3 POP SWAP3 POP DUP5 DUP4 PUSH2 0x14A5 SWAP2 SWAP1 PUSH2 0x21A3 JUMP JUMPDEST SWAP3 POP PUSH1 0x0 PUSH2 0x14B3 DUP5 DUP5 PUSH2 0x12F2 JUMP JUMPDEST SWAP1 POP DUP1 DUP3 GT ISZERO PUSH2 0x14C1 JUMPI DUP1 SWAP2 POP JUMPDEST PUSH3 0x15180 DUP8 PUSH2 0x14D0 SWAP2 SWAP1 PUSH2 0x21D7 JUMP JUMPDEST PUSH3 0x15180 PUSH2 0x14DF DUP7 DUP7 DUP7 PUSH2 0x1091 JUMP JUMPDEST PUSH2 0x14E9 SWAP2 SWAP1 PUSH2 0x1F64 JUMP JUMPDEST PUSH2 0x14F3 SWAP2 SWAP1 PUSH2 0x21A3 JUMP JUMPDEST SWAP5 POP DUP7 DUP6 LT ISZERO PUSH2 0x1502 JUMPI PUSH1 0x0 DUP1 REVERT JUMPDEST POP POP POP POP SWAP3 SWAP2 POP POP JUMP JUMPDEST PUSH1 0x0 DUP1 PUSH1 0x0 DUP1 PUSH2 0x1529 PUSH3 0x15180 DUP8 PUSH2 0x1524 SWAP2 SWAP1 PUSH2 0x2009 JUMP JUMPDEST PUSH2 0x17A9 JUMP JUMPDEST SWAP3 POP SWAP3 POP SWAP3 POP DUP5 DUP4 PUSH2 0x153B SWAP2 SWAP1 PUSH2 0x1FA6 JUMP JUMPDEST SWAP3 POP PUSH1 0x0 PUSH2 0x1549 DUP5 DUP5 PUSH2 0x12F2 JUMP JUMPDEST SWAP1 POP DUP1 DUP3 GT ISZERO PUSH2 0x1557 JUMPI DUP1 SWAP2 POP JUMPDEST PUSH3 0x15180 DUP8 PUSH2 0x1566 SWAP2 SWAP1 PUSH2 0x21D7 JUMP JUMPDEST PUSH3 0x15180 PUSH2 0x1575 DUP7 DUP7 DUP7 PUSH2 0x1091 JUMP JUMPDEST PUSH2 0x157F SWAP2 SWAP1 PUSH2 0x1F64 JUMP JUMPDEST PUSH2 0x1589 SWAP2 SWAP1 PUSH2 0x21A3 JUMP JUMPDEST SWAP5 POP DUP7 DUP6 GT ISZERO PUSH2 0x1598 JUMPI PUSH1 0x0 DUP1 REVERT JUMPDEST POP POP POP POP SWAP3 SWAP2 POP POP JUMP JUMPDEST PUSH1 0x0 PUSH2 0xE10 DUP3 PUSH2 0x15B2 SWAP2 SWAP1 PUSH2 0x1F64 JUMP JUMPDEST DUP4 PUSH2 0x15BD SWAP2 SWAP1 PUSH2 0x21A3 JUMP JUMPDEST SWAP1 POP DUP3 DUP2 LT ISZERO PUSH2 0x15CC JUMPI PUSH1 0x0 DUP1 REVERT JUMPDEST SWAP3 SWAP2 POP POP JUMP JUMPDEST PUSH1 0x0 DUP2 PUSH1 0x3C DUP5 PUSH2 0x15E2 SWAP2 SWAP1 PUSH2 0x1F64 JUMP JUMPDEST PUSH2 0xE10 DUP7 PUSH2 0x15F0 SWAP2 SWAP1 PUSH2 0x1F64 JUMP JUMPDEST PUSH3 0x15180 PUSH2 0x15FF DUP12 DUP12 DUP12 PUSH2 0x1091 JUMP JUMPDEST PUSH2 0x1609 SWAP2 SWAP1 PUSH2 0x1F64 JUMP JUMPDEST PUSH2 0x1613 SWAP2 SWAP1 PUSH2 0x21A3 JUMP JUMPDEST PUSH2 0x161D SWAP2 SWAP1 PUSH2 0x21A3 JUMP JUMPDEST PUSH2 0x1627 SWAP2 SWAP1 PUSH2 0x21A3 JUMP JUMPDEST SWAP1 POP SWAP7 SWAP6 POP POP POP POP POP POP JUMP JUMPDEST PUSH1 0x0 DUP2 DUP4 GT ISZERO PUSH2 0x1642 JUMPI PUSH1 0x0 DUP1 REVERT JUMPDEST DUP3 DUP3 PUSH2 0x164E SWAP2 SWAP1 PUSH2 0x1FA6 JUMP JUMPDEST SWAP1 POP SWAP3 SWAP2 POP POP JUMP JUMPDEST PUSH1 0x0 PUSH2 0x166F PUSH3 0x15180 DUP4 PUSH2 0x166A SWAP2 SWAP1 PUSH2 0x2009 JUMP JUMPDEST PUSH2 0x17A9 JUMP JUMPDEST SWAP1 SWAP2 POP SWAP1 POP DUP1 SWAP2 POP POP SWAP2 SWAP1 POP JUMP JUMPDEST PUSH1 0x0 PUSH3 0x15180 DUP3 PUSH2 0x168E SWAP2 SWAP1 PUSH2 0x1F64 JUMP JUMPDEST DUP4 PUSH2 0x1699 SWAP2 SWAP1 PUSH2 0x21A3 JUMP JUMPDEST SWAP1 POP DUP3 DUP2 LT ISZERO PUSH2 0x16A8 JUMPI PUSH1 0x0 DUP1 REVERT JUMPDEST SWAP3 SWAP2 POP POP JUMP JUMPDEST PUSH1 0x0 DUP2 DUP4 GT ISZERO PUSH2 0x16BD JUMPI PUSH1 0x0 DUP1 REVERT JUMPDEST PUSH1 0x0 DUP1 PUSH2 0x16D7 PUSH3 0x15180 DUP7 PUSH2 0x16D2 SWAP2 SWAP1 PUSH2 0x2009 JUMP JUMPDEST PUSH2 0x17A9 JUMP JUMPDEST POP SWAP2 POP SWAP2 POP PUSH1 0x0 DUP1 PUSH2 0x16F6 PUSH3 0x15180 DUP8 PUSH2 0x16F1 SWAP2 SWAP1 PUSH2 0x2009 JUMP JUMPDEST PUSH2 0x17A9 JUMP JUMPDEST POP SWAP2 POP SWAP2 POP DUP3 PUSH1 0xC DUP6 PUSH2 0x1709 SWAP2 SWAP1 PUSH2 0x1F64 JUMP JUMPDEST DUP3 PUSH1 0xC DUP6 PUSH2 0x1717 SWAP2 SWAP1 PUSH2 0x1F64 JUMP JUMPDEST PUSH2 0x1721 SWAP2 SWAP1 PUSH2 0x21A3 JUMP JUMPDEST PUSH2 0x172B SWAP2 SWAP1 PUSH2 0x1FA6 JUMP JUMPDEST PUSH2 0x1735 SWAP2 SWAP1 PUSH2 0x1FA6 JUMP JUMPDEST SWAP5 POP POP POP POP POP SWAP3 SWAP2 POP POP JUMP JUMPDEST PUSH1 0x0 PUSH1 0x3C DUP3 PUSH2 0x1750 SWAP2 SWAP1 PUSH2 0x1F64 JUMP JUMPDEST DUP4 PUSH2 0x175B SWAP2 SWAP1 PUSH2 0x21A3 JUMP JUMPDEST SWAP1 POP DUP3 DUP2 LT ISZERO PUSH2 0x176A JUMPI PUSH1 0x0 DUP1 REVERT JUMPDEST SWAP3 SWAP2 POP POP JUMP JUMPDEST PUSH1 0x0 PUSH1 0x3C DUP3 PUSH2 0x177F SWAP2 SWAP1 PUSH2 0x21D7 JUMP JUMPDEST SWAP1 POP SWAP2 SWAP1 POP JUMP JUMPDEST PUSH1 0x0 DUP2 DUP4 PUSH2 0x1794 SWAP2 SWAP1 PUSH2 0x21A3 JUMP JUMPDEST SWAP1 POP DUP3 DUP2 LT ISZERO PUSH2 0x17A3 JUMPI PUSH1 0x0 DUP1 REVERT JUMPDEST SWAP3 SWAP2 POP POP JUMP JUMPDEST PUSH1 0x0 DUP1 PUSH1 0x0 DUP1 DUP5 SWAP1 POP PUSH1 0x0 PUSH3 0x253D8C PUSH3 0x10BD9 DUP4 ADD ADD SWAP1 POP PUSH1 0x0 PUSH3 0x23AB1 DUP3 PUSH1 0x4 MUL DUP2 PUSH2 0x17D9 JUMPI PUSH2 0x17D8 PUSH2 0x1FDA JUMP JUMPDEST JUMPDEST SDIV SWAP1 POP PUSH1 0x4 PUSH1 0x3 DUP3 PUSH3 0x23AB1 MUL ADD DUP2 PUSH2 0x17F5 JUMPI PUSH2 0x17F4 PUSH2 0x1FDA JUMP JUMPDEST JUMPDEST SDIV DUP3 SUB SWAP2 POP PUSH1 0x0 PUSH3 0x164B09 PUSH1 0x1 DUP5 ADD PUSH2 0xFA0 MUL DUP2 PUSH2 0x1816 JUMPI PUSH2 0x1815 PUSH2 0x1FDA JUMP JUMPDEST JUMPDEST SDIV SWAP1 POP PUSH1 0x1F PUSH1 0x4 DUP3 PUSH2 0x5B5 MUL DUP2 PUSH2 0x1830 JUMPI PUSH2 0x182F PUSH2 0x1FDA JUMP JUMPDEST JUMPDEST SDIV DUP5 SUB ADD SWAP3 POP PUSH1 0x0 PUSH2 0x98F DUP5 PUSH1 0x50 MUL DUP2 PUSH2 0x184D JUMPI PUSH2 0x184C PUSH2 0x1FDA JUMP JUMPDEST JUMPDEST SDIV SWAP1 POP PUSH1 0x0 PUSH1 0x50 DUP3 PUSH2 0x98F MUL DUP2 PUSH2 0x1867 JUMPI PUSH2 0x1866 PUSH2 0x1FDA JUMP JUMPDEST JUMPDEST SDIV DUP6 SUB SWAP1 POP PUSH1 0xB DUP3 DUP2 PUSH2 0x187D JUMPI PUSH2 0x187C PUSH2 0x1FDA JUMP JUMPDEST JUMPDEST SDIV SWAP5 POP DUP5 PUSH1 0xC MUL PUSH1 0x2 DUP4 ADD SUB SWAP2 POP DUP5 DUP4 PUSH1 0x31 DUP7 SUB PUSH1 0x64 MUL ADD ADD SWAP3 POP DUP3 SWAP9 POP DUP2 SWAP8 POP DUP1 SWAP7 POP POP POP POP POP POP POP SWAP2 SWAP4 SWAP1 SWAP3 POP JUMP JUMPDEST PUSH1 0x0 DUP1 PUSH1 0x0 DUP1 PUSH1 0x0 DUP1 PUSH2 0x18D3 PUSH3 0x15180 DUP9 DUP2 PUSH2 0x18CD JUMPI PUSH2 0x18CC PUSH2 0x1FDA JUMP JUMPDEST JUMPDEST DIV PUSH2 0x17A9 JUMP JUMPDEST DUP1 SWAP7 POP DUP2 SWAP8 POP DUP3 SWAP9 POP POP POP POP PUSH1 0x0 PUSH3 0x15180 DUP9 DUP2 PUSH2 0x18F4 JUMPI PUSH2 0x18F3 PUSH2 0x1FDA JUMP JUMPDEST JUMPDEST MOD SWAP1 POP PUSH2 0xE10 DUP2 DUP2 PUSH2 0x1909 JUMPI PUSH2 0x1908 PUSH2 0x1FDA JUMP JUMPDEST JUMPDEST DIV SWAP4 POP PUSH2 0xE10 DUP2 DUP2 PUSH2 0x191E JUMPI PUSH2 0x191D PUSH2 0x1FDA JUMP JUMPDEST JUMPDEST MOD SWAP1 POP PUSH1 0x3C DUP2 DUP2 PUSH2 0x1932 JUMPI PUSH2 0x1931 PUSH2 0x1FDA JUMP JUMPDEST JUMPDEST DIV SWAP3 POP PUSH1 0x3C DUP2 DUP2 PUSH2 0x1946 JUMPI PUSH2 0x1945 PUSH2 0x1FDA JUMP JUMPDEST JUMPDEST MOD SWAP2 POP POP SWAP2 SWAP4 SWAP6 POP SWAP2 SWAP4 SWAP6 JUMP JUMPDEST PUSH1 0x0 PUSH2 0x196C PUSH3 0x15180 DUP4 PUSH2 0x1967 SWAP2 SWAP1 PUSH2 0x2009 JUMP JUMPDEST PUSH2 0x17A9 JUMP JUMPDEST SWAP1 POP POP DUP1 SWAP2 POP POP SWAP2 SWAP1 POP JUMP JUMPDEST PUSH1 0x0 PUSH1 0x3C DUP3 PUSH2 0x1987 SWAP2 SWAP1 PUSH2 0x1F64 JUMP JUMPDEST DUP4 PUSH2 0x1992 SWAP2 SWAP1 PUSH2 0x1FA6 JUMP JUMPDEST SWAP1 POP DUP3 DUP2 GT ISZERO PUSH2 0x19A1 JUMPI PUSH1 0x0 DUP1 REVERT JUMPDEST SWAP3 SWAP2 POP POP JUMP JUMPDEST PUSH1 0x0 PUSH2 0x19C0 PUSH3 0x15180 DUP4 PUSH2 0x19BB SWAP2 SWAP1 PUSH2 0x2009 JUMP JUMPDEST PUSH2 0x17A9 JUMP JUMPDEST SWAP1 SWAP2 POP POP DUP1 SWAP2 POP POP SWAP2 SWAP1 POP JUMP JUMPDEST PUSH1 0x0 DUP1 PUSH1 0x0 DUP1 PUSH2 0x19EA PUSH3 0x15180 DUP8 PUSH2 0x19E5 SWAP2 SWAP1 PUSH2 0x2009 JUMP JUMPDEST PUSH2 0x17A9 JUMP JUMPDEST SWAP3 POP SWAP3 POP SWAP3 POP PUSH1 0x0 DUP6 PUSH1 0x1 DUP5 PUSH2 0x1A00 SWAP2 SWAP1 PUSH2 0x1FA6 JUMP JUMPDEST PUSH1 0xC DUP7 PUSH2 0x1A0D SWAP2 SWAP1 PUSH2 0x1F64 JUMP JUMPDEST PUSH2 0x1A17 SWAP2 SWAP1 PUSH2 0x21A3 JUMP JUMPDEST PUSH2 0x1A21 SWAP2 SWAP1 PUSH2 0x1FA6 JUMP JUMPDEST SWAP1 POP PUSH1 0xC DUP2 PUSH2 0x1A30 SWAP2 SWAP1 PUSH2 0x2009 JUMP JUMPDEST SWAP4 POP PUSH1 0x1 PUSH1 0xC DUP3 PUSH2 0x1A41 SWAP2 SWAP1 PUSH2 0x21D7 JUMP JUMPDEST PUSH2 0x1A4B SWAP2 SWAP1 PUSH2 0x21A3 JUMP JUMPDEST SWAP3 POP PUSH1 0x0 PUSH2 0x1A59 DUP6 DUP6 PUSH2 0x12F2 JUMP JUMPDEST SWAP1 POP DUP1 DUP4 GT ISZERO PUSH2 0x1A67 JUMPI DUP1 SWAP3 POP JUMPDEST PUSH3 0x15180 DUP9 PUSH2 0x1A76 SWAP2 SWAP1 PUSH2 0x21D7 JUMP JUMPDEST PUSH3 0x15180 PUSH2 0x1A85 DUP8 DUP8 DUP8 PUSH2 0x1091 JUMP JUMPDEST PUSH2 0x1A8F SWAP2 SWAP1 PUSH2 0x1F64 JUMP JUMPDEST PUSH2 0x1A99 SWAP2 SWAP1 PUSH2 0x21A3 JUMP JUMPDEST SWAP6 POP DUP8 DUP7 GT ISZERO PUSH2 0x1AA8 JUMPI PUSH1 0x0 DUP1 REVERT JUMPDEST POP POP POP POP POP SWAP3 SWAP2 POP POP JUMP JUMPDEST PUSH1 0x0 DUP1 PUSH1 0x4 DUP4 PUSH2 0x1AC3 SWAP2 SWAP1 PUSH2 0x21D7 JUMP JUMPDEST EQ DUP1 ISZERO PUSH2 0x1ADD JUMPI POP PUSH1 0x0 PUSH1 0x64 DUP4 PUSH2 0x1ADA SWAP2 SWAP1 PUSH2 0x21D7 JUMP JUMPDEST EQ ISZERO JUMPDEST DUP1 PUSH2 0x1AF5 JUMPI POP PUSH1 0x0 PUSH2 0x190 DUP4 PUSH2 0x1AF3 SWAP2 SWAP1 PUSH2 0x21D7 JUMP JUMPDEST EQ JUMPDEST SWAP1 POP SWAP2 SWAP1 POP JUMP JUMPDEST PUSH1 0x0 DUP1 PUSH2 0x1B16 PUSH3 0x15180 DUP5 PUSH2 0x1B11 SWAP2 SWAP1 PUSH2 0x2009 JUMP JUMPDEST PUSH2 0x17A9 JUMP JUMPDEST POP POP SWAP1 POP PUSH2 0x1B23 DUP2 PUSH2 0x1AB3 JUMP JUMPDEST SWAP2 POP POP SWAP2 SWAP1 POP JUMP JUMPDEST PUSH1 0x0 PUSH3 0x15180 DUP3 PUSH2 0x1B3C SWAP2 SWAP1 PUSH2 0x1F64 JUMP JUMPDEST DUP4 PUSH2 0x1B47 SWAP2 SWAP1 PUSH2 0x1FA6 JUMP JUMPDEST SWAP1 POP DUP3 DUP2 GT ISZERO PUSH2 0x1B56 JUMPI PUSH1 0x0 DUP1 REVERT JUMPDEST SWAP3 SWAP2 POP POP JUMP JUMPDEST PUSH1 0x0 DUP2 DUP4 GT ISZERO PUSH2 0x1B6B JUMPI PUSH1 0x0 DUP1 REVERT JUMPDEST PUSH3 0x15180 DUP4 DUP4 PUSH2 0x1B7B SWAP2 SWAP1 PUSH2 0x1FA6 JUMP JUMPDEST PUSH2 0x1B85 SWAP2 SWAP1 PUSH2 0x2009 JUMP JUMPDEST SWAP1 POP SWAP3 SWAP2 POP POP JUMP JUMPDEST PUSH1 0x0 PUSH1 0x5 PUSH2 0x1B9A DUP4 PUSH2 0x1214 JUMP JUMPDEST GT ISZERO SWAP1 POP SWAP2 SWAP1 POP JUMP JUMPDEST PUSH1 0x0 DUP1 PUSH1 0x0 PUSH2 0x1BC4 PUSH3 0x15180 DUP6 DUP2 PUSH2 0x1BBE JUMPI PUSH2 0x1BBD PUSH2 0x1FDA JUMP JUMPDEST JUMPDEST DIV PUSH2 0x17A9 JUMP JUMPDEST DUP1 SWAP4 POP DUP2 SWAP5 POP DUP3 SWAP6 POP POP POP POP SWAP2 SWAP4 SWAP1 SWAP3 POP JUMP JUMPDEST PUSH1 0x0 DUP2 DUP4 PUSH2 0x1BE5 SWAP2 SWAP1 PUSH2 0x1FA6 JUMP JUMPDEST SWAP1 POP DUP3 DUP2 GT ISZERO PUSH2 0x1BF4 JUMPI PUSH1 0x0 DUP1 REVERT JUMPDEST SWAP3 SWAP2 POP POP JUMP JUMPDEST PUSH1 0x0 DUP1 PUSH2 0xE10 DUP4 PUSH2 0x1C0B SWAP2 SWAP1 PUSH2 0x21D7 JUMP JUMPDEST SWAP1 POP PUSH1 0x3C DUP2 PUSH2 0x1C1A SWAP2 SWAP1 PUSH2 0x2009 JUMP JUMPDEST SWAP2 POP POP SWAP2 SWAP1 POP JUMP JUMPDEST PUSH1 0x0 DUP2 DUP4 GT ISZERO PUSH2 0x1C31 JUMPI PUSH1 0x0 DUP1 REVERT JUMPDEST PUSH1 0x0 PUSH2 0x1C4A PUSH3 0x15180 DUP6 PUSH2 0x1C45 SWAP2 SWAP1 PUSH2 0x2009 JUMP JUMPDEST PUSH2 0x17A9 JUMP JUMPDEST POP POP SWAP1 POP PUSH1 0x0 PUSH2 0x1C67 PUSH3 0x15180 DUP6 PUSH2 0x1C62 SWAP2 SWAP1 PUSH2 0x2009 JUMP JUMPDEST PUSH2 0x17A9 JUMP JUMPDEST POP POP SWAP1 POP DUP2 DUP2 PUSH2 0x1C77 SWAP2 SWAP1 PUSH2 0x1FA6 JUMP JUMPDEST SWAP3 POP POP POP SWAP3 SWAP2 POP POP JUMP JUMPDEST PUSH1 0x0 DUP1 REVERT JUMPDEST PUSH1 0x0 DUP2 SWAP1 POP SWAP2 SWAP1 POP JUMP JUMPDEST PUSH2 0x1C99 DUP2 PUSH2 0x1C86 JUMP JUMPDEST DUP2 EQ PUSH2 0x1CA4 JUMPI PUSH1 0x0 DUP1 REVERT JUMPDEST POP JUMP JUMPDEST PUSH1 0x0 DUP2 CALLDATALOAD SWAP1 POP PUSH2 0x1CB6 DUP2 PUSH2 0x1C90 JUMP JUMPDEST SWAP3 SWAP2 POP POP JUMP JUMPDEST PUSH1 0x0 DUP1 PUSH1 0x40 DUP4 DUP6 SUB SLT ISZERO PUSH2 0x1CD3 JUMPI PUSH2 0x1CD2 PUSH2 0x1C81 JUMP JUMPDEST JUMPDEST PUSH1 0x0 PUSH2 0x1CE1 DUP6 DUP3 DUP7 ADD PUSH2 0x1CA7 JUMP JUMPDEST SWAP3 POP POP PUSH1 0x20 PUSH2 0x1CF2 DUP6 DUP3 DUP7 ADD PUSH2 0x1CA7 JUMP JUMPDEST SWAP2 POP POP SWAP3 POP SWAP3 SWAP1 POP JUMP JUMPDEST PUSH2 0x1D05 DUP2 PUSH2 0x1C86 JUMP JUMPDEST DUP3 MSTORE POP POP JUMP JUMPDEST PUSH1 0x0 PUSH1 0x20 DUP3 ADD SWAP1 POP PUSH2 0x1D20 PUSH1 0x0 DUP4 ADD DUP5 PUSH2 0x1CFC JUMP JUMPDEST SWAP3 SWAP2 POP POP JUMP JUMPDEST PUSH1 0x0 PUSH1 0x20 DUP3 DUP5 SUB SLT ISZERO PUSH2 0x1D3C JUMPI PUSH2 0x1D3B PUSH2 0x1C81 JUMP JUMPDEST JUMPDEST PUSH1 0x0 PUSH2 0x1D4A DUP5 DUP3 DUP6 ADD PUSH2 0x1CA7 JUMP JUMPDEST SWAP2 POP POP SWAP3 SWAP2 POP POP JUMP JUMPDEST PUSH1 0x0 DUP1 PUSH1 0x0 PUSH1 0x60 DUP5 DUP7 SUB SLT ISZERO PUSH2 0x1D6C JUMPI PUSH2 0x1D6B PUSH2 0x1C81 JUMP JUMPDEST JUMPDEST PUSH1 0x0 PUSH2 0x1D7A DUP7 DUP3 DUP8 ADD PUSH2 0x1CA7 JUMP JUMPDEST SWAP4 POP POP PUSH1 0x20 PUSH2 0x1D8B DUP7 DUP3 DUP8 ADD PUSH2 0x1CA7 JUMP JUMPDEST SWAP3 POP POP PUSH1 0x40 PUSH2 0x1D9C DUP7 DUP3 DUP8 ADD PUSH2 0x1CA7 JUMP JUMPDEST SWAP2 POP POP SWAP3 POP SWAP3 POP SWAP3 JUMP JUMPDEST PUSH1 0x0 DUP2 ISZERO ISZERO SWAP1 POP SWAP2 SWAP1 POP JUMP JUMPDEST PUSH2 0x1DBB DUP2 PUSH2 0x1DA6 JUMP JUMPDEST DUP3 MSTORE POP POP JUMP JUMPDEST PUSH1 0x0 PUSH1 0x20 DUP3 ADD SWAP1 POP PUSH2 0x1DD6 PUSH1 0x0 DUP4 ADD DUP5 PUSH2 0x1DB2 JUMP JUMPDEST SWAP3 SWAP2 POP POP JUMP JUMPDEST PUSH1 0x0 DUP1 PUSH1 0x0 DUP1 PUSH1 0x0 DUP1 PUSH1 0xC0 DUP8 DUP10 SUB SLT ISZERO PUSH2 0x1DF9 JUMPI PUSH2 0x1DF8 PUSH2 0x1C81 JUMP JUMPDEST JUMPDEST PUSH1 0x0 PUSH2 0x1E07 DUP10 DUP3 DUP11 ADD PUSH2 0x1CA7 JUMP JUMPDEST SWAP7 POP POP PUSH1 0x20 PUSH2 0x1E18 DUP10 DUP3 DUP11 ADD PUSH2 0x1CA7 JUMP JUMPDEST SWAP6 POP POP PUSH1 0x40 PUSH2 0x1E29 DUP10 DUP3 DUP11 ADD PUSH2 0x1CA7 JUMP JUMPDEST SWAP5 POP POP PUSH1 0x60 PUSH2 0x1E3A DUP10 DUP3 DUP11 ADD PUSH2 0x1CA7 JUMP JUMPDEST SWAP4 POP POP PUSH1 0x80 PUSH2 0x1E4B DUP10 DUP3 DUP11 ADD PUSH2 0x1CA7 JUMP JUMPDEST SWAP3 POP POP PUSH1 0xA0 PUSH2 0x1E5C DUP10 DUP3 DUP11 ADD PUSH2 0x1CA7 JUMP JUMPDEST SWAP2 POP POP SWAP3 SWAP6 POP SWAP3 SWAP6 POP SWAP3 SWAP6 JUMP JUMPDEST PUSH1 0x0 PUSH1 0x60 DUP3 ADD SWAP1 POP PUSH2 0x1E7E PUSH1 0x0 DUP4 ADD DUP7 PUSH2 0x1CFC JUMP JUMPDEST PUSH2 0x1E8B PUSH1 0x20 DUP4 ADD DUP6 PUSH2 0x1CFC JUMP JUMPDEST PUSH2 0x1E98 PUSH1 0x40 DUP4 ADD DUP5 PUSH2 0x1CFC JUMP JUMPDEST SWAP5 SWAP4 POP POP POP POP JUMP JUMPDEST PUSH1 0x0 PUSH1 0xC0 DUP3 ADD SWAP1 POP PUSH2 0x1EB5 PUSH1 0x0 DUP4 ADD DUP10 PUSH2 0x1CFC JUMP JUMPDEST PUSH2 0x1EC2 PUSH1 0x20 DUP4 ADD DUP9 PUSH2 0x1CFC JUMP JUMPDEST PUSH2 0x1ECF PUSH1 0x40 DUP4 ADD DUP8 PUSH2 0x1CFC JUMP JUMPDEST PUSH2 0x1EDC PUSH1 0x60 DUP4 ADD DUP7 PUSH2 0x1CFC JUMP JUMPDEST PUSH2 0x1EE9 PUSH1 0x80 DUP4 ADD DUP6 PUSH2 0x1CFC JUMP JUMPDEST PUSH2 0x1EF6 PUSH1 0xA0 DUP4 ADD DUP5 PUSH2 0x1CFC JUMP JUMPDEST SWAP8 SWAP7 POP POP POP POP POP POP POP JUMP JUMPDEST PUSH1 0x0 DUP2 SWAP1 POP SWAP2 SWAP1 POP JUMP JUMPDEST PUSH2 0x1F14 DUP2 PUSH2 0x1F01 JUMP JUMPDEST DUP3 MSTORE POP POP JUMP JUMPDEST PUSH1 0x0 PUSH1 0x20 DUP3 ADD SWAP1 POP PUSH2 0x1F2F PUSH1 0x0 DUP4 ADD DUP5 PUSH2 0x1F0B JUMP JUMPDEST SWAP3 SWAP2 POP POP JUMP JUMPDEST PUSH32 0x4E487B7100000000000000000000000000000000000000000000000000000000 PUSH1 0x0 MSTORE PUSH1 0x11 PUSH1 0x4 MSTORE PUSH1 0x24 PUSH1 0x0 REVERT JUMPDEST PUSH1 0x0 PUSH2 0x1F6F DUP3 PUSH2 0x1C86 JUMP JUMPDEST SWAP2 POP PUSH2 0x1F7A DUP4 PUSH2 0x1C86 JUMP JUMPDEST SWAP3 POP DUP3 DUP3 MUL PUSH2 0x1F88 DUP2 PUSH2 0x1C86 JUMP JUMPDEST SWAP2 POP DUP3 DUP3 DIV DUP5 EQ DUP4 ISZERO OR PUSH2 0x1F9F JUMPI PUSH2 0x1F9E PUSH2 0x1F35 JUMP JUMPDEST JUMPDEST POP SWAP3 SWAP2 POP POP JUMP JUMPDEST PUSH1 0x0 PUSH2 0x1FB1 DUP3 PUSH2 0x1C86 JUMP JUMPDEST SWAP2 POP PUSH2 0x1FBC DUP4 PUSH2 0x1C86 JUMP JUMPDEST SWAP3 POP DUP3 DUP3 SUB SWAP1 POP DUP2 DUP2 GT ISZERO PUSH2 0x1FD4 JUMPI PUSH2 0x1FD3 PUSH2 0x1F35 JUMP JUMPDEST JUMPDEST SWAP3 SWAP2 POP POP JUMP JUMPDEST PUSH32 0x4E487B7100000000000000000000000000000000000000000000000000000000 PUSH1 0x0 MSTORE PUSH1 0x12 PUSH1 0x4 MSTORE PUSH1 0x24 PUSH1 0x0 REVERT JUMPDEST PUSH1 0x0 PUSH2 0x2014 DUP3 PUSH2 0x1C86 JUMP JUMPDEST SWAP2 POP PUSH2 0x201F DUP4 PUSH2 0x1C86 JUMP JUMPDEST SWAP3 POP DUP3 PUSH2 0x202F JUMPI PUSH2 0x202E PUSH2 0x1FDA JUMP JUMPDEST JUMPDEST DUP3 DUP3 DIV SWAP1 POP SWAP3 SWAP2 POP POP JUMP JUMPDEST PUSH1 0x0 PUSH2 0x2045 DUP3 PUSH2 0x1F01 JUMP JUMPDEST SWAP2 POP PUSH2 0x2050 DUP4 PUSH2 0x1F01 JUMP JUMPDEST SWAP3 POP DUP3 DUP3 SUB SWAP1 POP DUP2 DUP2 SLT PUSH1 0x0 DUP5 SLT AND DUP3 DUP3 SGT PUSH1 0x0 DUP6 SLT ISZERO AND OR ISZERO PUSH2 0x2077 JUMPI PUSH2 0x2076 PUSH2 0x1F35 JUMP JUMPDEST JUMPDEST SWAP3 SWAP2 POP POP JUMP JUMPDEST PUSH1 0x0 PUSH2 0x2088 DUP3 PUSH2 0x1F01 JUMP JUMPDEST SWAP2 POP PUSH2 0x2093 DUP4 PUSH2 0x1F01 JUMP JUMPDEST SWAP3 POP DUP3 PUSH2 0x20A3 JUMPI PUSH2 0x20A2 PUSH2 0x1FDA JUMP JUMPDEST JUMPDEST PUSH1 0x1 PUSH1 0x0 SUB DUP4 EQ PUSH32 0x8000000000000000000000000000000000000000000000000000000000000000 DUP4 EQ AND ISZERO PUSH2 0x20DC JUMPI PUSH2 0x20DB PUSH2 0x1F35 JUMP JUMPDEST JUMPDEST DUP3 DUP3 SDIV SWAP1 POP SWAP3 SWAP2 POP POP JUMP JUMPDEST PUSH1 0x0 PUSH2 0x20F2 DUP3 PUSH2 0x1F01 JUMP JUMPDEST SWAP2 POP PUSH2 0x20FD DUP4 PUSH2 0x1F01 JUMP JUMPDEST SWAP3 POP DUP3 DUP3 ADD SWAP1 POP DUP3 DUP2 SLT ISZERO PUSH1 0x0 DUP4 SLT AND DUP4 DUP3 SLT PUSH1 0x0 DUP5 SLT ISZERO AND OR ISZERO PUSH2 0x2125 JUMPI PUSH2 0x2124 PUSH2 0x1F35 JUMP JUMPDEST JUMPDEST SWAP3 SWAP2 POP POP JUMP JUMPDEST PUSH1 0x0 PUSH2 0x2136 DUP3 PUSH2 0x1F01 JUMP JUMPDEST SWAP2 POP PUSH2 0x2141 DUP4 PUSH2 0x1F01 JUMP JUMPDEST SWAP3 POP DUP3 DUP3 MUL PUSH2 0x214F DUP2 PUSH2 0x1F01 JUMP JUMPDEST SWAP2 POP PUSH32 0x8000000000000000000000000000000000000000000000000000000000000000 DUP5 EQ PUSH1 0x0 DUP5 SLT AND ISZERO PUSH2 0x2187 JUMPI PUSH2 0x2186 PUSH2 0x1F35 JUMP JUMPDEST JUMPDEST DUP3 DUP3 SDIV DUP5 EQ DUP4 ISZERO OR PUSH2 0x219C JUMPI PUSH2 0x219B PUSH2 0x1F35 JUMP JUMPDEST JUMPDEST POP SWAP3 SWAP2 POP POP JUMP JUMPDEST PUSH1 0x0 PUSH2 0x21AE DUP3 PUSH2 0x1C86 JUMP JUMPDEST SWAP2 POP PUSH2 0x21B9 DUP4 PUSH2 0x1C86 JUMP JUMPDEST SWAP3 POP DUP3 DUP3 ADD SWAP1 POP DUP1 DUP3 GT ISZERO PUSH2 0x21D1 JUMPI PUSH2 0x21D0 PUSH2 0x1F35 JUMP JUMPDEST JUMPDEST SWAP3 SWAP2 POP POP JUMP JUMPDEST PUSH1 0x0 PUSH2 0x21E2 DUP3 PUSH2 0x1C86 JUMP JUMPDEST SWAP2 POP PUSH2 0x21ED DUP4 PUSH2 0x1C86 JUMP JUMPDEST SWAP3 POP DUP3 PUSH2 0x21FD JUMPI PUSH2 0x21FC PUSH2 0x1FDA JUMP JUMPDEST JUMPDEST DUP3 DUP3 MOD SWAP1 POP SWAP3 SWAP2 POP POP JUMP INVALID LOG2 PUSH5 0x6970667358 0x22 SLT KECCAK256 PUSH3 0x5C4B4C 0xB2 MSTORE8 DUP13 0xE4 0x4D GT 0xE8 0xB5 0xB6 NOT PUSH6 0xE35A572017AC PUSH17 0x4DABD83B3CAE91A12EAC64736F6C634300 ADDMOD SLT STOP CALLER "
		},
		"gasEstimates": {
			"creation": {
				"codeDepositCost": "1753200",
				"executionCost": "1841",
				"totalCost": "1755041"
			},
			"external": {
				"DOW_FRI()": "462",
				"DOW_MON()": "417",
				"DOW_SAT()": "396",
				"DOW_SUN()": "442",
				"DOW_THU()": "440",
				"DOW_TUE()": "442",
				"DOW_WED()": "397",
				"OFFSET19700101()": "441",
				"SECONDS_PER_DAY()": "418",
				"SECONDS_PER_HOUR()": "485",
				"SECONDS_PER_MINUTE()": "418",
				"_daysFromDate(uint256,uint256,uint256)": "infinite",
				"_daysToDate(uint256)": "infinite",
				"_getDaysInMonth(uint256,uint256)": "infinite",
				"_isLeapYear(uint256)": "infinite",
				"_now()": "447",
				"_nowDateTime()": "infinite",
				"addDays(uint256,uint256)": "infinite",
				"addHours(uint256,uint256)": "infinite",
				"addMinutes(uint256,uint256)": "infinite",
				"addMonths(uint256,uint256)": "infinite",
				"addSeconds(uint256,uint256)": "infinite",
				"addYears(uint256,uint256)": "infinite",
				"diffDays(uint256,uint256)": "infinite",
				"diffHours(uint256,uint256)": "infinite",
				"diffMinutes(uint256,uint256)": "infinite",
				"diffMonths(uint256,uint256)": "infinite",
				"diffSeconds(uint256,uint256)": "infinite",
				"diffYears(uint256,uint256)": "infinite",
				"getDay(uint256)": "infinite",
				"getDayOfWeek(uint256)": "infinite",
				"getDaysInMonth(uint256)": "infinite",
				"getHour(uint256)": "infinite",
				"getMinute(uint256)": "infinite",
				"getMonth(uint256)": "infinite",
				"getSecond(uint256)": "infinite",
				"getYear(uint256)": "infinite",
				"isLeapYear(uint256)": "infinite",
				"isValidDate(uint256,uint256,uint256)": "infinite",
				"isValidDateTime(uint256,uint256,uint256,uint256,uint256,uint256)": "infinite",
				"isWeekDay(uint256)": "infinite",
				"isWeekEnd(uint256)": "infinite",
				"subDays(uint256,uint256)": "infinite",
				"subHours(uint256,uint256)": "infinite",
				"subMinutes(uint256,uint256)": "infinite",
				"subMonths(uint256,uint256)": "infinite",
				"subSeconds(uint256,uint256)": "infinite",
				"subYears(uint256,uint256)": "infinite",
				"timestampFromDate(uint256,uint256,uint256)": "infinite",
				"timestampFromDateTime(uint256,uint256,uint256,uint256,uint256,uint256)": "infinite",
				"timestampToDate(uint256)": "infinite",
				"timestampToDateTime(uint256)": "infinite"
			}
		},
		"methodIdentifiers": {
			"DOW_FRI()": "d2b50743",
			"DOW_MON()": "f9fd5250",
			"DOW_SAT()": "c7edf88c",
			"DOW_SUN()": "29441674",
			"DOW_THU()": "cfbb9f37",
			"DOW_TUE()": "126702a0",
			"DOW_WED()": "8bbf51b7",
			"OFFSET19700101()": "a3f144ae",
			"SECONDS_PER_DAY()": "74f0314f",
			"SECONDS_PER_HOUR()": "4df86126",
			"SECONDS_PER_MINUTE()": "e9556430",
			"_daysFromDate(uint256,uint256,uint256)": "1e0582e9",
			"_daysToDate(uint256)": "90059aed",
			"_getDaysInMonth(uint256,uint256)": "3f9e0eb7",
			"_isLeapYear(uint256)": "b05eb08d",
			"_now()": "b3bb8cd4",
			"_nowDateTime()": "9220d426",
			"addDays(uint256,uint256)": "7217523c",
			"addHours(uint256,uint256)": "4b321502",
			"addMinutes(uint256,uint256)": "89a3a00d",
			"addMonths(uint256,uint256)": "4355644d",
			"addSeconds(uint256,uint256)": "8d4a2d39",
			"addYears(uint256,uint256)": "442b8c79",
			"diffDays(uint256,uint256)": "c9d34622",
			"diffHours(uint256,uint256)": "2af123b8",
			"diffMinutes(uint256,uint256)": "02e98e0d",
			"diffMonths(uint256,uint256)": "7be34109",
			"diffSeconds(uint256,uint256)": "62fb9697",
			"diffYears(uint256,uint256)": "ff2258cb",
			"getDay(uint256)": "65c72840",
			"getDayOfWeek(uint256)": "22f8a2b8",
			"getDaysInMonth(uint256)": "10848ddf",
			"getHour(uint256)": "3e239e1a",
			"getMinute(uint256)": "fa93f883",
			"getMonth(uint256)": "a324ad24",
			"getSecond(uint256)": "8aa001fc",
			"getYear(uint256)": "92d66313",
			"isLeapYear(uint256)": "b8d16dbc",
			"isValidDate(uint256,uint256,uint256)": "14b2d6dc",
			"isValidDateTime(uint256,uint256,uint256,uint256,uint256,uint256)": "3293d007",
			"isWeekDay(uint256)": "d6582d0d",
			"isWeekEnd(uint256)": "4371c465",
			"subDays(uint256,uint256)": "c7b6fd6a",
			"subHours(uint256,uint256)": "00501553",
			"subMinutes(uint256,uint256)": "9e524caa",
			"subMonths(uint256,uint256)": "ad203bd4",
			"subSeconds(uint256,uint256)": "f615ed54",
			"subYears(uint256,uint256)": "444fda82",
			"timestampFromDate(uint256,uint256,uint256)": "1f4f77b2",
			"timestampFromDateTime(uint256,uint256,uint256,uint256,uint256,uint256)": "5e05bd6d",
			"timestampToDate(uint256)": "de5101af",
			"timestampToDateTime(uint256)": "ea1c1690"
		}
	},
	"abi": [
		{
			"inputs": [],
			"name": "DOW_FRI",
			"outputs": [
				{
					"internalType": "uint256",
					"name": "",
					"type": "uint256"
				}
			],
			"stateMutability": "view",
			"type": "function"
		},
		{
			"inputs": [],
			"name": "DOW_MON",
			"outputs": [
				{
					"internalType": "uint256",
					"name": "",
					"type": "uint256"
				}
			],
			"stateMutability": "view",
			"type": "function"
		},
		{
			"inputs": [],
			"name": "DOW_SAT",
			"outputs": [
				{
					"internalType": "uint256",
					"name": "",
					"type": "uint256"
				}
			],
			"stateMutability": "view",
			"type": "function"
		},
		{
			"inputs": [],
			"name": "DOW_SUN",
			"outputs": [
				{
					"internalType": "uint256",
					"name": "",
					"type": "uint256"
				}
			],
			"stateMutability": "view",
			"type": "function"
		},
		{
			"inputs": [],
			"name": "DOW_THU",
			"outputs": [
				{
					"internalType": "uint256",
					"name": "",
					"type": "uint256"
				}
			],
			"stateMutability": "view",
			"type": "function"
		},
		{
			"inputs": [],
			"name": "DOW_TUE",
			"outputs": [
				{
					"internalType": "uint256",
					"name": "",
					"type": "uint256"
				}
			],
			"stateMutability": "view",
			"type": "function"
		},
		{
			"inputs": [],
			"name": "DOW_WED",
			"outputs": [
				{
					"internalType": "uint256",
					"name": "",
					"type": "uint256"
				}
			],
			"stateMutability": "view",
			"type": "function"
		},
		{
			"inputs": [],
			"name": "OFFSET19700101",
			"outputs": [
				{
					"internalType": "int256",
					"name": "",
					"type": "int256"
				}
			],
			"stateMutability": "view",
			"type": "function"
		},
		{
			"inputs": [],
			"name": "SECONDS_PER_DAY",
			"outputs": [
				{
					"internalType": "uint256",
					"name": "",
					"type": "uint256"
				}
			],
			"stateMutability": "view",
			"type": "function"
		},
		{
			"inputs": [],
			"name": "SECONDS_PER_HOUR",
			"outputs": [
				{
					"internalType": "uint256",
					"name": "",
					"type": "uint256"
				}
			],
			"stateMutability": "view",
			"type": "function"
		},
		{
			"inputs": [],
			"name": "SECONDS_PER_MINUTE",
			"outputs": [
				{
					"internalType": "uint256",
					"name": "",
					"type": "uint256"
				}
			],
			"stateMutability": "view",
			"type": "function"
		},
		{
			"inputs": [
				{
					"internalType": "uint256",
					"name": "year",
					"type": "uint256"
				},
				{
					"internalType": "uint256",
					"name": "month",
					"type": "uint256"
				},
				{
					"internalType": "uint256",
					"name": "day",
					"type": "uint256"
				}
			],
			"name": "_daysFromDate",
			"outputs": [
				{
					"internalType": "uint256",
					"name": "_days",
					"type": "uint256"
				}
			],
			"stateMutability": "pure",
			"type": "function"
		},
		{
			"inputs": [
				{
					"internalType": "uint256",
					"name": "_days",
					"type": "uint256"
				}
			],
			"name": "_daysToDate",
			"outputs": [
				{
					"internalType": "uint256",
					"name": "year",
					"type": "uint256"
				},
				{
					"internalType": "uint256",
					"name": "month",
					"type": "uint256"
				},
				{
					"internalType": "uint256",
					"name": "day",
					"type": "uint256"
				}
			],
			"stateMutability": "pure",
			"type": "function"
		},
		{
			"inputs": [
				{
					"internalType": "uint256",
					"name": "year",
					"type": "uint256"
				},
				{
					"internalType": "uint256",
					"name": "month",
					"type": "uint256"
				}
			],
			"name": "_getDaysInMonth",
			"outputs": [
				{
					"internalType": "uint256",
					"name": "daysInMonth",
					"type": "uint256"
				}
			],
			"stateMutability": "pure",
			"type": "function"
		},
		{
			"inputs": [
				{
					"internalType": "uint256",
					"name": "year",
					"type": "uint256"
				}
			],
			"name": "_isLeapYear",
			"outputs": [
				{
					"internalType": "bool",
					"name": "leapYear",
					"type": "bool"
				}
			],
			"stateMutability": "pure",
			"type": "function"
		},
		{
			"inputs": [],
			"name": "_now",
			"outputs": [
				{
					"internalType": "uint256",
					"name": "timestamp",
					"type": "uint256"
				}
			],
			"stateMutability": "view",
			"type": "function"
		},
		{
			"inputs": [],
			"name": "_nowDateTime",
			"outputs": [
				{
					"internalType": "uint256",
					"name": "year",
					"type": "uint256"
				},
				{
					"internalType": "uint256",
					"name": "month",
					"type": "uint256"
				},
				{
					"internalType": "uint256",
					"name": "day",
					"type": "uint256"
				},
				{
					"internalType": "uint256",
					"name": "hour",
					"type": "uint256"
				},
				{
					"internalType": "uint256",
					"name": "minute",
					"type": "uint256"
				},
				{
					"internalType": "uint256",
					"name": "second",
					"type": "uint256"
				}
			],
			"stateMutability": "view",
			"type": "function"
		},
		{
			"inputs": [
				{
					"internalType": "uint256",
					"name": "timestamp",
					"type": "uint256"
				},
				{
					"internalType": "uint256",
					"name": "_days",
					"type": "uint256"
				}
			],
			"name": "addDays",
			"outputs": [
				{
					"internalType": "uint256",
					"name": "newTimestamp",
					"type": "uint256"
				}
			],
			"stateMutability": "pure",
			"type": "function"
		},
		{
			"inputs": [
				{
					"internalType": "uint256",
					"name": "timestamp",
					"type": "uint256"
				},
				{
					"internalType": "uint256",
					"name": "_hours",
					"type": "uint256"
				}
			],
			"name": "addHours",
			"outputs": [
				{
					"internalType": "uint256",
					"name": "newTimestamp",
					"type": "uint256"
				}
			],
			"stateMutability": "pure",
			"type": "function"
		},
		{
			"inputs": [
				{
					"internalType": "uint256",
					"name": "timestamp",
					"type": "uint256"
				},
				{
					"internalType": "uint256",
					"name": "_minutes",
					"type": "uint256"
				}
			],
			"name": "addMinutes",
			"outputs": [
				{
					"internalType": "uint256",
					"name": "newTimestamp",
					"type": "uint256"
				}
			],
			"stateMutability": "pure",
			"type": "function"
		},
		{
			"inputs": [
				{
					"internalType": "uint256",
					"name": "timestamp",
					"type": "uint256"
				},
				{
					"internalType": "uint256",
					"name": "_months",
					"type": "uint256"
				}
			],
			"name": "addMonths",
			"outputs": [
				{
					"internalType": "uint256",
					"name": "newTimestamp",
					"type": "uint256"
				}
			],
			"stateMutability": "pure",
			"type": "function"
		},
		{
			"inputs": [
				{
					"internalType": "uint256",
					"name": "timestamp",
					"type": "uint256"
				},
				{
					"internalType": "uint256",
					"name": "_seconds",
					"type": "uint256"
				}
			],
			"name": "addSeconds",
			"outputs": [
				{
					"internalType": "uint256",
					"name": "newTimestamp",
					"type": "uint256"
				}
			],
			"stateMutability": "pure",
			"type": "function"
		},
		{
			"inputs": [
				{
					"internalType": "uint256",
					"name": "timestamp",
					"type": "uint256"
				},
				{
					"internalType": "uint256",
					"name": "_years",
					"type": "uint256"
				}
			],
			"name": "addYears",
			"outputs": [
				{
					"internalType": "uint256",
					"name": "newTimestamp",
					"type": "uint256"
				}
			],
			"stateMutability": "pure",
			"type": "function"
		},
		{
			"inputs": [
				{
					"internalType": "uint256",
					"name": "fromTimestamp",
					"type": "uint256"
				},
				{
					"internalType": "uint256",
					"name": "toTimestamp",
					"type": "uint256"
				}
			],
			"name": "diffDays",
			"outputs": [
				{
					"internalType": "uint256",
					"name": "_days",
					"type": "uint256"
				}
			],
			"stateMutability": "pure",
			"type": "function"
		},
		{
			"inputs": [
				{
					"internalType": "uint256",
					"name": "fromTimestamp",
					"type": "uint256"
				},
				{
					"internalType": "uint256",
					"name": "toTimestamp",
					"type": "uint256"
				}
			],
			"name": "diffHours",
			"outputs": [
				{
					"internalType": "uint256",
					"name": "_hours",
					"type": "uint256"
				}
			],
			"stateMutability": "pure",
			"type": "function"
		},
		{
			"inputs": [
				{
					"internalType": "uint256",
					"name": "fromTimestamp",
					"type": "uint256"
				},
				{
					"internalType": "uint256",
					"name": "toTimestamp",
					"type": "uint256"
				}
			],
			"name": "diffMinutes",
			"outputs": [
				{
					"internalType": "uint256",
					"name": "_minutes",
					"type": "uint256"
				}
			],
			"stateMutability": "pure",
			"type": "function"
		},
		{
			"inputs": [
				{
					"internalType": "uint256",
					"name": "fromTimestamp",
					"type": "uint256"
				},
				{
					"internalType": "uint256",
					"name": "toTimestamp",
					"type": "uint256"
				}
			],
			"name": "diffMonths",
			"outputs": [
				{
					"internalType": "uint256",
					"name": "_months",
					"type": "uint256"
				}
			],
			"stateMutability": "pure",
			"type": "function"
		},
		{
			"inputs": [
				{
					"internalType": "uint256",
					"name": "fromTimestamp",
					"type": "uint256"
				},
				{
					"internalType": "uint256",
					"name": "toTimestamp",
					"type": "uint256"
				}
			],
			"name": "diffSeconds",
			"outputs": [
				{
					"internalType": "uint256",
					"name": "_seconds",
					"type": "uint256"
				}
			],
			"stateMutability": "pure",
			"type": "function"
		},
		{
			"inputs": [
				{
					"internalType": "uint256",
					"name": "fromTimestamp",
					"type": "uint256"
				},
				{
					"internalType": "uint256",
					"name": "toTimestamp",
					"type": "uint256"
				}
			],
			"name": "diffYears",
			"outputs": [
				{
					"internalType": "uint256",
					"name": "_years",
					"type": "uint256"
				}
			],
			"stateMutability": "pure",
			"type": "function"
		},
		{
			"inputs": [
				{
					"internalType": "uint256",
					"name": "timestamp",
					"type": "uint256"
				}
			],
			"name": "getDay",
			"outputs": [
				{
					"internalType": "uint256",
					"name": "day",
					"type": "uint256"
				}
			],
			"stateMutability": "pure",
			"type": "function"
		},
		{
			"inputs": [
				{
					"internalType": "uint256",
					"name": "timestamp",
					"type": "uint256"
				}
			],
			"name": "getDayOfWeek",
			"outputs": [
				{
					"internalType": "uint256",
					"name": "dayOfWeek",
					"type": "uint256"
				}
			],
			"stateMutability": "pure",
			"type": "function"
		},
		{
			"inputs": [
				{
					"internalType": "uint256",
					"name": "timestamp",
					"type": "uint256"
				}
			],
			"name": "getDaysInMonth",
			"outputs": [
				{
					"internalType": "uint256",
					"name": "daysInMonth",
					"type": "uint256"
				}
			],
			"stateMutability": "pure",
			"type": "function"
		},
		{
			"inputs": [
				{
					"internalType": "uint256",
					"name": "timestamp",
					"type": "uint256"
				}
			],
			"name": "getHour",
			"outputs": [
				{
					"internalType": "uint256",
					"name": "hour",
					"type": "uint256"
				}
			],
			"stateMutability": "pure",
			"type": "function"
		},
		{
			"inputs": [
				{
					"internalType": "uint256",
					"name": "timestamp",
					"type": "uint256"
				}
			],
			"name": "getMinute",
			"outputs": [
				{
					"internalType": "uint256",
					"name": "minute",
					"type": "uint256"
				}
			],
			"stateMutability": "pure",
			"type": "function"
		},
		{
			"inputs": [
				{
					"internalType": "uint256",
					"name": "timestamp",
					"type": "uint256"
				}
			],
			"name": "getMonth",
			"outputs": [
				{
					"internalType": "uint256",
					"name": "month",
					"type": "uint256"
				}
			],
			"stateMutability": "pure",
			"type": "function"
		},
		{
			"inputs": [
				{
					"internalType": "uint256",
					"name": "timestamp",
					"type": "uint256"
				}
			],
			"name": "getSecond",
			"outputs": [
				{
					"internalType": "uint256",
					"name": "second",
					"type": "uint256"
				}
			],
			"stateMutability": "pure",
			"type": "function"
		},
		{
			"inputs": [
				{
					"internalType": "uint256",
					"name": "timestamp",
					"type": "uint256"
				}
			],
			"name": "getYear",
			"outputs": [
				{
					"internalType": "uint256",
					"name": "year",
					"type": "uint256"
				}
			],
			"stateMutability": "pure",
			"type": "function"
		},
		{
			"inputs": [
				{
					"internalType": "uint256",
					"name": "timestamp",
					"type": "uint256"
				}
			],
			"name": "isLeapYear",
			"outputs": [
				{
					"internalType": "bool",
					"name": "leapYear",
					"type": "bool"
				}
			],
			"stateMutability": "pure",
			"type": "function"
		},
		{
			"inputs": [
				{
					"internalType": "uint256",
					"name": "year",
					"type": "uint256"
				},
				{
					"internalType": "uint256",
					"name": "month",
					"type": "uint256"
				},
				{
					"internalType": "uint256",
					"name": "day",
					"type": "uint256"
				}
			],
			"name": "isValidDate",
			"outputs": [
				{
					"internalType": "bool",
					"name": "valid",
					"type": "bool"
				}
			],
			"stateMutability": "pure",
			"type": "function"
		},
		{
			"inputs": [
				{
					"internalType": "uint256",
					"name": "year",
					"type": "uint256"
				},
				{
					"internalType": "uint256",
					"name": "month",
					"type": "uint256"
				},
				{
					"internalType": "uint256",
					"name": "day",
					"type": "uint256"
				},
				{
					"internalType": "uint256",
					"name": "hour",
					"type": "uint256"
				},
				{
					"internalType": "uint256",
					"name": "minute",
					"type": "uint256"
				},
				{
					"internalType": "uint256",
					"name": "second",
					"type": "uint256"
				}
			],
			"name": "isValidDateTime",
			"outputs": [
				{
					"internalType": "bool",
					"name": "valid",
					"type": "bool"
				}
			],
			"stateMutability": "pure",
			"type": "function"
		},
		{
			"inputs": [
				{
					"internalType": "uint256",
					"name": "timestamp",
					"type": "uint256"
				}
			],
			"name": "isWeekDay",
			"outputs": [
				{
					"internalType": "bool",
					"name": "weekDay",
					"type": "bool"
				}
			],
			"stateMutability": "pure",
			"type": "function"
		},
		{
			"inputs": [
				{
					"internalType": "uint256",
					"name": "timestamp",
					"type": "uint256"
				}
			],
			"name": "isWeekEnd",
			"outputs": [
				{
					"internalType": "bool",
					"name": "weekEnd",
					"type": "bool"
				}
			],
			"stateMutability": "pure",
			"type": "function"
		},
		{
			"inputs": [
				{
					"internalType": "uint256",
					"name": "timestamp",
					"type": "uint256"
				},
				{
					"internalType": "uint256",
					"name": "_days",
					"type": "uint256"
				}
			],
			"name": "subDays",
			"outputs": [
				{
					"internalType": "uint256",
					"name": "newTimestamp",
					"type": "uint256"
				}
			],
			"stateMutability": "pure",
			"type": "function"
		},
		{
			"inputs": [
				{
					"internalType": "uint256",
					"name": "timestamp",
					"type": "uint256"
				},
				{
					"internalType": "uint256",
					"name": "_hours",
					"type": "uint256"
				}
			],
			"name": "subHours",
			"outputs": [
				{
					"internalType": "uint256",
					"name": "newTimestamp",
					"type": "uint256"
				}
			],
			"stateMutability": "pure",
			"type": "function"
		},
		{
			"inputs": [
				{
					"internalType": "uint256",
					"name": "timestamp",
					"type": "uint256"
				},
				{
					"internalType": "uint256",
					"name": "_minutes",
					"type": "uint256"
				}
			],
			"name": "subMinutes",
			"outputs": [
				{
					"internalType": "uint256",
					"name": "newTimestamp",
					"type": "uint256"
				}
			],
			"stateMutability": "pure",
			"type": "function"
		},
		{
			"inputs": [
				{
					"internalType": "uint256",
					"name": "timestamp",
					"type": "uint256"
				},
				{
					"internalType": "uint256",
					"name": "_months",
					"type": "uint256"
				}
			],
			"name": "subMonths",
			"outputs": [
				{
					"internalType": "uint256",
					"name": "newTimestamp",
					"type": "uint256"
				}
			],
			"stateMutability": "pure",
			"type": "function"
		},
		{
			"inputs": [
				{
					"internalType": "uint256",
					"name": "timestamp",
					"type": "uint256"
				},
				{
					"internalType": "uint256",
					"name": "_seconds",
					"type": "uint256"
				}
			],
			"name": "subSeconds",
			"outputs": [
				{
					"internalType": "uint256",
					"name": "newTimestamp",
					"type": "uint256"
				}
			],
			"stateMutability": "pure",
			"type": "function"
		},
		{
			"inputs": [
				{
					"internalType": "uint256",
					"name": "timestamp",
					"type": "uint256"
				},
				{
					"internalType": "uint256",
					"name": "_years",
					"type": "uint256"
				}
			],
			"name": "subYears",
			"outputs": [
				{
					"internalType": "uint256",
					"name": "newTimestamp",
					"type": "uint256"
				}
			],
			"stateMutability": "pure",
			"type": "function"
		},
		{
			"inputs": [
				{
					"internalType": "uint256",
					"name": "year",
					"type": "uint256"
				},
				{
					"internalType": "uint256",
					"name": "month",
					"type": "uint256"
				},
				{
					"internalType": "uint256",
					"name": "day",
					"type": "uint256"
				}
			],
			"name": "timestampFromDate",
			"outputs": [
				{
					"internalType": "uint256",
					"name": "timestamp",
					"type": "uint256"
				}
			],
			"stateMutability": "pure",
			"type": "function"
		},
		{
			"inputs": [
				{
					"internalType": "uint256",
					"name": "year",
					"type": "uint256"
				},
				{
					"internalType": "uint256",
					"name": "month",
					"type": "uint256"
				},
				{
					"internalType": "uint256",
					"name": "day",
					"type": "uint256"
				},
				{
					"internalType": "uint256",
					"name": "hour",
					"type": "uint256"
				},
				{
					"internalType": "uint256",
					"name": "minute",
					"type": "uint256"
				},
				{
					"internalType": "uint256",
					"name": "second",
					"type": "uint256"
				}
			],
			"name": "timestampFromDateTime",
			"outputs": [
				{
					"internalType": "uint256",
					"name": "timestamp",
					"type": "uint256"
				}
			],
			"stateMutability": "pure",
			"type": "function"
		},
		{
			"inputs": [
				{
					"internalType": "uint256",
					"name": "timestamp",
					"type": "uint256"
				}
			],
			"name": "timestampToDate",
			"outputs": [
				{
					"internalType": "uint256",
					"name": "year",
					"type": "uint256"
				},
				{
					"internalType": "uint256",
					"name": "month",
					"type": "uint256"
				},
				{
					"internalType": "uint256",
					"name": "day",
					"type": "uint256"
				}
			],
			"stateMutability": "pure",
			"type": "function"
		},
		{
			"inputs": [
				{
					"internalType": "uint256",
					"name": "timestamp",
					"type": "uint256"
				}
			],
			"name": "timestampToDateTime",
			"outputs": [
				{
					"internalType": "uint256",
					"name": "year",
					"type": "uint256"
				},
				{
					"internalType": "uint256",
					"name": "month",
					"type": "uint256"
				},
				{
					"internalType": "uint256",
					"name": "day",
					"type": "uint256"
				},
				{
					"internalType": "uint256",
					"name": "hour",
					"type": "uint256"
				},
				{
					"internalType": "uint256",
					"name": "minute",
					"type": "uint256"
				},
				{
					"internalType": "uint256",
					"name": "second",
					"type": "uint256"
				}
			],
			"stateMutability": "pure",
			"type": "function"
		}
	]
}