{
	"data": {
		"bytecode": {
			"linkReferences": {},
			"object": "60806040523480156200001157600080fd5b5060405162001ecf38038062001ecf8339818101604052810190620000379190620000e8565b806000806101000a81548173ffffffffffffffffffffffffffffffffffffffff021916908373ffffffffffffffffffffffffffffffffffffffff160217905550506200011a565b600080fd5b600073ffffffffffffffffffffffffffffffffffffffff82169050919050565b6000620000b08262000083565b9050919050565b620000c281620000a3565b8114620000ce57600080fd5b50565b600081519050620000e281620000b7565b92915050565b6000602082840312156200010157620001006200007e565b5b60006200011184828501620000d1565b91505092915050565b611da5806200012a6000396000f3fe608060405234801561001057600080fd5b50600436106100cf5760003560e01c80638ed710431161008c578063bdf6b64e11610066578063bdf6b64e14610284578063e1527ed2146102b4578063f3188d99146102d2578063f8faec4114610302576100cf565b80638ed71043146101f45780639f2fb76c14610224578063aa2cd4c914610254576100cf565b80631121e9e8146100d4578063172bded414610104578063243565f014610134578063266001d3146101645780632f852df31461019457806348e12cac146101c4575b600080fd5b6100ee60048036038101906100e99190611431565b610332565b6040516100fb919061154e565b60405180910390f35b61011e60048036038101906101199190611570565b6103e5565b60405161012b9190611640565b60405180910390f35b61014e60048036038101906101499190611431565b610490565b60405161015b919061154e565b60405180910390f35b61017e60048036038101906101799190611797565b610758565b60405161018b9190611640565b60405180910390f35b6101ae60048036038101906101a99190611431565b610784565b6040516101bb9190611640565b60405180910390f35b6101de60048036038101906101d99190611431565b6108b8565b6040516101eb919061154e565b60405180910390f35b61020e60048036038101906102099190611431565b61096b565b60405161021b9190611640565b60405180910390f35b61023e60048036038101906102399190611431565b610a9f565b60405161024b919061191b565b60405180910390f35b61026e60048036038101906102699190611431565b610c9b565b60405161027b919061154e565b60405180910390f35b61029e60048036038101906102999190611431565b610d4e565b6040516102ab9190611640565b60405180910390f35b6102bc610e82565b6040516102c9919061199c565b60405180910390f35b6102ec60048036038101906102e79190611431565b610ea6565b6040516102f9919061154e565b60405180910390f35b61031c60048036038101906103179190611431565b610f59565b6040516103299190611640565b60405180910390f35b606060008054906101000a900473ffffffffffffffffffffffffffffffffffffffff1673ffffffffffffffffffffffffffffffffffffffff1663563ac793600061037b85610d4e565b6040518363ffffffff1660e01b81526004016103989291906119f2565b600060405180830381865afa1580156103b5573d6000803e3d6000fd5b505050506040513d6000823e3d601f19601f820116820180604052508101906103de9190611b16565b9050919050565b606080600a84101561041f5760006103fc8561108d565b9050600061040a600061108d565b90506104168183610758565b92505050610431565b600061042a8561108d565b9050809150505b6060600a84101561046a5760006104478561108d565b90506000610455600061108d565b90506104618183610758565b9250505061047c565b60006104758561108d565b9050809150505b6104868282610758565b9250505092915050565b6060600061049d83610a9f565b905060006064905060008160036104b49190611b8e565b67ffffffffffffffff8111156104cd576104cc61166c565b5b6040519080825280602002602001820160405280156104fb5781602001602082028036833780820191505090505b5090506000805b60038110156106765760008060009054906101000a900473ffffffffffffffffffffffffffffffffffffffff1673ffffffffffffffffffffffffffffffffffffffff1663563ac793600088858151811061055f5761055e611bd0565b5b60200260200101516040518363ffffffff1660e01b81526004016105849291906119f2565b600060405180830381865afa1580156105a1573d6000803e3d6000fd5b505050506040513d6000823e3d601f19601f820116820180604052508101906105ca9190611b16565b905060005b8151811015610661578181815181106105eb576105ea611bd0565b5b602002602001015185858151811061060657610605611bd0565b5b602002602001019073ffffffffffffffffffffffffffffffffffffffff16908173ffffffffffffffffffffffffffffffffffffffff1681525050838061064b90611bff565b945050808061065990611bff565b9150506105cf565b5050808061066e90611bff565b915050610502565b5060008167ffffffffffffffff8111156106935761069261166c565b5b6040519080825280602002602001820160405280156106c15781602001602082028036833780820191505090505b50905060005b8281101561074a578381815181106106e2576106e1611bd0565b5b60200260200101518282815181106106fd576106fc611bd0565b5b602002602001019073ffffffffffffffffffffffffffffffffffffffff16908173ffffffffffffffffffffffffffffffffffffffff1681525050808061074290611bff565b9150506106c7565b508095505050505050919050565b6060828260405160200161076d929190611c83565b604051602081830303815290604052905092915050565b606060008060006107948561115b565b80935081945082955050505060048214806107af5750600682145b806107ba5750600982145b806107c55750600b82145b1561080657600e816107d79190611ca7565b9050601e81111561080157601e816107ef9190611d0a565b90506001826107fe9190611ca7565b91505b6108a4565b6002820361084a57600e8161081b9190611ca7565b9050601c81111561084557601c816108339190611d0a565b90506001826108429190611ca7565b91505b6108a3565b600e816108579190611ca7565b9050601f8111156108a257601f8161086f9190611d0a565b9050600c8203610891576001915060018361088a9190611ca7565b92506108a1565b60018261089e9190611ca7565b91505b5b5b5b6108ae81836103e5565b9350505050919050565b606060008054906101000a900473ffffffffffffffffffffffffffffffffffffffff1673ffffffffffffffffffffffffffffffffffffffff1663563ac793600061090185610784565b6040518363ffffffff1660e01b815260040161091e9291906119f2565b600060405180830381865afa15801561093b573d6000803e3d6000fd5b505050506040513d6000823e3d601f19601f820116820180604052508101906109649190611b16565b9050919050565b6060600080600061097b8561115b565b80935081945082955050505060048214806109965750600682145b806109a15750600982145b806109ac5750600b82145b156109ed576003816109be9190611ca7565b9050601e8111156109e857601e816109d69190611d0a565b90506001826109e59190611ca7565b91505b610a8b565b60028203610a3157600381610a029190611ca7565b9050601c811115610a2c57601c81610a1a9190611d0a565b9050600182610a299190611ca7565b91505b610a8a565b600381610a3e9190611ca7565b9050601f811115610a8957601f81610a569190611d0a565b9050600c8203610a785760019150600183610a719190611ca7565b9250610a88565b600182610a859190611ca7565b91505b5b5b5b610a9581836103e5565b9350505050919050565b606060008060008060606000600367ffffffffffffffff811115610ac657610ac561166c565b5b604051908082528060200260200182016040528015610af957816020015b6060815260200190600190039081610ae45790505b509050610b058861115b565b809650819750829850505050610b1b84866103e5565b91508181600081518110610b3257610b31611bd0565b5b6020026020010181905250600192505b6003831015610c8d576004851480610b5a5750600685145b80610b655750600985145b80610b705750600b85145b15610bb157600184610b829190611d3b565b9350601e841115610bac57601e84610b9a9190611d0a565b9350600185610ba99190611ca7565b94505b610c4f565b60028503610bf557600184610bc69190611d3b565b9350601c841115610bf057601c84610bde9190611d0a565b9350600185610bed9190611ca7565b94505b610c4e565b600184610c029190611d3b565b9350601f841115610c4d57601f84610c1a9190611d0a565b9350600c8503610c3c5760019450600186610c359190611ca7565b9550610c4c565b600185610c499190611ca7565b94505b5b5b5b610c5984866103e5565b915081818481518110610c6f57610c6e611bd0565b5b60200260200101819052508280610c8590611bff565b935050610b42565b809650505050505050919050565b606060008054906101000a900473ffffffffffffffffffffffffffffffffffffffff1673ffffffffffffffffffffffffffffffffffffffff1663563ac7936000610ce485610f59565b6040518363ffffffff1660e01b8152600401610d019291906119f2565b600060405180830381865afa158015610d1e573d6000803e3d6000fd5b505050506040513d6000823e3d601f19601f82011682018060405250810190610d479190611b16565b9050919050565b60606000806000610d5e8561115b565b8093508194508295505050506004821480610d795750600682145b80610d845750600982145b80610d8f5750600b82145b15610dd057601e81610da19190611ca7565b9050601e811115610dcb57601e81610db99190611d0a565b9050600182610dc89190611ca7565b91505b610e6e565b60028203610e1457601c81610de59190611ca7565b9050601c811115610e0f57601c81610dfd9190611d0a565b9050600182610e0c9190611ca7565b91505b610e6d565b601f81610e219190611ca7565b9050601f811115610e6c57601f81610e399190611d0a565b9050600c8203610e5b5760019150600183610e549190611ca7565b9250610e6b565b600182610e689190611ca7565b91505b5b5b5b610e7881836103e5565b9350505050919050565b60008054906101000a900473ffffffffffffffffffffffffffffffffffffffff1681565b606060008054906101000a900473ffffffffffffffffffffffffffffffffffffffff1673ffffffffffffffffffffffffffffffffffffffff1663563ac7936000610eef8561096b565b6040518363ffffffff1660e01b8152600401610f0c9291906119f2565b600060405180830381865afa158015610f29573d6000803e3d6000fd5b505050506040513d6000823e3d601f19601f82011682018060405250810190610f529190611b16565b9050919050565b60606000806000610f698561115b565b8093508194508295505050506004821480610f845750600682145b80610f8f5750600982145b80610f9a5750600b82145b15610fdb57600181610fac9190611ca7565b9050601e811115610fd657601e81610fc49190611d0a565b9050600182610fd39190611ca7565b91505b611079565b6002820361101f57600181610ff09190611ca7565b9050601c81111561101a57601c816110089190611d0a565b90506001826110179190611ca7565b91505b611078565b60018161102c9190611ca7565b9050601f81111561107757601f816110449190611d0a565b9050600c8203611066576001915060018361105f9190611ca7565b9250611076565b6001826110739190611ca7565b91505b5b5b5b61108381836103e5565b9350505050919050565b60606000600161109c8461118f565b01905060008167ffffffffffffffff8111156110bb576110ba61166c565b5b6040519080825280601f01601f1916602001820160405280156110ed5781602001600182028036833780820191505090505b509050600082602001820190505b600115611150578080600190039150507f3031323334353637383961626364656600000000000000000000000000000000600a86061a8153600a858161114457611143611cdb565b5b049450600085036110fb575b819350505050919050565b600080600061117c62015180858161117657611175611cdb565b5b046112e2565b8093508194508295505050509193909250565b600080600090507a184f03e93ff9f4daa797ed6e38ed64bf6a1f01000000000000000083106111ed577a184f03e93ff9f4daa797ed6e38ed64bf6a1f01000000000000000083816111e3576111e2611cdb565b5b0492506040810190505b6d04ee2d6d415b85acef8100000000831061122a576d04ee2d6d415b85acef810000000083816112205761121f611cdb565b5b0492506020810190505b662386f26fc10000831061125957662386f26fc10000838161124f5761124e611cdb565b5b0492506010810190505b6305f5e1008310611282576305f5e100838161127857611277611cdb565b5b0492506008810190505b61271083106112a757612710838161129d5761129c611cdb565b5b0492506004810190505b606483106112ca57606483816112c0576112bf611cdb565b5b0492506002810190505b600a83106112d9576001810190505b80915050919050565b600080600080849050600062253d8c62010bd98301019050600062023ab1826004028161131257611311611cdb565b5b059050600460038262023ab102018161132e5761132d611cdb565b5b0582039150600062164b0960018401610fa0028161134f5761134e611cdb565b5b059050601f6004826105b5028161136957611368611cdb565b5b058403019250600061098f846050028161138657611385611cdb565b5b059050600060508261098f02816113a05761139f611cdb565b5b0585039050600b82816113b6576113b5611cdb565b5b05945084600c0260028301039150848360318603606402010192508298508197508096505050505050509193909250565b6000604051905090565b600080fd5b600080fd5b6000819050919050565b61140e816113fb565b811461141957600080fd5b50565b60008135905061142b81611405565b92915050565b600060208284031215611447576114466113f1565b5b60006114558482850161141c565b91505092915050565b600081519050919050565b600082825260208201905092915050565b6000819050602082019050919050565b600073ffffffffffffffffffffffffffffffffffffffff82169050919050565b60006114b58261148a565b9050919050565b6114c5816114aa565b82525050565b60006114d783836114bc565b60208301905092915050565b6000602082019050919050565b60006114fb8261145e565b6115058185611469565b93506115108361147a565b8060005b8381101561154157815161152888826114cb565b9750611533836114e3565b925050600181019050611514565b5085935050505092915050565b6000602082019050818103600083015261156881846114f0565b905092915050565b60008060408385031215611587576115866113f1565b5b60006115958582860161141c565b92505060206115a68582860161141c565b9150509250929050565b600081519050919050565b600082825260208201905092915050565b60005b838110156115ea5780820151818401526020810190506115cf565b60008484015250505050565b6000601f19601f8301169050919050565b6000611612826115b0565b61161c81856115bb565b935061162c8185602086016115cc565b611635816115f6565b840191505092915050565b6000602082019050818103600083015261165a8184611607565b905092915050565b600080fd5b600080fd5b7f4e487b7100000000000000000000000000000000000000000000000000000000600052604160045260246000fd5b6116a4826115f6565b810181811067ffffffffffffffff821117156116c3576116c261166c565b5b80604052505050565b60006116d66113e7565b90506116e2828261169b565b919050565b600067ffffffffffffffff8211156117025761170161166c565b5b61170b826115f6565b9050602081019050919050565b82818337600083830152505050565b600061173a611735846116e7565b6116cc565b90508281526020810184848401111561175657611755611667565b5b611761848285611718565b509392505050565b600082601f83011261177e5761177d611662565b5b813561178e848260208601611727565b91505092915050565b600080604083850312156117ae576117ad6113f1565b5b600083013567ffffffffffffffff8111156117cc576117cb6113f6565b5b6117d885828601611769565b925050602083013567ffffffffffffffff8111156117f9576117f86113f6565b5b61180585828601611769565b9150509250929050565b600081519050919050565b600082825260208201905092915050565b6000819050602082019050919050565b600082825260208201905092915050565b6000611857826115b0565b611861818561183b565b93506118718185602086016115cc565b61187a816115f6565b840191505092915050565b6000611891838361184c565b905092915050565b6000602082019050919050565b60006118b18261180f565b6118bb818561181a565b9350836020820285016118cd8561182b565b8060005b8581101561190957848403895281516118ea8582611885565b94506118f583611899565b925060208a019950506001810190506118d1565b50829750879550505050505092915050565b6000602082019050818103600083015261193581846118a6565b905092915050565b6000819050919050565b600061196261195d6119588461148a565b61193d565b61148a565b9050919050565b600061197482611947565b9050919050565b600061198682611969565b9050919050565b6119968161197b565b82525050565b60006020820190506119b1600083018461198d565b92915050565b6000819050919050565b60006119dc6119d76119d2846119b7565b61193d565b6113fb565b9050919050565b6119ec816119c1565b82525050565b6000604082019050611a0760008301856119e3565b8181036020830152611a198184611607565b90509392505050565b600067ffffffffffffffff821115611a3d57611a3c61166c565b5b602082029050602081019050919050565b600080fd5b611a5c816114aa565b8114611a6757600080fd5b50565b600081519050611a7981611a53565b92915050565b6000611a92611a8d84611a22565b6116cc565b90508083825260208201905060208402830185811115611ab557611ab4611a4e565b5b835b81811015611ade5780611aca8882611a6a565b845260208401935050602081019050611ab7565b5050509392505050565b600082601f830112611afd57611afc611662565b5b8151611b0d848260208601611a7f565b91505092915050565b600060208284031215611b2c57611b2b6113f1565b5b600082015167ffffffffffffffff811115611b4a57611b496113f6565b5b611b5684828501611ae8565b91505092915050565b7f4e487b7100000000000000000000000000000000000000000000000000000000600052601160045260246000fd5b6000611b99826113fb565b9150611ba4836113fb565b9250828202611bb2816113fb565b91508282048414831517611bc957611bc8611b5f565b5b5092915050565b7f4e487b7100000000000000000000000000000000000000000000000000000000600052603260045260246000fd5b6000611c0a826113fb565b91507fffffffffffffffffffffffffffffffffffffffffffffffffffffffffffffffff8203611c3c57611c3b611b5f565b5b600182019050919050565b600081905092915050565b6000611c5d826115b0565b611c678185611c47565b9350611c778185602086016115cc565b80840191505092915050565b6000611c8f8285611c52565b9150611c9b8284611c52565b91508190509392505050565b6000611cb2826113fb565b9150611cbd836113fb565b9250828201905080821115611cd557611cd4611b5f565b5b92915050565b7f4e487b7100000000000000000000000000000000000000000000000000000000600052601260045260246000fd5b6000611d15826113fb565b9150611d20836113fb565b925082611d3057611d2f611cdb565b5b828206905092915050565b6000611d46826113fb565b9150611d51836113fb565b9250828203905081811115611d6957611d68611b5f565b5b9291505056fea264697066735822122094ee82c1b7382f842eb4e584ce63ca9ef61a30c49777d561f6bef5ba3442071a64736f6c63430008120033",
			"opcodes": "PUSH1 0x80 PUSH1 0x40 MSTORE CALLVALUE DUP1 ISZERO PUSH3 0x11 JUMPI PUSH1 0x0 DUP1 REVERT JUMPDEST POP PUSH1 0x40 MLOAD PUSH3 0x1ECF CODESIZE SUB DUP1 PUSH3 0x1ECF DUP4 CODECOPY DUP2 DUP2 ADD PUSH1 0x40 MSTORE DUP2 ADD SWAP1 PUSH3 0x37 SWAP2 SWAP1 PUSH3 0xE8 JUMP JUMPDEST DUP1 PUSH1 0x0 DUP1 PUSH2 0x100 EXP DUP2 SLOAD DUP2 PUSH20 0xFFFFFFFFFFFFFFFFFFFFFFFFFFFFFFFFFFFFFFFF MUL NOT AND SWAP1 DUP4 PUSH20 0xFFFFFFFFFFFFFFFFFFFFFFFFFFFFFFFFFFFFFFFF AND MUL OR SWAP1 SSTORE POP POP PUSH3 0x11A JUMP JUMPDEST PUSH1 0x0 DUP1 REVERT JUMPDEST PUSH1 0x0 PUSH20 0xFFFFFFFFFFFFFFFFFFFFFFFFFFFFFFFFFFFFFFFF DUP3 AND SWAP1 POP SWAP2 SWAP1 POP JUMP JUMPDEST PUSH1 0x0 PUSH3 0xB0 DUP3 PUSH3 0x83 JUMP JUMPDEST SWAP1 POP SWAP2 SWAP1 POP JUMP JUMPDEST PUSH3 0xC2 DUP2 PUSH3 0xA3 JUMP JUMPDEST DUP2 EQ PUSH3 0xCE JUMPI PUSH1 0x0 DUP1 REVERT JUMPDEST POP JUMP JUMPDEST PUSH1 0x0 DUP2 MLOAD SWAP1 POP PUSH3 0xE2 DUP2 PUSH3 0xB7 JUMP JUMPDEST SWAP3 SWAP2 POP POP JUMP JUMPDEST PUSH1 0x0 PUSH1 0x20 DUP3 DUP5 SUB SLT ISZERO PUSH3 0x101 JUMPI PUSH3 0x100 PUSH3 0x7E JUMP JUMPDEST JUMPDEST PUSH1 0x0 PUSH3 0x111 DUP5 DUP3 DUP6 ADD PUSH3 0xD1 JUMP JUMPDEST SWAP2 POP POP SWAP3 SWAP2 POP POP JUMP JUMPDEST PUSH2 0x1DA5 DUP1 PUSH3 0x12A PUSH1 0x0 CODECOPY PUSH1 0x0 RETURN INVALID PUSH1 0x80 PUSH1 0x40 MSTORE CALLVALUE DUP1 ISZERO PUSH2 0x10 JUMPI PUSH1 0x0 DUP1 REVERT JUMPDEST POP PUSH1 0x4 CALLDATASIZE LT PUSH2 0xCF JUMPI PUSH1 0x0 CALLDATALOAD PUSH1 0xE0 SHR DUP1 PUSH4 0x8ED71043 GT PUSH2 0x8C JUMPI DUP1 PUSH4 0xBDF6B64E GT PUSH2 0x66 JUMPI DUP1 PUSH4 0xBDF6B64E EQ PUSH2 0x284 JUMPI DUP1 PUSH4 0xE1527ED2 EQ PUSH2 0x2B4 JUMPI DUP1 PUSH4 0xF3188D99 EQ PUSH2 0x2D2 JUMPI DUP1 PUSH4 0xF8FAEC41 EQ PUSH2 0x302 JUMPI PUSH2 0xCF JUMP JUMPDEST DUP1 PUSH4 0x8ED71043 EQ PUSH2 0x1F4 JUMPI DUP1 PUSH4 0x9F2FB76C EQ PUSH2 0x224 JUMPI DUP1 PUSH4 0xAA2CD4C9 EQ PUSH2 0x254 JUMPI PUSH2 0xCF JUMP JUMPDEST DUP1 PUSH4 0x1121E9E8 EQ PUSH2 0xD4 JUMPI DUP1 PUSH4 0x172BDED4 EQ PUSH2 0x104 JUMPI DUP1 PUSH4 0x243565F0 EQ PUSH2 0x134 JUMPI DUP1 PUSH4 0x266001D3 EQ PUSH2 0x164 JUMPI DUP1 PUSH4 0x2F852DF3 EQ PUSH2 0x194 JUMPI DUP1 PUSH4 0x48E12CAC EQ PUSH2 0x1C4 JUMPI JUMPDEST PUSH1 0x0 DUP1 REVERT JUMPDEST PUSH2 0xEE PUSH1 0x4 DUP1 CALLDATASIZE SUB DUP2 ADD SWAP1 PUSH2 0xE9 SWAP2 SWAP1 PUSH2 0x1431 JUMP JUMPDEST PUSH2 0x332 JUMP JUMPDEST PUSH1 0x40 MLOAD PUSH2 0xFB SWAP2 SWAP1 PUSH2 0x154E JUMP JUMPDEST PUSH1 0x40 MLOAD DUP1 SWAP2 SUB SWAP1 RETURN JUMPDEST PUSH2 0x11E PUSH1 0x4 DUP1 CALLDATASIZE SUB DUP2 ADD SWAP1 PUSH2 0x119 SWAP2 SWAP1 PUSH2 0x1570 JUMP JUMPDEST PUSH2 0x3E5 JUMP JUMPDEST PUSH1 0x40 MLOAD PUSH2 0x12B SWAP2 SWAP1 PUSH2 0x1640 JUMP JUMPDEST PUSH1 0x40 MLOAD DUP1 SWAP2 SUB SWAP1 RETURN JUMPDEST PUSH2 0x14E PUSH1 0x4 DUP1 CALLDATASIZE SUB DUP2 ADD SWAP1 PUSH2 0x149 SWAP2 SWAP1 PUSH2 0x1431 JUMP JUMPDEST PUSH2 0x490 JUMP JUMPDEST PUSH1 0x40 MLOAD PUSH2 0x15B SWAP2 SWAP1 PUSH2 0x154E JUMP JUMPDEST PUSH1 0x40 MLOAD DUP1 SWAP2 SUB SWAP1 RETURN JUMPDEST PUSH2 0x17E PUSH1 0x4 DUP1 CALLDATASIZE SUB DUP2 ADD SWAP1 PUSH2 0x179 SWAP2 SWAP1 PUSH2 0x1797 JUMP JUMPDEST PUSH2 0x758 JUMP JUMPDEST PUSH1 0x40 MLOAD PUSH2 0x18B SWAP2 SWAP1 PUSH2 0x1640 JUMP JUMPDEST PUSH1 0x40 MLOAD DUP1 SWAP2 SUB SWAP1 RETURN JUMPDEST PUSH2 0x1AE PUSH1 0x4 DUP1 CALLDATASIZE SUB DUP2 ADD SWAP1 PUSH2 0x1A9 SWAP2 SWAP1 PUSH2 0x1431 JUMP JUMPDEST PUSH2 0x784 JUMP JUMPDEST PUSH1 0x40 MLOAD PUSH2 0x1BB SWAP2 SWAP1 PUSH2 0x1640 JUMP JUMPDEST PUSH1 0x40 MLOAD DUP1 SWAP2 SUB SWAP1 RETURN JUMPDEST PUSH2 0x1DE PUSH1 0x4 DUP1 CALLDATASIZE SUB DUP2 ADD SWAP1 PUSH2 0x1D9 SWAP2 SWAP1 PUSH2 0x1431 JUMP JUMPDEST PUSH2 0x8B8 JUMP JUMPDEST PUSH1 0x40 MLOAD PUSH2 0x1EB SWAP2 SWAP1 PUSH2 0x154E JUMP JUMPDEST PUSH1 0x40 MLOAD DUP1 SWAP2 SUB SWAP1 RETURN JUMPDEST PUSH2 0x20E PUSH1 0x4 DUP1 CALLDATASIZE SUB DUP2 ADD SWAP1 PUSH2 0x209 SWAP2 SWAP1 PUSH2 0x1431 JUMP JUMPDEST PUSH2 0x96B JUMP JUMPDEST PUSH1 0x40 MLOAD PUSH2 0x21B SWAP2 SWAP1 PUSH2 0x1640 JUMP JUMPDEST PUSH1 0x40 MLOAD DUP1 SWAP2 SUB SWAP1 RETURN JUMPDEST PUSH2 0x23E PUSH1 0x4 DUP1 CALLDATASIZE SUB DUP2 ADD SWAP1 PUSH2 0x239 SWAP2 SWAP1 PUSH2 0x1431 JUMP JUMPDEST PUSH2 0xA9F JUMP JUMPDEST PUSH1 0x40 MLOAD PUSH2 0x24B SWAP2 SWAP1 PUSH2 0x191B JUMP JUMPDEST PUSH1 0x40 MLOAD DUP1 SWAP2 SUB SWAP1 RETURN JUMPDEST PUSH2 0x26E PUSH1 0x4 DUP1 CALLDATASIZE SUB DUP2 ADD SWAP1 PUSH2 0x269 SWAP2 SWAP1 PUSH2 0x1431 JUMP JUMPDEST PUSH2 0xC9B JUMP JUMPDEST PUSH1 0x40 MLOAD PUSH2 0x27B SWAP2 SWAP1 PUSH2 0x154E JUMP JUMPDEST PUSH1 0x40 MLOAD DUP1 SWAP2 SUB SWAP1 RETURN JUMPDEST PUSH2 0x29E PUSH1 0x4 DUP1 CALLDATASIZE SUB DUP2 ADD SWAP1 PUSH2 0x299 SWAP2 SWAP1 PUSH2 0x1431 JUMP JUMPDEST PUSH2 0xD4E JUMP JUMPDEST PUSH1 0x40 MLOAD PUSH2 0x2AB SWAP2 SWAP1 PUSH2 0x1640 JUMP JUMPDEST PUSH1 0x40 MLOAD DUP1 SWAP2 SUB SWAP1 RETURN JUMPDEST PUSH2 0x2BC PUSH2 0xE82 JUMP JUMPDEST PUSH1 0x40 MLOAD PUSH2 0x2C9 SWAP2 SWAP1 PUSH2 0x199C JUMP JUMPDEST PUSH1 0x40 MLOAD DUP1 SWAP2 SUB SWAP1 RETURN JUMPDEST PUSH2 0x2EC PUSH1 0x4 DUP1 CALLDATASIZE SUB DUP2 ADD SWAP1 PUSH2 0x2E7 SWAP2 SWAP1 PUSH2 0x1431 JUMP JUMPDEST PUSH2 0xEA6 JUMP JUMPDEST PUSH1 0x40 MLOAD PUSH2 0x2F9 SWAP2 SWAP1 PUSH2 0x154E JUMP JUMPDEST PUSH1 0x40 MLOAD DUP1 SWAP2 SUB SWAP1 RETURN JUMPDEST PUSH2 0x31C PUSH1 0x4 DUP1 CALLDATASIZE SUB DUP2 ADD SWAP1 PUSH2 0x317 SWAP2 SWAP1 PUSH2 0x1431 JUMP JUMPDEST PUSH2 0xF59 JUMP JUMPDEST PUSH1 0x40 MLOAD PUSH2 0x329 SWAP2 SWAP1 PUSH2 0x1640 JUMP JUMPDEST PUSH1 0x40 MLOAD DUP1 SWAP2 SUB SWAP1 RETURN JUMPDEST PUSH1 0x60 PUSH1 0x0 DUP1 SLOAD SWAP1 PUSH2 0x100 EXP SWAP1 DIV PUSH20 0xFFFFFFFFFFFFFFFFFFFFFFFFFFFFFFFFFFFFFFFF AND PUSH20 0xFFFFFFFFFFFFFFFFFFFFFFFFFFFFFFFFFFFFFFFF AND PUSH4 0x563AC793 PUSH1 0x0 PUSH2 0x37B DUP6 PUSH2 0xD4E JUMP JUMPDEST PUSH1 0x40 MLOAD DUP4 PUSH4 0xFFFFFFFF AND PUSH1 0xE0 SHL DUP2 MSTORE PUSH1 0x4 ADD PUSH2 0x398 SWAP3 SWAP2 SWAP1 PUSH2 0x19F2 JUMP JUMPDEST PUSH1 0x0 PUSH1 0x40 MLOAD DUP1 DUP4 SUB DUP2 DUP7 GAS STATICCALL ISZERO DUP1 ISZERO PUSH2 0x3B5 JUMPI RETURNDATASIZE PUSH1 0x0 DUP1 RETURNDATACOPY RETURNDATASIZE PUSH1 0x0 REVERT JUMPDEST POP POP POP POP PUSH1 0x40 MLOAD RETURNDATASIZE PUSH1 0x0 DUP3 RETURNDATACOPY RETURNDATASIZE PUSH1 0x1F NOT PUSH1 0x1F DUP3 ADD AND DUP3 ADD DUP1 PUSH1 0x40 MSTORE POP DUP2 ADD SWAP1 PUSH2 0x3DE SWAP2 SWAP1 PUSH2 0x1B16 JUMP JUMPDEST SWAP1 POP SWAP2 SWAP1 POP JUMP JUMPDEST PUSH1 0x60 DUP1 PUSH1 0xA DUP5 LT ISZERO PUSH2 0x41F JUMPI PUSH1 0x0 PUSH2 0x3FC DUP6 PUSH2 0x108D JUMP JUMPDEST SWAP1 POP PUSH1 0x0 PUSH2 0x40A PUSH1 0x0 PUSH2 0x108D JUMP JUMPDEST SWAP1 POP PUSH2 0x416 DUP2 DUP4 PUSH2 0x758 JUMP JUMPDEST SWAP3 POP POP POP PUSH2 0x431 JUMP JUMPDEST PUSH1 0x0 PUSH2 0x42A DUP6 PUSH2 0x108D JUMP JUMPDEST SWAP1 POP DUP1 SWAP2 POP POP JUMPDEST PUSH1 0x60 PUSH1 0xA DUP5 LT ISZERO PUSH2 0x46A JUMPI PUSH1 0x0 PUSH2 0x447 DUP6 PUSH2 0x108D JUMP JUMPDEST SWAP1 POP PUSH1 0x0 PUSH2 0x455 PUSH1 0x0 PUSH2 0x108D JUMP JUMPDEST SWAP1 POP PUSH2 0x461 DUP2 DUP4 PUSH2 0x758 JUMP JUMPDEST SWAP3 POP POP POP PUSH2 0x47C JUMP JUMPDEST PUSH1 0x0 PUSH2 0x475 DUP6 PUSH2 0x108D JUMP JUMPDEST SWAP1 POP DUP1 SWAP2 POP POP JUMPDEST PUSH2 0x486 DUP3 DUP3 PUSH2 0x758 JUMP JUMPDEST SWAP3 POP POP POP SWAP3 SWAP2 POP POP JUMP JUMPDEST PUSH1 0x60 PUSH1 0x0 PUSH2 0x49D DUP4 PUSH2 0xA9F JUMP JUMPDEST SWAP1 POP PUSH1 0x0 PUSH1 0x64 SWAP1 POP PUSH1 0x0 DUP2 PUSH1 0x3 PUSH2 0x4B4 SWAP2 SWAP1 PUSH2 0x1B8E JUMP JUMPDEST PUSH8 0xFFFFFFFFFFFFFFFF DUP2 GT ISZERO PUSH2 0x4CD JUMPI PUSH2 0x4CC PUSH2 0x166C JUMP JUMPDEST JUMPDEST PUSH1 0x40 MLOAD SWAP1 DUP1 DUP3 MSTORE DUP1 PUSH1 0x20 MUL PUSH1 0x20 ADD DUP3 ADD PUSH1 0x40 MSTORE DUP1 ISZERO PUSH2 0x4FB JUMPI DUP2 PUSH1 0x20 ADD PUSH1 0x20 DUP3 MUL DUP1 CALLDATASIZE DUP4 CALLDATACOPY DUP1 DUP3 ADD SWAP2 POP POP SWAP1 POP JUMPDEST POP SWAP1 POP PUSH1 0x0 DUP1 JUMPDEST PUSH1 0x3 DUP2 LT ISZERO PUSH2 0x676 JUMPI PUSH1 0x0 DUP1 PUSH1 0x0 SWAP1 SLOAD SWAP1 PUSH2 0x100 EXP SWAP1 DIV PUSH20 0xFFFFFFFFFFFFFFFFFFFFFFFFFFFFFFFFFFFFFFFF AND PUSH20 0xFFFFFFFFFFFFFFFFFFFFFFFFFFFFFFFFFFFFFFFF AND PUSH4 0x563AC793 PUSH1 0x0 DUP9 DUP6 DUP2 MLOAD DUP2 LT PUSH2 0x55F JUMPI PUSH2 0x55E PUSH2 0x1BD0 JUMP JUMPDEST JUMPDEST PUSH1 0x20 MUL PUSH1 0x20 ADD ADD MLOAD PUSH1 0x40 MLOAD DUP4 PUSH4 0xFFFFFFFF AND PUSH1 0xE0 SHL DUP2 MSTORE PUSH1 0x4 ADD PUSH2 0x584 SWAP3 SWAP2 SWAP1 PUSH2 0x19F2 JUMP JUMPDEST PUSH1 0x0 PUSH1 0x40 MLOAD DUP1 DUP4 SUB DUP2 DUP7 GAS STATICCALL ISZERO DUP1 ISZERO PUSH2 0x5A1 JUMPI RETURNDATASIZE PUSH1 0x0 DUP1 RETURNDATACOPY RETURNDATASIZE PUSH1 0x0 REVERT JUMPDEST POP POP POP POP PUSH1 0x40 MLOAD RETURNDATASIZE PUSH1 0x0 DUP3 RETURNDATACOPY RETURNDATASIZE PUSH1 0x1F NOT PUSH1 0x1F DUP3 ADD AND DUP3 ADD DUP1 PUSH1 0x40 MSTORE POP DUP2 ADD SWAP1 PUSH2 0x5CA SWAP2 SWAP1 PUSH2 0x1B16 JUMP JUMPDEST SWAP1 POP PUSH1 0x0 JUMPDEST DUP2 MLOAD DUP2 LT ISZERO PUSH2 0x661 JUMPI DUP2 DUP2 DUP2 MLOAD DUP2 LT PUSH2 0x5EB JUMPI PUSH2 0x5EA PUSH2 0x1BD0 JUMP JUMPDEST JUMPDEST PUSH1 0x20 MUL PUSH1 0x20 ADD ADD MLOAD DUP6 DUP6 DUP2 MLOAD DUP2 LT PUSH2 0x606 JUMPI PUSH2 0x605 PUSH2 0x1BD0 JUMP JUMPDEST JUMPDEST PUSH1 0x20 MUL PUSH1 0x20 ADD ADD SWAP1 PUSH20 0xFFFFFFFFFFFFFFFFFFFFFFFFFFFFFFFFFFFFFFFF AND SWAP1 DUP2 PUSH20 0xFFFFFFFFFFFFFFFFFFFFFFFFFFFFFFFFFFFFFFFF AND DUP2 MSTORE POP POP DUP4 DUP1 PUSH2 0x64B SWAP1 PUSH2 0x1BFF JUMP JUMPDEST SWAP5 POP POP DUP1 DUP1 PUSH2 0x659 SWAP1 PUSH2 0x1BFF JUMP JUMPDEST SWAP2 POP POP PUSH2 0x5CF JUMP JUMPDEST POP POP DUP1 DUP1 PUSH2 0x66E SWAP1 PUSH2 0x1BFF JUMP JUMPDEST SWAP2 POP POP PUSH2 0x502 JUMP JUMPDEST POP PUSH1 0x0 DUP2 PUSH8 0xFFFFFFFFFFFFFFFF DUP2 GT ISZERO PUSH2 0x693 JUMPI PUSH2 0x692 PUSH2 0x166C JUMP JUMPDEST JUMPDEST PUSH1 0x40 MLOAD SWAP1 DUP1 DUP3 MSTORE DUP1 PUSH1 0x20 MUL PUSH1 0x20 ADD DUP3 ADD PUSH1 0x40 MSTORE DUP1 ISZERO PUSH2 0x6C1 JUMPI DUP2 PUSH1 0x20 ADD PUSH1 0x20 DUP3 MUL DUP1 CALLDATASIZE DUP4 CALLDATACOPY DUP1 DUP3 ADD SWAP2 POP POP SWAP1 POP JUMPDEST POP SWAP1 POP PUSH1 0x0 JUMPDEST DUP3 DUP2 LT ISZERO PUSH2 0x74A JUMPI DUP4 DUP2 DUP2 MLOAD DUP2 LT PUSH2 0x6E2 JUMPI PUSH2 0x6E1 PUSH2 0x1BD0 JUMP JUMPDEST JUMPDEST PUSH1 0x20 MUL PUSH1 0x20 ADD ADD MLOAD DUP3 DUP3 DUP2 MLOAD DUP2 LT PUSH2 0x6FD JUMPI PUSH2 0x6FC PUSH2 0x1BD0 JUMP JUMPDEST JUMPDEST PUSH1 0x20 MUL PUSH1 0x20 ADD ADD SWAP1 PUSH20 0xFFFFFFFFFFFFFFFFFFFFFFFFFFFFFFFFFFFFFFFF AND SWAP1 DUP2 PUSH20 0xFFFFFFFFFFFFFFFFFFFFFFFFFFFFFFFFFFFFFFFF AND DUP2 MSTORE POP POP DUP1 DUP1 PUSH2 0x742 SWAP1 PUSH2 0x1BFF JUMP JUMPDEST SWAP2 POP POP PUSH2 0x6C7 JUMP JUMPDEST POP DUP1 SWAP6 POP POP POP POP POP POP SWAP2 SWAP1 POP JUMP JUMPDEST PUSH1 0x60 DUP3 DUP3 PUSH1 0x40 MLOAD PUSH1 0x20 ADD PUSH2 0x76D SWAP3 SWAP2 SWAP1 PUSH2 0x1C83 JUMP JUMPDEST PUSH1 0x40 MLOAD PUSH1 0x20 DUP2 DUP4 SUB SUB DUP2 MSTORE SWAP1 PUSH1 0x40 MSTORE SWAP1 POP SWAP3 SWAP2 POP POP JUMP JUMPDEST PUSH1 0x60 PUSH1 0x0 DUP1 PUSH1 0x0 PUSH2 0x794 DUP6 PUSH2 0x115B JUMP JUMPDEST DUP1 SWAP4 POP DUP2 SWAP5 POP DUP3 SWAP6 POP POP POP POP PUSH1 0x4 DUP3 EQ DUP1 PUSH2 0x7AF JUMPI POP PUSH1 0x6 DUP3 EQ JUMPDEST DUP1 PUSH2 0x7BA JUMPI POP PUSH1 0x9 DUP3 EQ JUMPDEST DUP1 PUSH2 0x7C5 JUMPI POP PUSH1 0xB DUP3 EQ JUMPDEST ISZERO PUSH2 0x806 JUMPI PUSH1 0xE DUP2 PUSH2 0x7D7 SWAP2 SWAP1 PUSH2 0x1CA7 JUMP JUMPDEST SWAP1 POP PUSH1 0x1E DUP2 GT ISZERO PUSH2 0x801 JUMPI PUSH1 0x1E DUP2 PUSH2 0x7EF SWAP2 SWAP1 PUSH2 0x1D0A JUMP JUMPDEST SWAP1 POP PUSH1 0x1 DUP3 PUSH2 0x7FE SWAP2 SWAP1 PUSH2 0x1CA7 JUMP JUMPDEST SWAP2 POP JUMPDEST PUSH2 0x8A4 JUMP JUMPDEST PUSH1 0x2 DUP3 SUB PUSH2 0x84A JUMPI PUSH1 0xE DUP2 PUSH2 0x81B SWAP2 SWAP1 PUSH2 0x1CA7 JUMP JUMPDEST SWAP1 POP PUSH1 0x1C DUP2 GT ISZERO PUSH2 0x845 JUMPI PUSH1 0x1C DUP2 PUSH2 0x833 SWAP2 SWAP1 PUSH2 0x1D0A JUMP JUMPDEST SWAP1 POP PUSH1 0x1 DUP3 PUSH2 0x842 SWAP2 SWAP1 PUSH2 0x1CA7 JUMP JUMPDEST SWAP2 POP JUMPDEST PUSH2 0x8A3 JUMP JUMPDEST PUSH1 0xE DUP2 PUSH2 0x857 SWAP2 SWAP1 PUSH2 0x1CA7 JUMP JUMPDEST SWAP1 POP PUSH1 0x1F DUP2 GT ISZERO PUSH2 0x8A2 JUMPI PUSH1 0x1F DUP2 PUSH2 0x86F SWAP2 SWAP1 PUSH2 0x1D0A JUMP JUMPDEST SWAP1 POP PUSH1 0xC DUP3 SUB PUSH2 0x891 JUMPI PUSH1 0x1 SWAP2 POP PUSH1 0x1 DUP4 PUSH2 0x88A SWAP2 SWAP1 PUSH2 0x1CA7 JUMP JUMPDEST SWAP3 POP PUSH2 0x8A1 JUMP JUMPDEST PUSH1 0x1 DUP3 PUSH2 0x89E SWAP2 SWAP1 PUSH2 0x1CA7 JUMP JUMPDEST SWAP2 POP JUMPDEST JUMPDEST JUMPDEST JUMPDEST PUSH2 0x8AE DUP2 DUP4 PUSH2 0x3E5 JUMP JUMPDEST SWAP4 POP POP POP POP SWAP2 SWAP1 POP JUMP JUMPDEST PUSH1 0x60 PUSH1 0x0 DUP1 SLOAD SWAP1 PUSH2 0x100 EXP SWAP1 DIV PUSH20 0xFFFFFFFFFFFFFFFFFFFFFFFFFFFFFFFFFFFFFFFF AND PUSH20 0xFFFFFFFFFFFFFFFFFFFFFFFFFFFFFFFFFFFFFFFF AND PUSH4 0x563AC793 PUSH1 0x0 PUSH2 0x901 DUP6 PUSH2 0x784 JUMP JUMPDEST PUSH1 0x40 MLOAD DUP4 PUSH4 0xFFFFFFFF AND PUSH1 0xE0 SHL DUP2 MSTORE PUSH1 0x4 ADD PUSH2 0x91E SWAP3 SWAP2 SWAP1 PUSH2 0x19F2 JUMP JUMPDEST PUSH1 0x0 PUSH1 0x40 MLOAD DUP1 DUP4 SUB DUP2 DUP7 GAS STATICCALL ISZERO DUP1 ISZERO PUSH2 0x93B JUMPI RETURNDATASIZE PUSH1 0x0 DUP1 RETURNDATACOPY RETURNDATASIZE PUSH1 0x0 REVERT JUMPDEST POP POP POP POP PUSH1 0x40 MLOAD RETURNDATASIZE PUSH1 0x0 DUP3 RETURNDATACOPY RETURNDATASIZE PUSH1 0x1F NOT PUSH1 0x1F DUP3 ADD AND DUP3 ADD DUP1 PUSH1 0x40 MSTORE POP DUP2 ADD SWAP1 PUSH2 0x964 SWAP2 SWAP1 PUSH2 0x1B16 JUMP JUMPDEST SWAP1 POP SWAP2 SWAP1 POP JUMP JUMPDEST PUSH1 0x60 PUSH1 0x0 DUP1 PUSH1 0x0 PUSH2 0x97B DUP6 PUSH2 0x115B JUMP JUMPDEST DUP1 SWAP4 POP DUP2 SWAP5 POP DUP3 SWAP6 POP POP POP POP PUSH1 0x4 DUP3 EQ DUP1 PUSH2 0x996 JUMPI POP PUSH1 0x6 DUP3 EQ JUMPDEST DUP1 PUSH2 0x9A1 JUMPI POP PUSH1 0x9 DUP3 EQ JUMPDEST DUP1 PUSH2 0x9AC JUMPI POP PUSH1 0xB DUP3 EQ JUMPDEST ISZERO PUSH2 0x9ED JUMPI PUSH1 0x3 DUP2 PUSH2 0x9BE SWAP2 SWAP1 PUSH2 0x1CA7 JUMP JUMPDEST SWAP1 POP PUSH1 0x1E DUP2 GT ISZERO PUSH2 0x9E8 JUMPI PUSH1 0x1E DUP2 PUSH2 0x9D6 SWAP2 SWAP1 PUSH2 0x1D0A JUMP JUMPDEST SWAP1 POP PUSH1 0x1 DUP3 PUSH2 0x9E5 SWAP2 SWAP1 PUSH2 0x1CA7 JUMP JUMPDEST SWAP2 POP JUMPDEST PUSH2 0xA8B JUMP JUMPDEST PUSH1 0x2 DUP3 SUB PUSH2 0xA31 JUMPI PUSH1 0x3 DUP2 PUSH2 0xA02 SWAP2 SWAP1 PUSH2 0x1CA7 JUMP JUMPDEST SWAP1 POP PUSH1 0x1C DUP2 GT ISZERO PUSH2 0xA2C JUMPI PUSH1 0x1C DUP2 PUSH2 0xA1A SWAP2 SWAP1 PUSH2 0x1D0A JUMP JUMPDEST SWAP1 POP PUSH1 0x1 DUP3 PUSH2 0xA29 SWAP2 SWAP1 PUSH2 0x1CA7 JUMP JUMPDEST SWAP2 POP JUMPDEST PUSH2 0xA8A JUMP JUMPDEST PUSH1 0x3 DUP2 PUSH2 0xA3E SWAP2 SWAP1 PUSH2 0x1CA7 JUMP JUMPDEST SWAP1 POP PUSH1 0x1F DUP2 GT ISZERO PUSH2 0xA89 JUMPI PUSH1 0x1F DUP2 PUSH2 0xA56 SWAP2 SWAP1 PUSH2 0x1D0A JUMP JUMPDEST SWAP1 POP PUSH1 0xC DUP3 SUB PUSH2 0xA78 JUMPI PUSH1 0x1 SWAP2 POP PUSH1 0x1 DUP4 PUSH2 0xA71 SWAP2 SWAP1 PUSH2 0x1CA7 JUMP JUMPDEST SWAP3 POP PUSH2 0xA88 JUMP JUMPDEST PUSH1 0x1 DUP3 PUSH2 0xA85 SWAP2 SWAP1 PUSH2 0x1CA7 JUMP JUMPDEST SWAP2 POP JUMPDEST JUMPDEST JUMPDEST JUMPDEST PUSH2 0xA95 DUP2 DUP4 PUSH2 0x3E5 JUMP JUMPDEST SWAP4 POP POP POP POP SWAP2 SWAP1 POP JUMP JUMPDEST PUSH1 0x60 PUSH1 0x0 DUP1 PUSH1 0x0 DUP1 PUSH1 0x60 PUSH1 0x0 PUSH1 0x3 PUSH8 0xFFFFFFFFFFFFFFFF DUP2 GT ISZERO PUSH2 0xAC6 JUMPI PUSH2 0xAC5 PUSH2 0x166C JUMP JUMPDEST JUMPDEST PUSH1 0x40 MLOAD SWAP1 DUP1 DUP3 MSTORE DUP1 PUSH1 0x20 MUL PUSH1 0x20 ADD DUP3 ADD PUSH1 0x40 MSTORE DUP1 ISZERO PUSH2 0xAF9 JUMPI DUP2 PUSH1 0x20 ADD JUMPDEST PUSH1 0x60 DUP2 MSTORE PUSH1 0x20 ADD SWAP1 PUSH1 0x1 SWAP1 SUB SWAP1 DUP2 PUSH2 0xAE4 JUMPI SWAP1 POP JUMPDEST POP SWAP1 POP PUSH2 0xB05 DUP9 PUSH2 0x115B JUMP JUMPDEST DUP1 SWAP7 POP DUP2 SWAP8 POP DUP3 SWAP9 POP POP POP POP PUSH2 0xB1B DUP5 DUP7 PUSH2 0x3E5 JUMP JUMPDEST SWAP2 POP DUP2 DUP2 PUSH1 0x0 DUP2 MLOAD DUP2 LT PUSH2 0xB32 JUMPI PUSH2 0xB31 PUSH2 0x1BD0 JUMP JUMPDEST JUMPDEST PUSH1 0x20 MUL PUSH1 0x20 ADD ADD DUP2 SWAP1 MSTORE POP PUSH1 0x1 SWAP3 POP JUMPDEST PUSH1 0x3 DUP4 LT ISZERO PUSH2 0xC8D JUMPI PUSH1 0x4 DUP6 EQ DUP1 PUSH2 0xB5A JUMPI POP PUSH1 0x6 DUP6 EQ JUMPDEST DUP1 PUSH2 0xB65 JUMPI POP PUSH1 0x9 DUP6 EQ JUMPDEST DUP1 PUSH2 0xB70 JUMPI POP PUSH1 0xB DUP6 EQ JUMPDEST ISZERO PUSH2 0xBB1 JUMPI PUSH1 0x1 DUP5 PUSH2 0xB82 SWAP2 SWAP1 PUSH2 0x1D3B JUMP JUMPDEST SWAP4 POP PUSH1 0x1E DUP5 GT ISZERO PUSH2 0xBAC JUMPI PUSH1 0x1E DUP5 PUSH2 0xB9A SWAP2 SWAP1 PUSH2 0x1D0A JUMP JUMPDEST SWAP4 POP PUSH1 0x1 DUP6 PUSH2 0xBA9 SWAP2 SWAP1 PUSH2 0x1CA7 JUMP JUMPDEST SWAP5 POP JUMPDEST PUSH2 0xC4F JUMP JUMPDEST PUSH1 0x2 DUP6 SUB PUSH2 0xBF5 JUMPI PUSH1 0x1 DUP5 PUSH2 0xBC6 SWAP2 SWAP1 PUSH2 0x1D3B JUMP JUMPDEST SWAP4 POP PUSH1 0x1C DUP5 GT ISZERO PUSH2 0xBF0 JUMPI PUSH1 0x1C DUP5 PUSH2 0xBDE SWAP2 SWAP1 PUSH2 0x1D0A JUMP JUMPDEST SWAP4 POP PUSH1 0x1 DUP6 PUSH2 0xBED SWAP2 SWAP1 PUSH2 0x1CA7 JUMP JUMPDEST SWAP5 POP JUMPDEST PUSH2 0xC4E JUMP JUMPDEST PUSH1 0x1 DUP5 PUSH2 0xC02 SWAP2 SWAP1 PUSH2 0x1D3B JUMP JUMPDEST SWAP4 POP PUSH1 0x1F DUP5 GT ISZERO PUSH2 0xC4D JUMPI PUSH1 0x1F DUP5 PUSH2 0xC1A SWAP2 SWAP1 PUSH2 0x1D0A JUMP JUMPDEST SWAP4 POP PUSH1 0xC DUP6 SUB PUSH2 0xC3C JUMPI PUSH1 0x1 SWAP5 POP PUSH1 0x1 DUP7 PUSH2 0xC35 SWAP2 SWAP1 PUSH2 0x1CA7 JUMP JUMPDEST SWAP6 POP PUSH2 0xC4C JUMP JUMPDEST PUSH1 0x1 DUP6 PUSH2 0xC49 SWAP2 SWAP1 PUSH2 0x1CA7 JUMP JUMPDEST SWAP5 POP JUMPDEST JUMPDEST JUMPDEST JUMPDEST PUSH2 0xC59 DUP5 DUP7 PUSH2 0x3E5 JUMP JUMPDEST SWAP2 POP DUP2 DUP2 DUP5 DUP2 MLOAD DUP2 LT PUSH2 0xC6F JUMPI PUSH2 0xC6E PUSH2 0x1BD0 JUMP JUMPDEST JUMPDEST PUSH1 0x20 MUL PUSH1 0x20 ADD ADD DUP2 SWAP1 MSTORE POP DUP3 DUP1 PUSH2 0xC85 SWAP1 PUSH2 0x1BFF JUMP JUMPDEST SWAP4 POP POP PUSH2 0xB42 JUMP JUMPDEST DUP1 SWAP7 POP POP POP POP POP POP POP SWAP2 SWAP1 POP JUMP JUMPDEST PUSH1 0x60 PUSH1 0x0 DUP1 SLOAD SWAP1 PUSH2 0x100 EXP SWAP1 DIV PUSH20 0xFFFFFFFFFFFFFFFFFFFFFFFFFFFFFFFFFFFFFFFF AND PUSH20 0xFFFFFFFFFFFFFFFFFFFFFFFFFFFFFFFFFFFFFFFF AND PUSH4 0x563AC793 PUSH1 0x0 PUSH2 0xCE4 DUP6 PUSH2 0xF59 JUMP JUMPDEST PUSH1 0x40 MLOAD DUP4 PUSH4 0xFFFFFFFF AND PUSH1 0xE0 SHL DUP2 MSTORE PUSH1 0x4 ADD PUSH2 0xD01 SWAP3 SWAP2 SWAP1 PUSH2 0x19F2 JUMP JUMPDEST PUSH1 0x0 PUSH1 0x40 MLOAD DUP1 DUP4 SUB DUP2 DUP7 GAS STATICCALL ISZERO DUP1 ISZERO PUSH2 0xD1E JUMPI RETURNDATASIZE PUSH1 0x0 DUP1 RETURNDATACOPY RETURNDATASIZE PUSH1 0x0 REVERT JUMPDEST POP POP POP POP PUSH1 0x40 MLOAD RETURNDATASIZE PUSH1 0x0 DUP3 RETURNDATACOPY RETURNDATASIZE PUSH1 0x1F NOT PUSH1 0x1F DUP3 ADD AND DUP3 ADD DUP1 PUSH1 0x40 MSTORE POP DUP2 ADD SWAP1 PUSH2 0xD47 SWAP2 SWAP1 PUSH2 0x1B16 JUMP JUMPDEST SWAP1 POP SWAP2 SWAP1 POP JUMP JUMPDEST PUSH1 0x60 PUSH1 0x0 DUP1 PUSH1 0x0 PUSH2 0xD5E DUP6 PUSH2 0x115B JUMP JUMPDEST DUP1 SWAP4 POP DUP2 SWAP5 POP DUP3 SWAP6 POP POP POP POP PUSH1 0x4 DUP3 EQ DUP1 PUSH2 0xD79 JUMPI POP PUSH1 0x6 DUP3 EQ JUMPDEST DUP1 PUSH2 0xD84 JUMPI POP PUSH1 0x9 DUP3 EQ JUMPDEST DUP1 PUSH2 0xD8F JUMPI POP PUSH1 0xB DUP3 EQ JUMPDEST ISZERO PUSH2 0xDD0 JUMPI PUSH1 0x1E DUP2 PUSH2 0xDA1 SWAP2 SWAP1 PUSH2 0x1CA7 JUMP JUMPDEST SWAP1 POP PUSH1 0x1E DUP2 GT ISZERO PUSH2 0xDCB JUMPI PUSH1 0x1E DUP2 PUSH2 0xDB9 SWAP2 SWAP1 PUSH2 0x1D0A JUMP JUMPDEST SWAP1 POP PUSH1 0x1 DUP3 PUSH2 0xDC8 SWAP2 SWAP1 PUSH2 0x1CA7 JUMP JUMPDEST SWAP2 POP JUMPDEST PUSH2 0xE6E JUMP JUMPDEST PUSH1 0x2 DUP3 SUB PUSH2 0xE14 JUMPI PUSH1 0x1C DUP2 PUSH2 0xDE5 SWAP2 SWAP1 PUSH2 0x1CA7 JUMP JUMPDEST SWAP1 POP PUSH1 0x1C DUP2 GT ISZERO PUSH2 0xE0F JUMPI PUSH1 0x1C DUP2 PUSH2 0xDFD SWAP2 SWAP1 PUSH2 0x1D0A JUMP JUMPDEST SWAP1 POP PUSH1 0x1 DUP3 PUSH2 0xE0C SWAP2 SWAP1 PUSH2 0x1CA7 JUMP JUMPDEST SWAP2 POP JUMPDEST PUSH2 0xE6D JUMP JUMPDEST PUSH1 0x1F DUP2 PUSH2 0xE21 SWAP2 SWAP1 PUSH2 0x1CA7 JUMP JUMPDEST SWAP1 POP PUSH1 0x1F DUP2 GT ISZERO PUSH2 0xE6C JUMPI PUSH1 0x1F DUP2 PUSH2 0xE39 SWAP2 SWAP1 PUSH2 0x1D0A JUMP JUMPDEST SWAP1 POP PUSH1 0xC DUP3 SUB PUSH2 0xE5B JUMPI PUSH1 0x1 SWAP2 POP PUSH1 0x1 DUP4 PUSH2 0xE54 SWAP2 SWAP1 PUSH2 0x1CA7 JUMP JUMPDEST SWAP3 POP PUSH2 0xE6B JUMP JUMPDEST PUSH1 0x1 DUP3 PUSH2 0xE68 SWAP2 SWAP1 PUSH2 0x1CA7 JUMP JUMPDEST SWAP2 POP JUMPDEST JUMPDEST JUMPDEST JUMPDEST PUSH2 0xE78 DUP2 DUP4 PUSH2 0x3E5 JUMP JUMPDEST SWAP4 POP POP POP POP SWAP2 SWAP1 POP JUMP JUMPDEST PUSH1 0x0 DUP1 SLOAD SWAP1 PUSH2 0x100 EXP SWAP1 DIV PUSH20 0xFFFFFFFFFFFFFFFFFFFFFFFFFFFFFFFFFFFFFFFF AND DUP2 JUMP JUMPDEST PUSH1 0x60 PUSH1 0x0 DUP1 SLOAD SWAP1 PUSH2 0x100 EXP SWAP1 DIV PUSH20 0xFFFFFFFFFFFFFFFFFFFFFFFFFFFFFFFFFFFFFFFF AND PUSH20 0xFFFFFFFFFFFFFFFFFFFFFFFFFFFFFFFFFFFFFFFF AND PUSH4 0x563AC793 PUSH1 0x0 PUSH2 0xEEF DUP6 PUSH2 0x96B JUMP JUMPDEST PUSH1 0x40 MLOAD DUP4 PUSH4 0xFFFFFFFF AND PUSH1 0xE0 SHL DUP2 MSTORE PUSH1 0x4 ADD PUSH2 0xF0C SWAP3 SWAP2 SWAP1 PUSH2 0x19F2 JUMP JUMPDEST PUSH1 0x0 PUSH1 0x40 MLOAD DUP1 DUP4 SUB DUP2 DUP7 GAS STATICCALL ISZERO DUP1 ISZERO PUSH2 0xF29 JUMPI RETURNDATASIZE PUSH1 0x0 DUP1 RETURNDATACOPY RETURNDATASIZE PUSH1 0x0 REVERT JUMPDEST POP POP POP POP PUSH1 0x40 MLOAD RETURNDATASIZE PUSH1 0x0 DUP3 RETURNDATACOPY RETURNDATASIZE PUSH1 0x1F NOT PUSH1 0x1F DUP3 ADD AND DUP3 ADD DUP1 PUSH1 0x40 MSTORE POP DUP2 ADD SWAP1 PUSH2 0xF52 SWAP2 SWAP1 PUSH2 0x1B16 JUMP JUMPDEST SWAP1 POP SWAP2 SWAP1 POP JUMP JUMPDEST PUSH1 0x60 PUSH1 0x0 DUP1 PUSH1 0x0 PUSH2 0xF69 DUP6 PUSH2 0x115B JUMP JUMPDEST DUP1 SWAP4 POP DUP2 SWAP5 POP DUP3 SWAP6 POP POP POP POP PUSH1 0x4 DUP3 EQ DUP1 PUSH2 0xF84 JUMPI POP PUSH1 0x6 DUP3 EQ JUMPDEST DUP1 PUSH2 0xF8F JUMPI POP PUSH1 0x9 DUP3 EQ JUMPDEST DUP1 PUSH2 0xF9A JUMPI POP PUSH1 0xB DUP3 EQ JUMPDEST ISZERO PUSH2 0xFDB JUMPI PUSH1 0x1 DUP2 PUSH2 0xFAC SWAP2 SWAP1 PUSH2 0x1CA7 JUMP JUMPDEST SWAP1 POP PUSH1 0x1E DUP2 GT ISZERO PUSH2 0xFD6 JUMPI PUSH1 0x1E DUP2 PUSH2 0xFC4 SWAP2 SWAP1 PUSH2 0x1D0A JUMP JUMPDEST SWAP1 POP PUSH1 0x1 DUP3 PUSH2 0xFD3 SWAP2 SWAP1 PUSH2 0x1CA7 JUMP JUMPDEST SWAP2 POP JUMPDEST PUSH2 0x1079 JUMP JUMPDEST PUSH1 0x2 DUP3 SUB PUSH2 0x101F JUMPI PUSH1 0x1 DUP2 PUSH2 0xFF0 SWAP2 SWAP1 PUSH2 0x1CA7 JUMP JUMPDEST SWAP1 POP PUSH1 0x1C DUP2 GT ISZERO PUSH2 0x101A JUMPI PUSH1 0x1C DUP2 PUSH2 0x1008 SWAP2 SWAP1 PUSH2 0x1D0A JUMP JUMPDEST SWAP1 POP PUSH1 0x1 DUP3 PUSH2 0x1017 SWAP2 SWAP1 PUSH2 0x1CA7 JUMP JUMPDEST SWAP2 POP JUMPDEST PUSH2 0x1078 JUMP JUMPDEST PUSH1 0x1 DUP2 PUSH2 0x102C SWAP2 SWAP1 PUSH2 0x1CA7 JUMP JUMPDEST SWAP1 POP PUSH1 0x1F DUP2 GT ISZERO PUSH2 0x1077 JUMPI PUSH1 0x1F DUP2 PUSH2 0x1044 SWAP2 SWAP1 PUSH2 0x1D0A JUMP JUMPDEST SWAP1 POP PUSH1 0xC DUP3 SUB PUSH2 0x1066 JUMPI PUSH1 0x1 SWAP2 POP PUSH1 0x1 DUP4 PUSH2 0x105F SWAP2 SWAP1 PUSH2 0x1CA7 JUMP JUMPDEST SWAP3 POP PUSH2 0x1076 JUMP JUMPDEST PUSH1 0x1 DUP3 PUSH2 0x1073 SWAP2 SWAP1 PUSH2 0x1CA7 JUMP JUMPDEST SWAP2 POP JUMPDEST JUMPDEST JUMPDEST JUMPDEST PUSH2 0x1083 DUP2 DUP4 PUSH2 0x3E5 JUMP JUMPDEST SWAP4 POP POP POP POP SWAP2 SWAP1 POP JUMP JUMPDEST PUSH1 0x60 PUSH1 0x0 PUSH1 0x1 PUSH2 0x109C DUP5 PUSH2 0x118F JUMP JUMPDEST ADD SWAP1 POP PUSH1 0x0 DUP2 PUSH8 0xFFFFFFFFFFFFFFFF DUP2 GT ISZERO PUSH2 0x10BB JUMPI PUSH2 0x10BA PUSH2 0x166C JUMP JUMPDEST JUMPDEST PUSH1 0x40 MLOAD SWAP1 DUP1 DUP3 MSTORE DUP1 PUSH1 0x1F ADD PUSH1 0x1F NOT AND PUSH1 0x20 ADD DUP3 ADD PUSH1 0x40 MSTORE DUP1 ISZERO PUSH2 0x10ED JUMPI DUP2 PUSH1 0x20 ADD PUSH1 0x1 DUP3 MUL DUP1 CALLDATASIZE DUP4 CALLDATACOPY DUP1 DUP3 ADD SWAP2 POP POP SWAP1 POP JUMPDEST POP SWAP1 POP PUSH1 0x0 DUP3 PUSH1 0x20 ADD DUP3 ADD SWAP1 POP JUMPDEST PUSH1 0x1 ISZERO PUSH2 0x1150 JUMPI DUP1 DUP1 PUSH1 0x1 SWAP1 SUB SWAP2 POP POP PUSH32 0x3031323334353637383961626364656600000000000000000000000000000000 PUSH1 0xA DUP7 MOD BYTE DUP2 MSTORE8 PUSH1 0xA DUP6 DUP2 PUSH2 0x1144 JUMPI PUSH2 0x1143 PUSH2 0x1CDB JUMP JUMPDEST JUMPDEST DIV SWAP5 POP PUSH1 0x0 DUP6 SUB PUSH2 0x10FB JUMPI JUMPDEST DUP2 SWAP4 POP POP POP POP SWAP2 SWAP1 POP JUMP JUMPDEST PUSH1 0x0 DUP1 PUSH1 0x0 PUSH2 0x117C PUSH3 0x15180 DUP6 DUP2 PUSH2 0x1176 JUMPI PUSH2 0x1175 PUSH2 0x1CDB JUMP JUMPDEST JUMPDEST DIV PUSH2 0x12E2 JUMP JUMPDEST DUP1 SWAP4 POP DUP2 SWAP5 POP DUP3 SWAP6 POP POP POP POP SWAP2 SWAP4 SWAP1 SWAP3 POP JUMP JUMPDEST PUSH1 0x0 DUP1 PUSH1 0x0 SWAP1 POP PUSH27 0x184F03E93FF9F4DAA797ED6E38ED64BF6A1F010000000000000000 DUP4 LT PUSH2 0x11ED JUMPI PUSH27 0x184F03E93FF9F4DAA797ED6E38ED64BF6A1F010000000000000000 DUP4 DUP2 PUSH2 0x11E3 JUMPI PUSH2 0x11E2 PUSH2 0x1CDB JUMP JUMPDEST JUMPDEST DIV SWAP3 POP PUSH1 0x40 DUP2 ADD SWAP1 POP JUMPDEST PUSH14 0x4EE2D6D415B85ACEF8100000000 DUP4 LT PUSH2 0x122A JUMPI PUSH14 0x4EE2D6D415B85ACEF8100000000 DUP4 DUP2 PUSH2 0x1220 JUMPI PUSH2 0x121F PUSH2 0x1CDB JUMP JUMPDEST JUMPDEST DIV SWAP3 POP PUSH1 0x20 DUP2 ADD SWAP1 POP JUMPDEST PUSH7 0x2386F26FC10000 DUP4 LT PUSH2 0x1259 JUMPI PUSH7 0x2386F26FC10000 DUP4 DUP2 PUSH2 0x124F JUMPI PUSH2 0x124E PUSH2 0x1CDB JUMP JUMPDEST JUMPDEST DIV SWAP3 POP PUSH1 0x10 DUP2 ADD SWAP1 POP JUMPDEST PUSH4 0x5F5E100 DUP4 LT PUSH2 0x1282 JUMPI PUSH4 0x5F5E100 DUP4 DUP2 PUSH2 0x1278 JUMPI PUSH2 0x1277 PUSH2 0x1CDB JUMP JUMPDEST JUMPDEST DIV SWAP3 POP PUSH1 0x8 DUP2 ADD SWAP1 POP JUMPDEST PUSH2 0x2710 DUP4 LT PUSH2 0x12A7 JUMPI PUSH2 0x2710 DUP4 DUP2 PUSH2 0x129D JUMPI PUSH2 0x129C PUSH2 0x1CDB JUMP JUMPDEST JUMPDEST DIV SWAP3 POP PUSH1 0x4 DUP2 ADD SWAP1 POP JUMPDEST PUSH1 0x64 DUP4 LT PUSH2 0x12CA JUMPI PUSH1 0x64 DUP4 DUP2 PUSH2 0x12C0 JUMPI PUSH2 0x12BF PUSH2 0x1CDB JUMP JUMPDEST JUMPDEST DIV SWAP3 POP PUSH1 0x2 DUP2 ADD SWAP1 POP JUMPDEST PUSH1 0xA DUP4 LT PUSH2 0x12D9 JUMPI PUSH1 0x1 DUP2 ADD SWAP1 POP JUMPDEST DUP1 SWAP2 POP POP SWAP2 SWAP1 POP JUMP JUMPDEST PUSH1 0x0 DUP1 PUSH1 0x0 DUP1 DUP5 SWAP1 POP PUSH1 0x0 PUSH3 0x253D8C PUSH3 0x10BD9 DUP4 ADD ADD SWAP1 POP PUSH1 0x0 PUSH3 0x23AB1 DUP3 PUSH1 0x4 MUL DUP2 PUSH2 0x1312 JUMPI PUSH2 0x1311 PUSH2 0x1CDB JUMP JUMPDEST JUMPDEST SDIV SWAP1 POP PUSH1 0x4 PUSH1 0x3 DUP3 PUSH3 0x23AB1 MUL ADD DUP2 PUSH2 0x132E JUMPI PUSH2 0x132D PUSH2 0x1CDB JUMP JUMPDEST JUMPDEST SDIV DUP3 SUB SWAP2 POP PUSH1 0x0 PUSH3 0x164B09 PUSH1 0x1 DUP5 ADD PUSH2 0xFA0 MUL DUP2 PUSH2 0x134F JUMPI PUSH2 0x134E PUSH2 0x1CDB JUMP JUMPDEST JUMPDEST SDIV SWAP1 POP PUSH1 0x1F PUSH1 0x4 DUP3 PUSH2 0x5B5 MUL DUP2 PUSH2 0x1369 JUMPI PUSH2 0x1368 PUSH2 0x1CDB JUMP JUMPDEST JUMPDEST SDIV DUP5 SUB ADD SWAP3 POP PUSH1 0x0 PUSH2 0x98F DUP5 PUSH1 0x50 MUL DUP2 PUSH2 0x1386 JUMPI PUSH2 0x1385 PUSH2 0x1CDB JUMP JUMPDEST JUMPDEST SDIV SWAP1 POP PUSH1 0x0 PUSH1 0x50 DUP3 PUSH2 0x98F MUL DUP2 PUSH2 0x13A0 JUMPI PUSH2 0x139F PUSH2 0x1CDB JUMP JUMPDEST JUMPDEST SDIV DUP6 SUB SWAP1 POP PUSH1 0xB DUP3 DUP2 PUSH2 0x13B6 JUMPI PUSH2 0x13B5 PUSH2 0x1CDB JUMP JUMPDEST JUMPDEST SDIV SWAP5 POP DUP5 PUSH1 0xC MUL PUSH1 0x2 DUP4 ADD SUB SWAP2 POP DUP5 DUP4 PUSH1 0x31 DUP7 SUB PUSH1 0x64 MUL ADD ADD SWAP3 POP DUP3 SWAP9 POP DUP2 SWAP8 POP DUP1 SWAP7 POP POP POP POP POP POP POP SWAP2 SWAP4 SWAP1 SWAP3 POP JUMP JUMPDEST PUSH1 0x0 PUSH1 0x40 MLOAD SWAP1 POP SWAP1 JUMP JUMPDEST PUSH1 0x0 DUP1 REVERT JUMPDEST PUSH1 0x0 DUP1 REVERT JUMPDEST PUSH1 0x0 DUP2 SWAP1 POP SWAP2 SWAP1 POP JUMP JUMPDEST PUSH2 0x140E DUP2 PUSH2 0x13FB JUMP JUMPDEST DUP2 EQ PUSH2 0x1419 JUMPI PUSH1 0x0 DUP1 REVERT JUMPDEST POP JUMP JUMPDEST PUSH1 0x0 DUP2 CALLDATALOAD SWAP1 POP PUSH2 0x142B DUP2 PUSH2 0x1405 JUMP JUMPDEST SWAP3 SWAP2 POP POP JUMP JUMPDEST PUSH1 0x0 PUSH1 0x20 DUP3 DUP5 SUB SLT ISZERO PUSH2 0x1447 JUMPI PUSH2 0x1446 PUSH2 0x13F1 JUMP JUMPDEST JUMPDEST PUSH1 0x0 PUSH2 0x1455 DUP5 DUP3 DUP6 ADD PUSH2 0x141C JUMP JUMPDEST SWAP2 POP POP SWAP3 SWAP2 POP POP JUMP JUMPDEST PUSH1 0x0 DUP2 MLOAD SWAP1 POP SWAP2 SWAP1 POP JUMP JUMPDEST PUSH1 0x0 DUP3 DUP3 MSTORE PUSH1 0x20 DUP3 ADD SWAP1 POP SWAP3 SWAP2 POP POP JUMP JUMPDEST PUSH1 0x0 DUP2 SWAP1 POP PUSH1 0x20 DUP3 ADD SWAP1 POP SWAP2 SWAP1 POP JUMP JUMPDEST PUSH1 0x0 PUSH20 0xFFFFFFFFFFFFFFFFFFFFFFFFFFFFFFFFFFFFFFFF DUP3 AND SWAP1 POP SWAP2 SWAP1 POP JUMP JUMPDEST PUSH1 0x0 PUSH2 0x14B5 DUP3 PUSH2 0x148A JUMP JUMPDEST SWAP1 POP SWAP2 SWAP1 POP JUMP JUMPDEST PUSH2 0x14C5 DUP2 PUSH2 0x14AA JUMP JUMPDEST DUP3 MSTORE POP POP JUMP JUMPDEST PUSH1 0x0 PUSH2 0x14D7 DUP4 DUP4 PUSH2 0x14BC JUMP JUMPDEST PUSH1 0x20 DUP4 ADD SWAP1 POP SWAP3 SWAP2 POP POP JUMP JUMPDEST PUSH1 0x0 PUSH1 0x20 DUP3 ADD SWAP1 POP SWAP2 SWAP1 POP JUMP JUMPDEST PUSH1 0x0 PUSH2 0x14FB DUP3 PUSH2 0x145E JUMP JUMPDEST PUSH2 0x1505 DUP2 DUP6 PUSH2 0x1469 JUMP JUMPDEST SWAP4 POP PUSH2 0x1510 DUP4 PUSH2 0x147A JUMP JUMPDEST DUP1 PUSH1 0x0 JUMPDEST DUP4 DUP2 LT ISZERO PUSH2 0x1541 JUMPI DUP2 MLOAD PUSH2 0x1528 DUP9 DUP3 PUSH2 0x14CB JUMP JUMPDEST SWAP8 POP PUSH2 0x1533 DUP4 PUSH2 0x14E3 JUMP JUMPDEST SWAP3 POP POP PUSH1 0x1 DUP2 ADD SWAP1 POP PUSH2 0x1514 JUMP JUMPDEST POP DUP6 SWAP4 POP POP POP POP SWAP3 SWAP2 POP POP JUMP JUMPDEST PUSH1 0x0 PUSH1 0x20 DUP3 ADD SWAP1 POP DUP2 DUP2 SUB PUSH1 0x0 DUP4 ADD MSTORE PUSH2 0x1568 DUP2 DUP5 PUSH2 0x14F0 JUMP JUMPDEST SWAP1 POP SWAP3 SWAP2 POP POP JUMP JUMPDEST PUSH1 0x0 DUP1 PUSH1 0x40 DUP4 DUP6 SUB SLT ISZERO PUSH2 0x1587 JUMPI PUSH2 0x1586 PUSH2 0x13F1 JUMP JUMPDEST JUMPDEST PUSH1 0x0 PUSH2 0x1595 DUP6 DUP3 DUP7 ADD PUSH2 0x141C JUMP JUMPDEST SWAP3 POP POP PUSH1 0x20 PUSH2 0x15A6 DUP6 DUP3 DUP7 ADD PUSH2 0x141C JUMP JUMPDEST SWAP2 POP POP SWAP3 POP SWAP3 SWAP1 POP JUMP JUMPDEST PUSH1 0x0 DUP2 MLOAD SWAP1 POP SWAP2 SWAP1 POP JUMP JUMPDEST PUSH1 0x0 DUP3 DUP3 MSTORE PUSH1 0x20 DUP3 ADD SWAP1 POP SWAP3 SWAP2 POP POP JUMP JUMPDEST PUSH1 0x0 JUMPDEST DUP4 DUP2 LT ISZERO PUSH2 0x15EA JUMPI DUP1 DUP3 ADD MLOAD DUP2 DUP5 ADD MSTORE PUSH1 0x20 DUP2 ADD SWAP1 POP PUSH2 0x15CF JUMP JUMPDEST PUSH1 0x0 DUP5 DUP5 ADD MSTORE POP POP POP POP JUMP JUMPDEST PUSH1 0x0 PUSH1 0x1F NOT PUSH1 0x1F DUP4 ADD AND SWAP1 POP SWAP2 SWAP1 POP JUMP JUMPDEST PUSH1 0x0 PUSH2 0x1612 DUP3 PUSH2 0x15B0 JUMP JUMPDEST PUSH2 0x161C DUP2 DUP6 PUSH2 0x15BB JUMP JUMPDEST SWAP4 POP PUSH2 0x162C DUP2 DUP6 PUSH1 0x20 DUP7 ADD PUSH2 0x15CC JUMP JUMPDEST PUSH2 0x1635 DUP2 PUSH2 0x15F6 JUMP JUMPDEST DUP5 ADD SWAP2 POP POP SWAP3 SWAP2 POP POP JUMP JUMPDEST PUSH1 0x0 PUSH1 0x20 DUP3 ADD SWAP1 POP DUP2 DUP2 SUB PUSH1 0x0 DUP4 ADD MSTORE PUSH2 0x165A DUP2 DUP5 PUSH2 0x1607 JUMP JUMPDEST SWAP1 POP SWAP3 SWAP2 POP POP JUMP JUMPDEST PUSH1 0x0 DUP1 REVERT JUMPDEST PUSH1 0x0 DUP1 REVERT JUMPDEST PUSH32 0x4E487B7100000000000000000000000000000000000000000000000000000000 PUSH1 0x0 MSTORE PUSH1 0x41 PUSH1 0x4 MSTORE PUSH1 0x24 PUSH1 0x0 REVERT JUMPDEST PUSH2 0x16A4 DUP3 PUSH2 0x15F6 JUMP JUMPDEST DUP2 ADD DUP2 DUP2 LT PUSH8 0xFFFFFFFFFFFFFFFF DUP3 GT OR ISZERO PUSH2 0x16C3 JUMPI PUSH2 0x16C2 PUSH2 0x166C JUMP JUMPDEST JUMPDEST DUP1 PUSH1 0x40 MSTORE POP POP POP JUMP JUMPDEST PUSH1 0x0 PUSH2 0x16D6 PUSH2 0x13E7 JUMP JUMPDEST SWAP1 POP PUSH2 0x16E2 DUP3 DUP3 PUSH2 0x169B JUMP JUMPDEST SWAP2 SWAP1 POP JUMP JUMPDEST PUSH1 0x0 PUSH8 0xFFFFFFFFFFFFFFFF DUP3 GT ISZERO PUSH2 0x1702 JUMPI PUSH2 0x1701 PUSH2 0x166C JUMP JUMPDEST JUMPDEST PUSH2 0x170B DUP3 PUSH2 0x15F6 JUMP JUMPDEST SWAP1 POP PUSH1 0x20 DUP2 ADD SWAP1 POP SWAP2 SWAP1 POP JUMP JUMPDEST DUP3 DUP2 DUP4 CALLDATACOPY PUSH1 0x0 DUP4 DUP4 ADD MSTORE POP POP POP JUMP JUMPDEST PUSH1 0x0 PUSH2 0x173A PUSH2 0x1735 DUP5 PUSH2 0x16E7 JUMP JUMPDEST PUSH2 0x16CC JUMP JUMPDEST SWAP1 POP DUP3 DUP2 MSTORE PUSH1 0x20 DUP2 ADD DUP5 DUP5 DUP5 ADD GT ISZERO PUSH2 0x1756 JUMPI PUSH2 0x1755 PUSH2 0x1667 JUMP JUMPDEST JUMPDEST PUSH2 0x1761 DUP5 DUP3 DUP6 PUSH2 0x1718 JUMP JUMPDEST POP SWAP4 SWAP3 POP POP POP JUMP JUMPDEST PUSH1 0x0 DUP3 PUSH1 0x1F DUP4 ADD SLT PUSH2 0x177E JUMPI PUSH2 0x177D PUSH2 0x1662 JUMP JUMPDEST JUMPDEST DUP2 CALLDATALOAD PUSH2 0x178E DUP5 DUP3 PUSH1 0x20 DUP7 ADD PUSH2 0x1727 JUMP JUMPDEST SWAP2 POP POP SWAP3 SWAP2 POP POP JUMP JUMPDEST PUSH1 0x0 DUP1 PUSH1 0x40 DUP4 DUP6 SUB SLT ISZERO PUSH2 0x17AE JUMPI PUSH2 0x17AD PUSH2 0x13F1 JUMP JUMPDEST JUMPDEST PUSH1 0x0 DUP4 ADD CALLDATALOAD PUSH8 0xFFFFFFFFFFFFFFFF DUP2 GT ISZERO PUSH2 0x17CC JUMPI PUSH2 0x17CB PUSH2 0x13F6 JUMP JUMPDEST JUMPDEST PUSH2 0x17D8 DUP6 DUP3 DUP7 ADD PUSH2 0x1769 JUMP JUMPDEST SWAP3 POP POP PUSH1 0x20 DUP4 ADD CALLDATALOAD PUSH8 0xFFFFFFFFFFFFFFFF DUP2 GT ISZERO PUSH2 0x17F9 JUMPI PUSH2 0x17F8 PUSH2 0x13F6 JUMP JUMPDEST JUMPDEST PUSH2 0x1805 DUP6 DUP3 DUP7 ADD PUSH2 0x1769 JUMP JUMPDEST SWAP2 POP POP SWAP3 POP SWAP3 SWAP1 POP JUMP JUMPDEST PUSH1 0x0 DUP2 MLOAD SWAP1 POP SWAP2 SWAP1 POP JUMP JUMPDEST PUSH1 0x0 DUP3 DUP3 MSTORE PUSH1 0x20 DUP3 ADD SWAP1 POP SWAP3 SWAP2 POP POP JUMP JUMPDEST PUSH1 0x0 DUP2 SWAP1 POP PUSH1 0x20 DUP3 ADD SWAP1 POP SWAP2 SWAP1 POP JUMP JUMPDEST PUSH1 0x0 DUP3 DUP3 MSTORE PUSH1 0x20 DUP3 ADD SWAP1 POP SWAP3 SWAP2 POP POP JUMP JUMPDEST PUSH1 0x0 PUSH2 0x1857 DUP3 PUSH2 0x15B0 JUMP JUMPDEST PUSH2 0x1861 DUP2 DUP6 PUSH2 0x183B JUMP JUMPDEST SWAP4 POP PUSH2 0x1871 DUP2 DUP6 PUSH1 0x20 DUP7 ADD PUSH2 0x15CC JUMP JUMPDEST PUSH2 0x187A DUP2 PUSH2 0x15F6 JUMP JUMPDEST DUP5 ADD SWAP2 POP POP SWAP3 SWAP2 POP POP JUMP JUMPDEST PUSH1 0x0 PUSH2 0x1891 DUP4 DUP4 PUSH2 0x184C JUMP JUMPDEST SWAP1 POP SWAP3 SWAP2 POP POP JUMP JUMPDEST PUSH1 0x0 PUSH1 0x20 DUP3 ADD SWAP1 POP SWAP2 SWAP1 POP JUMP JUMPDEST PUSH1 0x0 PUSH2 0x18B1 DUP3 PUSH2 0x180F JUMP JUMPDEST PUSH2 0x18BB DUP2 DUP6 PUSH2 0x181A JUMP JUMPDEST SWAP4 POP DUP4 PUSH1 0x20 DUP3 MUL DUP6 ADD PUSH2 0x18CD DUP6 PUSH2 0x182B JUMP JUMPDEST DUP1 PUSH1 0x0 JUMPDEST DUP6 DUP2 LT ISZERO PUSH2 0x1909 JUMPI DUP5 DUP5 SUB DUP10 MSTORE DUP2 MLOAD PUSH2 0x18EA DUP6 DUP3 PUSH2 0x1885 JUMP JUMPDEST SWAP5 POP PUSH2 0x18F5 DUP4 PUSH2 0x1899 JUMP JUMPDEST SWAP3 POP PUSH1 0x20 DUP11 ADD SWAP10 POP POP PUSH1 0x1 DUP2 ADD SWAP1 POP PUSH2 0x18D1 JUMP JUMPDEST POP DUP3 SWAP8 POP DUP8 SWAP6 POP POP POP POP POP POP SWAP3 SWAP2 POP POP JUMP JUMPDEST PUSH1 0x0 PUSH1 0x20 DUP3 ADD SWAP1 POP DUP2 DUP2 SUB PUSH1 0x0 DUP4 ADD MSTORE PUSH2 0x1935 DUP2 DUP5 PUSH2 0x18A6 JUMP JUMPDEST SWAP1 POP SWAP3 SWAP2 POP POP JUMP JUMPDEST PUSH1 0x0 DUP2 SWAP1 POP SWAP2 SWAP1 POP JUMP JUMPDEST PUSH1 0x0 PUSH2 0x1962 PUSH2 0x195D PUSH2 0x1958 DUP5 PUSH2 0x148A JUMP JUMPDEST PUSH2 0x193D JUMP JUMPDEST PUSH2 0x148A JUMP JUMPDEST SWAP1 POP SWAP2 SWAP1 POP JUMP JUMPDEST PUSH1 0x0 PUSH2 0x1974 DUP3 PUSH2 0x1947 JUMP JUMPDEST SWAP1 POP SWAP2 SWAP1 POP JUMP JUMPDEST PUSH1 0x0 PUSH2 0x1986 DUP3 PUSH2 0x1969 JUMP JUMPDEST SWAP1 POP SWAP2 SWAP1 POP JUMP JUMPDEST PUSH2 0x1996 DUP2 PUSH2 0x197B JUMP JUMPDEST DUP3 MSTORE POP POP JUMP JUMPDEST PUSH1 0x0 PUSH1 0x20 DUP3 ADD SWAP1 POP PUSH2 0x19B1 PUSH1 0x0 DUP4 ADD DUP5 PUSH2 0x198D JUMP JUMPDEST SWAP3 SWAP2 POP POP JUMP JUMPDEST PUSH1 0x0 DUP2 SWAP1 POP SWAP2 SWAP1 POP JUMP JUMPDEST PUSH1 0x0 PUSH2 0x19DC PUSH2 0x19D7 PUSH2 0x19D2 DUP5 PUSH2 0x19B7 JUMP JUMPDEST PUSH2 0x193D JUMP JUMPDEST PUSH2 0x13FB JUMP JUMPDEST SWAP1 POP SWAP2 SWAP1 POP JUMP JUMPDEST PUSH2 0x19EC DUP2 PUSH2 0x19C1 JUMP JUMPDEST DUP3 MSTORE POP POP JUMP JUMPDEST PUSH1 0x0 PUSH1 0x40 DUP3 ADD SWAP1 POP PUSH2 0x1A07 PUSH1 0x0 DUP4 ADD DUP6 PUSH2 0x19E3 JUMP JUMPDEST DUP2 DUP2 SUB PUSH1 0x20 DUP4 ADD MSTORE PUSH2 0x1A19 DUP2 DUP5 PUSH2 0x1607 JUMP JUMPDEST SWAP1 POP SWAP4 SWAP3 POP POP POP JUMP JUMPDEST PUSH1 0x0 PUSH8 0xFFFFFFFFFFFFFFFF DUP3 GT ISZERO PUSH2 0x1A3D JUMPI PUSH2 0x1A3C PUSH2 0x166C JUMP JUMPDEST JUMPDEST PUSH1 0x20 DUP3 MUL SWAP1 POP PUSH1 0x20 DUP2 ADD SWAP1 POP SWAP2 SWAP1 POP JUMP JUMPDEST PUSH1 0x0 DUP1 REVERT JUMPDEST PUSH2 0x1A5C DUP2 PUSH2 0x14AA JUMP JUMPDEST DUP2 EQ PUSH2 0x1A67 JUMPI PUSH1 0x0 DUP1 REVERT JUMPDEST POP JUMP JUMPDEST PUSH1 0x0 DUP2 MLOAD SWAP1 POP PUSH2 0x1A79 DUP2 PUSH2 0x1A53 JUMP JUMPDEST SWAP3 SWAP2 POP POP JUMP JUMPDEST PUSH1 0x0 PUSH2 0x1A92 PUSH2 0x1A8D DUP5 PUSH2 0x1A22 JUMP JUMPDEST PUSH2 0x16CC JUMP JUMPDEST SWAP1 POP DUP1 DUP4 DUP3 MSTORE PUSH1 0x20 DUP3 ADD SWAP1 POP PUSH1 0x20 DUP5 MUL DUP4 ADD DUP6 DUP2 GT ISZERO PUSH2 0x1AB5 JUMPI PUSH2 0x1AB4 PUSH2 0x1A4E JUMP JUMPDEST JUMPDEST DUP4 JUMPDEST DUP2 DUP2 LT ISZERO PUSH2 0x1ADE JUMPI DUP1 PUSH2 0x1ACA DUP9 DUP3 PUSH2 0x1A6A JUMP JUMPDEST DUP5 MSTORE PUSH1 0x20 DUP5 ADD SWAP4 POP POP PUSH1 0x20 DUP2 ADD SWAP1 POP PUSH2 0x1AB7 JUMP JUMPDEST POP POP POP SWAP4 SWAP3 POP POP POP JUMP JUMPDEST PUSH1 0x0 DUP3 PUSH1 0x1F DUP4 ADD SLT PUSH2 0x1AFD JUMPI PUSH2 0x1AFC PUSH2 0x1662 JUMP JUMPDEST JUMPDEST DUP2 MLOAD PUSH2 0x1B0D DUP5 DUP3 PUSH1 0x20 DUP7 ADD PUSH2 0x1A7F JUMP JUMPDEST SWAP2 POP POP SWAP3 SWAP2 POP POP JUMP JUMPDEST PUSH1 0x0 PUSH1 0x20 DUP3 DUP5 SUB SLT ISZERO PUSH2 0x1B2C JUMPI PUSH2 0x1B2B PUSH2 0x13F1 JUMP JUMPDEST JUMPDEST PUSH1 0x0 DUP3 ADD MLOAD PUSH8 0xFFFFFFFFFFFFFFFF DUP2 GT ISZERO PUSH2 0x1B4A JUMPI PUSH2 0x1B49 PUSH2 0x13F6 JUMP JUMPDEST JUMPDEST PUSH2 0x1B56 DUP5 DUP3 DUP6 ADD PUSH2 0x1AE8 JUMP JUMPDEST SWAP2 POP POP SWAP3 SWAP2 POP POP JUMP JUMPDEST PUSH32 0x4E487B7100000000000000000000000000000000000000000000000000000000 PUSH1 0x0 MSTORE PUSH1 0x11 PUSH1 0x4 MSTORE PUSH1 0x24 PUSH1 0x0 REVERT JUMPDEST PUSH1 0x0 PUSH2 0x1B99 DUP3 PUSH2 0x13FB JUMP JUMPDEST SWAP2 POP PUSH2 0x1BA4 DUP4 PUSH2 0x13FB JUMP JUMPDEST SWAP3 POP DUP3 DUP3 MUL PUSH2 0x1BB2 DUP2 PUSH2 0x13FB JUMP JUMPDEST SWAP2 POP DUP3 DUP3 DIV DUP5 EQ DUP4 ISZERO OR PUSH2 0x1BC9 JUMPI PUSH2 0x1BC8 PUSH2 0x1B5F JUMP JUMPDEST JUMPDEST POP SWAP3 SWAP2 POP POP JUMP JUMPDEST PUSH32 0x4E487B7100000000000000000000000000000000000000000000000000000000 PUSH1 0x0 MSTORE PUSH1 0x32 PUSH1 0x4 MSTORE PUSH1 0x24 PUSH1 0x0 REVERT JUMPDEST PUSH1 0x0 PUSH2 0x1C0A DUP3 PUSH2 0x13FB JUMP JUMPDEST SWAP2 POP PUSH32 0xFFFFFFFFFFFFFFFFFFFFFFFFFFFFFFFFFFFFFFFFFFFFFFFFFFFFFFFFFFFFFFFF DUP3 SUB PUSH2 0x1C3C JUMPI PUSH2 0x1C3B PUSH2 0x1B5F JUMP JUMPDEST JUMPDEST PUSH1 0x1 DUP3 ADD SWAP1 POP SWAP2 SWAP1 POP JUMP JUMPDEST PUSH1 0x0 DUP2 SWAP1 POP SWAP3 SWAP2 POP POP JUMP JUMPDEST PUSH1 0x0 PUSH2 0x1C5D DUP3 PUSH2 0x15B0 JUMP JUMPDEST PUSH2 0x1C67 DUP2 DUP6 PUSH2 0x1C47 JUMP JUMPDEST SWAP4 POP PUSH2 0x1C77 DUP2 DUP6 PUSH1 0x20 DUP7 ADD PUSH2 0x15CC JUMP JUMPDEST DUP1 DUP5 ADD SWAP2 POP POP SWAP3 SWAP2 POP POP JUMP JUMPDEST PUSH1 0x0 PUSH2 0x1C8F DUP3 DUP6 PUSH2 0x1C52 JUMP JUMPDEST SWAP2 POP PUSH2 0x1C9B DUP3 DUP5 PUSH2 0x1C52 JUMP JUMPDEST SWAP2 POP DUP2 SWAP1 POP SWAP4 SWAP3 POP POP POP JUMP JUMPDEST PUSH1 0x0 PUSH2 0x1CB2 DUP3 PUSH2 0x13FB JUMP JUMPDEST SWAP2 POP PUSH2 0x1CBD DUP4 PUSH2 0x13FB JUMP JUMPDEST SWAP3 POP DUP3 DUP3 ADD SWAP1 POP DUP1 DUP3 GT ISZERO PUSH2 0x1CD5 JUMPI PUSH2 0x1CD4 PUSH2 0x1B5F JUMP JUMPDEST JUMPDEST SWAP3 SWAP2 POP POP JUMP JUMPDEST PUSH32 0x4E487B7100000000000000000000000000000000000000000000000000000000 PUSH1 0x0 MSTORE PUSH1 0x12 PUSH1 0x4 MSTORE PUSH1 0x24 PUSH1 0x0 REVERT JUMPDEST PUSH1 0x0 PUSH2 0x1D15 DUP3 PUSH2 0x13FB JUMP JUMPDEST SWAP2 POP PUSH2 0x1D20 DUP4 PUSH2 0x13FB JUMP JUMPDEST SWAP3 POP DUP3 PUSH2 0x1D30 JUMPI PUSH2 0x1D2F PUSH2 0x1CDB JUMP JUMPDEST JUMPDEST DUP3 DUP3 MOD SWAP1 POP SWAP3 SWAP2 POP POP JUMP JUMPDEST PUSH1 0x0 PUSH2 0x1D46 DUP3 PUSH2 0x13FB JUMP JUMPDEST SWAP2 POP PUSH2 0x1D51 DUP4 PUSH2 0x13FB JUMP JUMPDEST SWAP3 POP DUP3 DUP3 SUB SWAP1 POP DUP2 DUP2 GT ISZERO PUSH2 0x1D69 JUMPI PUSH2 0x1D68 PUSH2 0x1B5F JUMP JUMPDEST JUMPDEST SWAP3 SWAP2 POP POP JUMP INVALID LOG2 PUSH5 0x6970667358 0x22 SLT KECCAK256 SWAP5 0xEE DUP3 0xC1 0xB7 CODESIZE 0x2F DUP5 0x2E 0xB4 0xE5 DUP5 0xCE PUSH4 0xCA9EF61A ADDRESS 0xC4 SWAP8 PUSH24 0xD561F6BEF5BA3442071A64736F6C63430008120033000000 "
		},
		"gasEstimates": {
			"creation": {
				"codeDepositCost": "1517800",
				"executionCost": "infinite",
				"totalCost": "infinite"
			},
			"external": {
				"concatenate(string,string)": "infinite",
				"firebaseSys()": "infinite",
				"formatDate(uint256,uint256)": "infinite",
				"retrieveAddresses3DaysFromToday(uint256)": "infinite",
				"retrieveAddresses3DaysOverdue(uint256)": "infinite",
				"retrieveAddressesFromToday(uint256)": "infinite",
				"retrieveAddressesOneMonthFromToday(uint256)": "infinite",
				"retrieveAddressesTwoWeeksFromToday(uint256)": "infinite",
				"timestampToDateAfterAdding3Days(uint256)": "infinite",
				"timestampToDateAfterAddingOneMonth(uint256)": "infinite",
				"timestampToDateAfterAddingTwoWeeks(uint256)": "infinite",
				"timestampToDateAfterSubtract3Days(uint256)": "infinite",
				"timestampToDateFromToday(uint256)": "infinite"
			}
		},
		"methodIdentifiers": {
			"concatenate(string,string)": "266001d3",
			"firebaseSys()": "e1527ed2",
			"formatDate(uint256,uint256)": "172bded4",
			"retrieveAddresses3DaysFromToday(uint256)": "f3188d99",
			"retrieveAddresses3DaysOverdue(uint256)": "243565f0",
			"retrieveAddressesFromToday(uint256)": "aa2cd4c9",
			"retrieveAddressesOneMonthFromToday(uint256)": "1121e9e8",
			"retrieveAddressesTwoWeeksFromToday(uint256)": "48e12cac",
			"timestampToDateAfterAdding3Days(uint256)": "8ed71043",
			"timestampToDateAfterAddingOneMonth(uint256)": "bdf6b64e",
			"timestampToDateAfterAddingTwoWeeks(uint256)": "2f852df3",
			"timestampToDateAfterSubtract3Days(uint256)": "9f2fb76c",
			"timestampToDateFromToday(uint256)": "f8faec41"
		}
	},
	"abi": [
		{
			"inputs": [
				{
					"internalType": "address",
					"name": "_firebaseSysAddress",
					"type": "address"
				}
			],
			"stateMutability": "nonpayable",
			"type": "constructor"
		},
		{
			"inputs": [
				{
					"internalType": "string",
					"name": "a",
					"type": "string"
				},
				{
					"internalType": "string",
					"name": "b",
					"type": "string"
				}
			],
			"name": "concatenate",
			"outputs": [
				{
					"internalType": "string",
					"name": "",
					"type": "string"
				}
			],
			"stateMutability": "pure",
			"type": "function"
		},
		{
			"inputs": [],
			"name": "firebaseSys",
			"outputs": [
				{
					"internalType": "contract FirebaseSystem",
					"name": "",
					"type": "address"
				}
			],
			"stateMutability": "view",
			"type": "function"
		},
		{
			"inputs": [
				{
					"internalType": "uint256",
					"name": "day",
					"type": "uint256"
				},
				{
					"internalType": "uint256",
					"name": "month",
					"type": "uint256"
				}
			],
			"name": "formatDate",
			"outputs": [
				{
					"internalType": "string",
					"name": "date",
					"type": "string"
				}
			],
			"stateMutability": "pure",
			"type": "function"
		},
		{
			"inputs": [
				{
					"internalType": "uint256",
					"name": "_timestamp",
					"type": "uint256"
				}
			],
			"name": "retrieveAddresses3DaysFromToday",
			"outputs": [
				{
					"internalType": "address[]",
					"name": "",
					"type": "address[]"
				}
			],
			"stateMutability": "view",
			"type": "function"
		},
		{
			"inputs": [
				{
					"internalType": "uint256",
					"name": "_timestamp",
					"type": "uint256"
				}
			],
			"name": "retrieveAddresses3DaysOverdue",
			"outputs": [
				{
					"internalType": "address[]",
					"name": "",
					"type": "address[]"
				}
			],
			"stateMutability": "view",
			"type": "function"
		},
		{
			"inputs": [
				{
					"internalType": "uint256",
					"name": "_timestamp",
					"type": "uint256"
				}
			],
			"name": "retrieveAddressesFromToday",
			"outputs": [
				{
					"internalType": "address[]",
					"name": "",
					"type": "address[]"
				}
			],
			"stateMutability": "view",
			"type": "function"
		},
		{
			"inputs": [
				{
					"internalType": "uint256",
					"name": "_timestamp",
					"type": "uint256"
				}
			],
			"name": "retrieveAddressesOneMonthFromToday",
			"outputs": [
				{
					"internalType": "address[]",
					"name": "",
					"type": "address[]"
				}
			],
			"stateMutability": "view",
			"type": "function"
		},
		{
			"inputs": [
				{
					"internalType": "uint256",
					"name": "_timestamp",
					"type": "uint256"
				}
			],
			"name": "retrieveAddressesTwoWeeksFromToday",
			"outputs": [
				{
					"internalType": "address[]",
					"name": "",
					"type": "address[]"
				}
			],
			"stateMutability": "view",
			"type": "function"
		},
		{
			"inputs": [
				{
					"internalType": "uint256",
					"name": "_timestamp",
					"type": "uint256"
				}
			],
			"name": "timestampToDateAfterAdding3Days",
			"outputs": [
				{
					"internalType": "string",
					"name": "date",
					"type": "string"
				}
			],
			"stateMutability": "pure",
			"type": "function"
		},
		{
			"inputs": [
				{
					"internalType": "uint256",
					"name": "_timestamp",
					"type": "uint256"
				}
			],
			"name": "timestampToDateAfterAddingOneMonth",
			"outputs": [
				{
					"internalType": "string",
					"name": "date",
					"type": "string"
				}
			],
			"stateMutability": "pure",
			"type": "function"
		},
		{
			"inputs": [
				{
					"internalType": "uint256",
					"name": "_timestamp",
					"type": "uint256"
				}
			],
			"name": "timestampToDateAfterAddingTwoWeeks",
			"outputs": [
				{
					"internalType": "string",
					"name": "date",
					"type": "string"
				}
			],
			"stateMutability": "pure",
			"type": "function"
		},
		{
			"inputs": [
				{
					"internalType": "uint256",
					"name": "_timestamp",
					"type": "uint256"
				}
			],
			"name": "timestampToDateAfterSubtract3Days",
			"outputs": [
				{
					"internalType": "string[]",
					"name": "",
					"type": "string[]"
				}
			],
			"stateMutability": "pure",
			"type": "function"
		},
		{
			"inputs": [
				{
					"internalType": "uint256",
					"name": "_timestamp",
					"type": "uint256"
				}
			],
			"name": "timestampToDateFromToday",
			"outputs": [
				{
					"internalType": "string",
					"name": "date",
					"type": "string"
				}
			],
			"stateMutability": "pure",
			"type": "function"
		}
	]
}